{
  "abi": [
    {
      "inputs": [
        {
          "internalType": "uint256",
          "name": "_unumProjectId",
          "type": "uint256"
        },
        {
          "internalType": "uint256",
          "name": "_cdaoProjectId",
          "type": "uint256"
        },
        {
          "internalType": "contract IJBController",
          "name": "_controller",
          "type": "address"
        }
      ],
      "stateMutability": "nonpayable",
      "type": "constructor"
    },
    {
      "inputs": [],
      "name": "CDAO2NFT",
      "outputs": [
        {
          "internalType": "contract IERC721",
          "name": "",
          "type": "address"
        }
      ],
      "stateMutability": "view",
      "type": "function"
    },
    {
      "inputs": [],
      "name": "CDAO2RedemptionTerminal",
      "outputs": [
        {
          "internalType": "contract IJBRedemptionTerminal",
          "name": "",
          "type": "address"
        }
      ],
      "stateMutability": "view",
      "type": "function"
    },
    {
      "inputs": [],
      "name": "UNUMNFT",
      "outputs": [
        {
          "internalType": "contract IERC721",
          "name": "",
          "type": "address"
        }
      ],
      "stateMutability": "view",
      "type": "function"
    },
    {
      "inputs": [],
      "name": "UNUMPaymentTerminal",
      "outputs": [
        {
          "internalType": "contract IJBPaymentTerminal",
          "name": "",
          "type": "address"
        }
      ],
      "stateMutability": "view",
      "type": "function"
    },
    {
      "inputs": [],
      "name": "cdaoProjectId",
      "outputs": [
        {
          "internalType": "uint256",
          "name": "",
          "type": "uint256"
        }
      ],
      "stateMutability": "view",
      "type": "function"
    },
    {
      "inputs": [
        {
          "internalType": "uint256",
          "name": "_tokenId",
          "type": "uint256"
        }
      ],
      "name": "optIn",
      "outputs": [],
      "stateMutability": "nonpayable",
      "type": "function"
    },
    {
      "inputs": [
        {
          "internalType": "uint256[]",
          "name": "_tokenIds",
          "type": "uint256[]"
        }
      ],
      "name": "optIn",
      "outputs": [],
      "stateMutability": "nonpayable",
      "type": "function"
    },
    {
      "inputs": [],
      "name": "unumProjectId",
      "outputs": [
        {
          "internalType": "uint256",
          "name": "",
          "type": "uint256"
        }
      ],
      "stateMutability": "view",
      "type": "function"
    }
  ],
  "bytecode": {
    "object": "0x6101406040523480156200001257600080fd5b5060405162000da238038062000da28339810160408190526200003591620002f1565b60a08390526080829052604051638776c49960e01b8152600481018490526000906001600160a01b03831690638776c499906024016103a060405180830381865afa15801562000089573d6000803e3d6000fd5b505050506040513d601f19601f82011682018060405250810190620000af9190620005aa565b604051638776c49960e01b815260048101869052909250600091506001600160a01b03841690638776c499906024016103a060405180830381865afa158015620000fd573d6000803e3d6000fd5b505050506040513d601f19601f82011682018060405250810190620001239190620005aa565b9150508061020001516001600160a01b031660c0816001600160a01b0316815250508161020001516001600160a01b031660e0816001600160a01b0316815250506000836001600160a01b031663c41c2f246040518163ffffffff1660e01b8152600401602060405180830381865afa158015620001a5573d6000803e3d6000fd5b505050506040513d601f19601f82011682018060405250810190620001cb919062000658565b604051630862026560e41b81526004810188905261eeee60248201529091506001600160a01b03821690638620265090604401602060405180830381865afa1580156200021c573d6000803e3d6000fd5b505050506040513d601f19601f8201168201806040525081019062000242919062000658565b6001600160a01b0390811661012052604051630862026560e41b81526004810187905261eeee602482015290821690638620265090604401602060405180830381865afa15801562000298573d6000803e3d6000fd5b505050506040513d601f19601f82011682018060405250810190620002be919062000658565b6001600160a01b031661010052506200067f945050505050565b6001600160a01b0381168114620002ee57600080fd5b50565b6000806000606084860312156200030757600080fd5b835192506020840151915060408401516200032281620002d8565b809150509250925092565b60405161024081016001600160401b03811182821017156200035f57634e487b7160e01b600052604160045260246000fd5b60405290565b60405161012081016001600160401b03811182821017156200035f57634e487b7160e01b600052604160045260246000fd5b8051620003a481620002d8565b919050565b80518015158114620003a457600080fd5b600060608284031215620003cd57600080fd5b604051606081016001600160401b0381118282101715620003fe57634e487b7160e01b600052604160045260246000fd5b6040529050806200040f83620003a9565b81526200041f60208401620003a9565b60208201526200043260408401620003a9565b60408201525092915050565b600061028082840312156200045257600080fd5b6200045c6200032d565b90506200046a8383620003ba565b8152606082015160208201526080820151604082015260a082015160608201526200049860c08301620003a9565b6080820152620004ab60e08301620003a9565b60a0820152610100620004c0818401620003a9565b60c0830152610120620004d5818501620003a9565b60e0840152610140620004ea818601620003a9565b83850152610160925062000500838601620003a9565b82850152610180915062000516828601620003a9565b908401526101a06200052a858201620003a9565b838501526101c0925062000540838601620003a9565b828501526101e0915062000556828601620003a9565b908401526102006200056a858201620003a9565b83850152610220925062000580838601620003a9565b8285015262000593610240860162000397565b818501525050610260830151818301525092915050565b6000808284036103a0811215620005c057600080fd5b61012080821215620005d157600080fd5b620005db62000365565b9150845182526020850151602083015260408501516040830152606085015160608301526080850151608083015260a085015160a083015260c085015160c08301526200062b60e0860162000397565b60e08301526101008086015181840152508193506200064d868287016200043e565b925050509250929050565b6000602082840312156200066b57600080fd5b81516200067881620002d8565b9392505050565b60805160a05160c05160e05161010051610120516106a4620006fe6000396000818161012001526103e50152600081816101590152818161026401526103170152600060e10152600081816101a7015281816101eb015261029301526000818161018001526104120152600081816092015261034701526106a46000f3fe608060405234801561001057600080fd5b50600436106100885760003560e01c8063a6d69b2a1161005b578063a6d69b2a14610142578063c95d9a9a14610154578063cdb74daf1461017b578063f3bae51a146101a257600080fd5b80632f8397b81461008d57806336130f00146100c757806383bbf861146100dc5780639aac2dd61461011b575b600080fd5b6100b47f000000000000000000000000000000000000000000000000000000000000000081565b6040519081526020015b60405180910390f35b6100da6100d536600461048d565b6101c9565b005b6101037f000000000000000000000000000000000000000000000000000000000000000081565b6040516001600160a01b0390911681526020016100be565b6101037f000000000000000000000000000000000000000000000000000000000000000081565b6100da6101503660046104a6565b5050565b6101037f000000000000000000000000000000000000000000000000000000000000000081565b6100b47f000000000000000000000000000000000000000000000000000000000000000081565b6101037f000000000000000000000000000000000000000000000000000000000000000081565b6040516323b872dd60e01b8152336004820152306024820152604481018290527f00000000000000000000000000000000000000000000000000000000000000006001600160a01b0316906323b872dd90606401600060405180830381600087803b15801561023757600080fd5b505af115801561024b573d6000803e3d6000fd5b505060405163095ea7b360e01b81526001600160a01b037f000000000000000000000000000000000000000000000000000000000000000081166004830152602482018590527f000000000000000000000000000000000000000000000000000000000000000016925063095ea7b39150604401600060405180830381600087803b1580156102d957600080fd5b505af11580156102ed573d6000803e3d6000fd5b5050604080516020810182526000808252915163fe663f0f60e01b81529193506001600160a01b037f000000000000000000000000000000000000000000000000000000000000000016925063fe663f0f9161037a9130917f000000000000000000000000000000000000000000000000000000000000000091879161eeee918391869190600401610561565b6020604051808303816000875af1158015610399573d6000803e3d6000fd5b505050506040513d601f19601f820116820180604052508101906103bd91906105e1565b6040805160208101825260008082529151631ebc263f60e01b81529293506001600160a01b037f00000000000000000000000000000000000000000000000000000000000000001692631ebc263f92610445927f000000000000000000000000000000000000000000000000000000000000000092879261eeee9233928291906004016105fa565b6020604051808303816000875af1158015610464573d6000803e3d6000fd5b505050506040513d601f19601f8201168201806040525081019061048891906105e1565b505050565b60006020828403121561049f57600080fd5b5035919050565b600080602083850312156104b957600080fd5b823567ffffffffffffffff808211156104d157600080fd5b818501915085601f8301126104e557600080fd5b8135818111156104f457600080fd5b8660208260051b850101111561050957600080fd5b60209290920196919550909350505050565b6000815180845260005b8181101561054157602081850181015186830182015201610525565b506000602082860101526020601f19601f83011685010191505092915050565b6001600160a01b0388811682526020820188905260408201879052858116606083015260808201859052831660a082015261010060c08201819052600e908201526d3ab73ab6a230b79037b83a16b4b760911b61012082015261014060e082018190526000906105d38184018561051b565b9a9950505050505050505050565b6000602082840312156105f357600080fd5b5051919050565b878152602081018790526001600160a01b038681166040830152851660608201526080810184905282151560a082015261010060c082018190526011908201527037b83a16b4b710333937b69021a220a79960791b61012082015261014060e082018190526000906105d38184018561051b56fea26469706673582212208983713ec7a9e0ad3618ad40c6ca9edff29f588ff829f5fef42bc4dea4399c0164736f6c63430008110033",
    "linkReferences": {}
  },
  "methodIdentifiers": {
    "CDAO2NFT()": "f3bae51a",
    "CDAO2RedemptionTerminal()": "c95d9a9a",
    "UNUMNFT()": "83bbf861",
    "UNUMPaymentTerminal()": "9aac2dd6",
    "cdaoProjectId()": "2f8397b8",
    "optIn(uint256)": "36130f00",
    "optIn(uint256[])": "a6d69b2a",
    "unumProjectId()": "cdb74daf"
  },
  "id": 0
}