{
  "abi": [
    {
      "inputs": [
        {
          "internalType": "uint256",
          "name": "_unumProjectId",
          "type": "uint256"
        },
        {
          "internalType": "uint256",
          "name": "_cdaoProjectId",
          "type": "uint256"
        },
        {
          "internalType": "contract IJBController",
          "name": "_controller",
          "type": "address"
        }
      ],
      "stateMutability": "nonpayable",
      "type": "constructor"
    },
    {
      "inputs": [],
      "name": "CDAO2NFT",
      "outputs": [
        {
          "internalType": "contract IERC721",
          "name": "",
          "type": "address"
        }
      ],
      "stateMutability": "view",
      "type": "function"
    },
    {
      "inputs": [],
      "name": "CDAO2RedemptionTerminal",
      "outputs": [
        {
          "internalType": "contract IJBRedemptionTerminal",
          "name": "",
          "type": "address"
        }
      ],
      "stateMutability": "view",
      "type": "function"
    },
    {
      "inputs": [],
      "name": "UNUMNFT",
      "outputs": [
        {
          "internalType": "contract IERC721",
          "name": "",
          "type": "address"
        }
      ],
      "stateMutability": "view",
      "type": "function"
    },
    {
      "inputs": [],
      "name": "UNUMPaymentTerminal",
      "outputs": [
        {
          "internalType": "contract IJBPaymentTerminal",
          "name": "",
          "type": "address"
        }
      ],
      "stateMutability": "view",
      "type": "function"
    },
    {
      "inputs": [],
      "name": "cdaoProjectId",
      "outputs": [
        {
          "internalType": "uint256",
          "name": "",
          "type": "uint256"
        }
      ],
      "stateMutability": "view",
      "type": "function"
    },
    {
      "inputs": [
        {
          "internalType": "uint256[]",
          "name": "_tokenIds",
          "type": "uint256[]"
        }
      ],
      "name": "optIn",
      "outputs": [],
      "stateMutability": "nonpayable",
      "type": "function"
    },
    {
      "inputs": [],
      "name": "unumProjectId",
      "outputs": [
        {
          "internalType": "uint256",
          "name": "",
          "type": "uint256"
        }
      ],
      "stateMutability": "view",
      "type": "function"
    },
    {
      "stateMutability": "payable",
      "type": "receive"
    }
  ],
  "bytecode": {
    "object": "0x6101406040523480156200001257600080fd5b5060405162001090380380620010908339810160408190526200003591620002f1565b60a08390526080829052604051638776c49960e01b8152600481018490526000906001600160a01b03831690638776c499906024016103a060405180830381865afa15801562000089573d6000803e3d6000fd5b505050506040513d601f19601f82011682018060405250810190620000af9190620005aa565b604051638776c49960e01b815260048101869052909250600091506001600160a01b03841690638776c499906024016103a060405180830381865afa158015620000fd573d6000803e3d6000fd5b505050506040513d601f19601f82011682018060405250810190620001239190620005aa565b9150508061020001516001600160a01b031660c0816001600160a01b0316815250508161020001516001600160a01b031660e0816001600160a01b0316815250506000836001600160a01b031663c41c2f246040518163ffffffff1660e01b8152600401602060405180830381865afa158015620001a5573d6000803e3d6000fd5b505050506040513d601f19601f82011682018060405250810190620001cb919062000658565b604051630862026560e41b81526004810188905261eeee60248201529091506001600160a01b03821690638620265090604401602060405180830381865afa1580156200021c573d6000803e3d6000fd5b505050506040513d601f19601f8201168201806040525081019062000242919062000658565b6001600160a01b0390811661012052604051630862026560e41b81526004810187905261eeee602482015290821690638620265090604401602060405180830381865afa15801562000298573d6000803e3d6000fd5b505050506040513d601f19601f82011682018060405250810190620002be919062000658565b6001600160a01b031661010052506200067f945050505050565b6001600160a01b0381168114620002ee57600080fd5b50565b6000806000606084860312156200030757600080fd5b835192506020840151915060408401516200032281620002d8565b809150509250925092565b60405161024081016001600160401b03811182821017156200035f57634e487b7160e01b600052604160045260246000fd5b60405290565b60405161012081016001600160401b03811182821017156200035f57634e487b7160e01b600052604160045260246000fd5b8051620003a481620002d8565b919050565b80518015158114620003a457600080fd5b600060608284031215620003cd57600080fd5b604051606081016001600160401b0381118282101715620003fe57634e487b7160e01b600052604160045260246000fd5b6040529050806200040f83620003a9565b81526200041f60208401620003a9565b60208201526200043260408401620003a9565b60408201525092915050565b600061028082840312156200045257600080fd5b6200045c6200032d565b90506200046a8383620003ba565b8152606082015160208201526080820151604082015260a082015160608201526200049860c08301620003a9565b6080820152620004ab60e08301620003a9565b60a0820152610100620004c0818401620003a9565b60c0830152610120620004d5818501620003a9565b60e0840152610140620004ea818601620003a9565b83850152610160925062000500838601620003a9565b82850152610180915062000516828601620003a9565b908401526101a06200052a858201620003a9565b838501526101c0925062000540838601620003a9565b828501526101e0915062000556828601620003a9565b908401526102006200056a858201620003a9565b83850152610220925062000580838601620003a9565b8285015262000593610240860162000397565b818501525050610260830151818301525092915050565b6000808284036103a0811215620005c057600080fd5b61012080821215620005d157600080fd5b620005db62000365565b9150845182526020850151602083015260408501516040830152606085015160608301526080850151608083015260a085015160a083015260c085015160c08301526200062b60e0860162000397565b60e08301526101008086015181840152508193506200064d868287016200043e565b925050509250929050565b6000602082840312156200066b57600080fd5b81516200067881620002d8565b9392505050565b60805160a05160c05160e0516101005161012051610992620006fe60003960008181610125015261059401526000818161017b015281816102f301526103ea0152600060d90152600081816101e30152818161021201526102c40152600081816101af01526105c30152600081816092015261041901526109926000f3fe6080604052600436106100745760003560e01c8063a6d69b2a1161004e578063a6d69b2a14610147578063c95d9a9a14610169578063cdb74daf1461019d578063f3bae51a146101d157600080fd5b80632f8397b81461008057806383bbf861146100c75780639aac2dd61461011357600080fd5b3661007b57005b600080fd5b34801561008c57600080fd5b506100b47f000000000000000000000000000000000000000000000000000000000000000081565b6040519081526020015b60405180910390f35b3480156100d357600080fd5b506100fb7f000000000000000000000000000000000000000000000000000000000000000081565b6040516001600160a01b0390911681526020016100be565b34801561011f57600080fd5b506100fb7f000000000000000000000000000000000000000000000000000000000000000081565b34801561015357600080fd5b50610167610162366004610649565b610205565b005b34801561017557600080fd5b506100fb7f000000000000000000000000000000000000000000000000000000000000000081565b3480156101a957600080fd5b506100b47f000000000000000000000000000000000000000000000000000000000000000081565b3480156101dd57600080fd5b506100fb7f000000000000000000000000000000000000000000000000000000000000000081565b60005b8181101561039e577f00000000000000000000000000000000000000000000000000000000000000006001600160a01b03166323b872dd3330868686818110610253576102536106be565b6040516001600160e01b031960e088901b1681526001600160a01b03958616600482015294909316602485015250602090910201356044820152606401600060405180830381600087803b1580156102aa57600080fd5b505af11580156102be573d6000803e3d6000fd5b505050507f00000000000000000000000000000000000000000000000000000000000000006001600160a01b031663095ea7b37f0000000000000000000000000000000000000000000000000000000000000000858585818110610324576103246106be565b6040516001600160e01b031960e087901b1681526001600160a01b0390941660048501526020029190910135602483015250604401600060405180830381600087803b15801561037357600080fd5b505af1158015610387573d6000803e3d6000fd5b505050508080610396906106d4565b915050610208565b506040516000906103c090829063b3bcbb7960e01b90869086906020016106fb565b60408051601f198184030181529082905263fe663f0f60e01b825291506000906001600160a01b037f0000000000000000000000000000000000000000000000000000000000000000169063fe663f0f9061044d9030907f000000000000000000000000000000000000000000000000000000000000000090869061eeee90829085908b90600401610793565b6020604051808303816000875af115801561046c573d6000803e3d6000fd5b505050506040513d601f19601f820116820180604052508101906104909190610813565b905060008080808667ffffffffffffffff8111156104b0576104b061082c565b6040519080825280602002602001820160405280156104d9578160200160208202803683370190505b50905060005b8781101561054557633b9aca008989838181106104fe576104fe6106be565b9050602002013561050f9190610842565b828281518110610521576105216106be565b60ff909216602092830291909101909101528061053d816106d4565b9150506104df565b5060405160009061056d908290819063b3bcbb7960e01b908990899089908990602001610864565b60408051601f1981840301815290829052631ebc263f60e01b825291506001600160a01b037f00000000000000000000000000000000000000000000000000000000000000001690631ebc263f9088906105fa907f000000000000000000000000000000000000000000000000000000000000000090839061eeee90339060009081908b906004016108e8565b60206040518083038185885af1158015610618573d6000803e3d6000fd5b50505050506040513d601f19601f8201168201806040525081019061063d9190610813565b50505050505050505050565b6000806020838503121561065c57600080fd5b823567ffffffffffffffff8082111561067457600080fd5b818501915085601f83011261068857600080fd5b81358181111561069757600080fd5b8660208260051b85010111156106ac57600080fd5b60209290920196919550909350505050565b634e487b7160e01b600052603260045260246000fd5b6000600182016106f457634e487b7160e01b600052601160045260246000fd5b5060010190565b8481526001600160e01b031984166020820152606060408201819052810182905260006001600160fb1b0383111561073257600080fd5b8260051b808560808501379190910160800195945050505050565b6000815180845260005b8181101561077357602081850181015186830182015201610757565b506000602082860101526020601f19601f83011685010191505092915050565b6001600160a01b0388811682526020820188905260408201879052858116606083015260808201859052831660a082015261010060c08201819052600e908201526d2ab73ab6a230b79037b83a16b4b760911b61012082015261014060e082018190526000906108058184018561074d565b9a9950505050505050505050565b60006020828403121561082557600080fd5b5051919050565b634e487b7160e01b600052604160045260246000fd5b60008261085f57634e487b7160e01b600052601260045260246000fd5b500490565b87815260208082018890526001600160e01b0319871660408301528515156060830152841515608083015283151560a083015260e060c08301819052835190830181905260009184810191610100850190845b818110156108d657845160ff16835293830193918301916001016108b7565b50909c9b505050505050505050505050565b878152602081018790526001600160a01b038681166040830152851660608201526080810184905282151560a082015261010060c082018190526011908201527037b83a16b4b710333937b69021a220a79960791b61012082015261014060e082018190526000906108058184018561074d56fea26469706673582212207aca6ee3e554dc8c7029ba86696c1561103ef5a7bacc438f475f06b3b4a4f77564736f6c63430008110033",
    "linkReferences": {}
  },
  "methodIdentifiers": {
    "CDAO2NFT()": "f3bae51a",
    "CDAO2RedemptionTerminal()": "c95d9a9a",
    "UNUMNFT()": "83bbf861",
    "UNUMPaymentTerminal()": "9aac2dd6",
    "cdaoProjectId()": "2f8397b8",
    "optIn(uint256[])": "a6d69b2a",
    "unumProjectId()": "cdb74daf"
  },
  "id": 0
}