{
  "abi": [
    {
      "inputs": [],
      "name": "ETH",
      "outputs": [
        {
          "internalType": "uint256",
          "name": "",
          "type": "uint256"
        }
      ],
      "stateMutability": "pure",
      "type": "function"
    },
    {
      "inputs": [],
      "name": "ETHToken",
      "outputs": [
        {
          "internalType": "address",
          "name": "",
          "type": "address"
        }
      ],
      "stateMutability": "pure",
      "type": "function"
    },
    {
      "inputs": [],
      "name": "MAX_DISCOUNT_RATE",
      "outputs": [
        {
          "internalType": "uint256",
          "name": "",
          "type": "uint256"
        }
      ],
      "stateMutability": "pure",
      "type": "function"
    },
    {
      "inputs": [],
      "name": "MAX_FEE",
      "outputs": [
        {
          "internalType": "uint256",
          "name": "",
          "type": "uint256"
        }
      ],
      "stateMutability": "pure",
      "type": "function"
    },
    {
      "inputs": [],
      "name": "MAX_FEE_DISCOUNT",
      "outputs": [
        {
          "internalType": "uint256",
          "name": "",
          "type": "uint256"
        }
      ],
      "stateMutability": "pure",
      "type": "function"
    },
    {
      "inputs": [],
      "name": "MAX_REDEMPTION_RATE",
      "outputs": [
        {
          "internalType": "uint256",
          "name": "",
          "type": "uint256"
        }
      ],
      "stateMutability": "pure",
      "type": "function"
    },
    {
      "inputs": [],
      "name": "MAX_RESERVED_RATE",
      "outputs": [
        {
          "internalType": "uint256",
          "name": "",
          "type": "uint256"
        }
      ],
      "stateMutability": "pure",
      "type": "function"
    },
    {
      "inputs": [],
      "name": "SPLITS_TOTAL_PERCENT",
      "outputs": [
        {
          "internalType": "uint256",
          "name": "",
          "type": "uint256"
        }
      ],
      "stateMutability": "pure",
      "type": "function"
    },
    {
      "inputs": [],
      "name": "USD",
      "outputs": [
        {
          "internalType": "uint256",
          "name": "",
          "type": "uint256"
        }
      ],
      "stateMutability": "pure",
      "type": "function"
    }
  ],
  "bytecode": {
    "object": "0x608060405234801561001057600080fd5b5060fd8061001f6000396000f3fe6080604052348015600f57600080fd5b506004361060875760003560e01c80638322fff211605e5780638322fff21460b2578063870bc1fd14608c578063bc063e1a14608c578063d3c4fca914608c578063deda20c21460b857600080fd5b806319a9f94114608c5780631bf6c21b1460a55780634bb970421460ab5780635d14fef81460ab575b600080fd5b633b9aca005b6040519081526020015b60405180910390f35b60026092565b6127106092565b60016092565b60405161eeee8152602001609c56fea2646970667358221220ef0ae6aaef89a5f0443b5a62458496098aa7ecfb157fc3d05b9f5463bff0f9ad64736f6c63430008110033",
    "linkReferences": {}
  },
  "methodIdentifiers": {
    "ETH()": "8322fff2",
    "ETHToken()": "deda20c2",
    "MAX_DISCOUNT_RATE()": "870bc1fd",
    "MAX_FEE()": "bc063e1a",
    "MAX_FEE_DISCOUNT()": "19a9f941",
    "MAX_REDEMPTION_RATE()": "4bb97042",
    "MAX_RESERVED_RATE()": "5d14fef8",
    "SPLITS_TOTAL_PERCENT()": "d3c4fca9",
    "USD()": "1bf6c21b"
  },
  "id": 4
}