{
  "abi": [
    {
      "inputs": [],
      "name": "ALEADY_MINTED",
      "type": "error"
    },
    {
      "inputs": [],
      "name": "APPROVAL_TO_CURRENT_OWNER",
      "type": "error"
    },
    {
      "inputs": [],
      "name": "APPROVE_TO_CALLER",
      "type": "error"
    },
    {
      "inputs": [],
      "name": "BLOCK_NOT_YET_MINED",
      "type": "error"
    },
    {
      "inputs": [],
      "name": "CALLER_NOT_OWNER_OR_APPROVED",
      "type": "error"
    },
    {
      "inputs": [],
      "name": "DELEGATE_ADDRESS_ZERO",
      "type": "error"
    },
    {
      "inputs": [],
      "name": "INCORRECT_OWNER",
      "type": "error"
    },
    {
      "inputs": [],
      "name": "INVALID_PAYMENT_EVENT",
      "type": "error"
    },
    {
      "inputs": [],
      "name": "INVALID_REDEMPTION_EVENT",
      "type": "error"
    },
    {
      "inputs": [],
      "name": "INVALID_REDEMPTION_METADATA",
      "type": "error"
    },
    {
      "inputs": [],
      "name": "INVALID_TOKEN_ID",
      "type": "error"
    },
    {
      "inputs": [],
      "name": "MINT_TO_ZERO",
      "type": "error"
    },
    {
      "inputs": [],
      "name": "NOT_AVAILABLE",
      "type": "error"
    },
    {
      "inputs": [],
      "name": "OVERSPENDING",
      "type": "error"
    },
    {
      "inputs": [
        {
          "internalType": "uint256",
          "name": "prod1",
          "type": "uint256"
        },
        {
          "internalType": "uint256",
          "name": "denominator",
          "type": "uint256"
        }
      ],
      "name": "PRBMath__MulDivOverflow",
      "type": "error"
    },
    {
      "inputs": [],
      "name": "PRICING_RESOLVER_CHANGES_PAUSED",
      "type": "error"
    },
    {
      "inputs": [],
      "name": "RESERVED_TOKEN_MINTING_PAUSED",
      "type": "error"
    },
    {
      "inputs": [],
      "name": "TRANSFERS_PAUSED",
      "type": "error"
    },
    {
      "inputs": [],
      "name": "TRANSFER_TO_NON_IMPLEMENTER",
      "type": "error"
    },
    {
      "inputs": [],
      "name": "TRANSFER_TO_ZERO_ADDRESS",
      "type": "error"
    },
    {
      "inputs": [],
      "name": "UNAUTHORIZED",
      "type": "error"
    },
    {
      "inputs": [],
      "name": "UNEXPECTED_TOKEN_REDEEMED",
      "type": "error"
    },
    {
      "anonymous": false,
      "inputs": [
        {
          "indexed": true,
          "internalType": "uint256",
          "name": "tierId",
          "type": "uint256"
        },
        {
          "components": [
            {
              "internalType": "uint80",
              "name": "contributionFloor",
              "type": "uint80"
            },
            {
              "internalType": "uint48",
              "name": "lockedUntil",
              "type": "uint48"
            },
            {
              "internalType": "uint40",
              "name": "initialQuantity",
              "type": "uint40"
            },
            {
              "internalType": "uint16",
              "name": "votingUnits",
              "type": "uint16"
            },
            {
              "internalType": "uint16",
              "name": "reservedRate",
              "type": "uint16"
            },
            {
              "internalType": "address",
              "name": "reservedTokenBeneficiary",
              "type": "address"
            },
            {
              "internalType": "bytes32",
              "name": "encodedIPFSUri",
              "type": "bytes32"
            },
            {
              "internalType": "bool",
              "name": "allowManualMint",
              "type": "bool"
            },
            {
              "internalType": "bool",
              "name": "shouldUseBeneficiaryAsDefault",
              "type": "bool"
            },
            {
              "internalType": "bool",
              "name": "transfersPausable",
              "type": "bool"
            }
          ],
          "indexed": false,
          "internalType": "struct JB721TierParams",
          "name": "data",
          "type": "tuple"
        },
        {
          "indexed": false,
          "internalType": "address",
          "name": "caller",
          "type": "address"
        }
      ],
      "name": "AddTier",
      "type": "event"
    },
    {
      "anonymous": false,
      "inputs": [
        {
          "indexed": true,
          "internalType": "address",
          "name": "owner",
          "type": "address"
        },
        {
          "indexed": true,
          "internalType": "address",
          "name": "approved",
          "type": "address"
        },
        {
          "indexed": true,
          "internalType": "uint256",
          "name": "tokenId",
          "type": "uint256"
        }
      ],
      "name": "Approval",
      "type": "event"
    },
    {
      "anonymous": false,
      "inputs": [
        {
          "indexed": true,
          "internalType": "address",
          "name": "owner",
          "type": "address"
        },
        {
          "indexed": true,
          "internalType": "address",
          "name": "operator",
          "type": "address"
        },
        {
          "indexed": false,
          "internalType": "bool",
          "name": "approved",
          "type": "bool"
        }
      ],
      "name": "ApprovalForAll",
      "type": "event"
    },
    {
      "anonymous": false,
      "inputs": [
        {
          "indexed": true,
          "internalType": "address",
          "name": "delegator",
          "type": "address"
        },
        {
          "indexed": true,
          "internalType": "address",
          "name": "fromDelegate",
          "type": "address"
        },
        {
          "indexed": true,
          "internalType": "address",
          "name": "toDelegate",
          "type": "address"
        }
      ],
      "name": "DelegateChanged",
      "type": "event"
    },
    {
      "anonymous": false,
      "inputs": [
        {
          "indexed": true,
          "internalType": "uint256",
          "name": "tokenId",
          "type": "uint256"
        },
        {
          "indexed": true,
          "internalType": "uint256",
          "name": "tierId",
          "type": "uint256"
        },
        {
          "indexed": true,
          "internalType": "address",
          "name": "beneficiary",
          "type": "address"
        },
        {
          "indexed": false,
          "internalType": "uint256",
          "name": "totalAmountContributed",
          "type": "uint256"
        },
        {
          "indexed": false,
          "internalType": "address",
          "name": "caller",
          "type": "address"
        }
      ],
      "name": "Mint",
      "type": "event"
    },
    {
      "anonymous": false,
      "inputs": [
        {
          "indexed": true,
          "internalType": "uint256",
          "name": "tokenId",
          "type": "uint256"
        },
        {
          "indexed": true,
          "internalType": "uint256",
          "name": "tierId",
          "type": "uint256"
        },
        {
          "indexed": true,
          "internalType": "address",
          "name": "beneficiary",
          "type": "address"
        },
        {
          "indexed": false,
          "internalType": "address",
          "name": "caller",
          "type": "address"
        }
      ],
      "name": "MintReservedToken",
      "type": "event"
    },
    {
      "anonymous": false,
      "inputs": [
        {
          "indexed": true,
          "internalType": "address",
          "name": "previousOwner",
          "type": "address"
        },
        {
          "indexed": true,
          "internalType": "address",
          "name": "newOwner",
          "type": "address"
        }
      ],
      "name": "OwnershipTransferred",
      "type": "event"
    },
    {
      "anonymous": false,
      "inputs": [
        {
          "indexed": true,
          "internalType": "uint256",
          "name": "tierId",
          "type": "uint256"
        },
        {
          "indexed": false,
          "internalType": "address",
          "name": "caller",
          "type": "address"
        }
      ],
      "name": "RemoveTier",
      "type": "event"
    },
    {
      "anonymous": false,
      "inputs": [
        {
          "indexed": true,
          "internalType": "string",
          "name": "baseUri",
          "type": "string"
        },
        {
          "indexed": false,
          "internalType": "address",
          "name": "caller",
          "type": "address"
        }
      ],
      "name": "SetBaseUri",
      "type": "event"
    },
    {
      "anonymous": false,
      "inputs": [
        {
          "indexed": true,
          "internalType": "string",
          "name": "contractUri",
          "type": "string"
        },
        {
          "indexed": false,
          "internalType": "address",
          "name": "caller",
          "type": "address"
        }
      ],
      "name": "SetContractUri",
      "type": "event"
    },
    {
      "anonymous": false,
      "inputs": [
        {
          "indexed": true,
          "internalType": "address",
          "name": "beneficiary",
          "type": "address"
        },
        {
          "indexed": false,
          "internalType": "address",
          "name": "caller",
          "type": "address"
        }
      ],
      "name": "SetDefaultReservedTokenBeneficiary",
      "type": "event"
    },
    {
      "anonymous": false,
      "inputs": [
        {
          "indexed": true,
          "internalType": "contract IJBTokenUriResolver",
          "name": "newResolver",
          "type": "address"
        },
        {
          "indexed": false,
          "internalType": "address",
          "name": "caller",
          "type": "address"
        }
      ],
      "name": "SetTokenUriResolver",
      "type": "event"
    },
    {
      "anonymous": false,
      "inputs": [
        {
          "indexed": true,
          "internalType": "address",
          "name": "delegator",
          "type": "address"
        },
        {
          "indexed": true,
          "internalType": "address",
          "name": "fromDelegate",
          "type": "address"
        },
        {
          "indexed": true,
          "internalType": "address",
          "name": "toDelegate",
          "type": "address"
        },
        {
          "indexed": false,
          "internalType": "uint256",
          "name": "tierId",
          "type": "uint256"
        },
        {
          "indexed": false,
          "internalType": "address",
          "name": "caller",
          "type": "address"
        }
      ],
      "name": "TierDelegateChanged",
      "type": "event"
    },
    {
      "anonymous": false,
      "inputs": [
        {
          "indexed": true,
          "internalType": "address",
          "name": "delegate",
          "type": "address"
        },
        {
          "indexed": true,
          "internalType": "uint256",
          "name": "tierId",
          "type": "uint256"
        },
        {
          "indexed": false,
          "internalType": "uint256",
          "name": "previousBalance",
          "type": "uint256"
        },
        {
          "indexed": false,
          "internalType": "uint256",
          "name": "newBalance",
          "type": "uint256"
        },
        {
          "indexed": false,
          "internalType": "address",
          "name": "callre",
          "type": "address"
        }
      ],
      "name": "TierDelegateVotesChanged",
      "type": "event"
    },
    {
      "anonymous": false,
      "inputs": [
        {
          "indexed": true,
          "internalType": "address",
          "name": "from",
          "type": "address"
        },
        {
          "indexed": true,
          "internalType": "address",
          "name": "to",
          "type": "address"
        },
        {
          "indexed": true,
          "internalType": "uint256",
          "name": "tokenId",
          "type": "uint256"
        }
      ],
      "name": "Transfer",
      "type": "event"
    },
    {
      "inputs": [
        {
          "components": [
            {
              "internalType": "uint80",
              "name": "contributionFloor",
              "type": "uint80"
            },
            {
              "internalType": "uint48",
              "name": "lockedUntil",
              "type": "uint48"
            },
            {
              "internalType": "uint40",
              "name": "initialQuantity",
              "type": "uint40"
            },
            {
              "internalType": "uint16",
              "name": "votingUnits",
              "type": "uint16"
            },
            {
              "internalType": "uint16",
              "name": "reservedRate",
              "type": "uint16"
            },
            {
              "internalType": "address",
              "name": "reservedTokenBeneficiary",
              "type": "address"
            },
            {
              "internalType": "bytes32",
              "name": "encodedIPFSUri",
              "type": "bytes32"
            },
            {
              "internalType": "bool",
              "name": "allowManualMint",
              "type": "bool"
            },
            {
              "internalType": "bool",
              "name": "shouldUseBeneficiaryAsDefault",
              "type": "bool"
            },
            {
              "internalType": "bool",
              "name": "transfersPausable",
              "type": "bool"
            }
          ],
          "internalType": "struct JB721TierParams[]",
          "name": "_tiersToAdd",
          "type": "tuple[]"
        },
        {
          "internalType": "uint256[]",
          "name": "_tierIdsToRemove",
          "type": "uint256[]"
        }
      ],
      "name": "adjustTiers",
      "outputs": [],
      "stateMutability": "nonpayable",
      "type": "function"
    },
    {
      "inputs": [
        {
          "internalType": "address",
          "name": "to",
          "type": "address"
        },
        {
          "internalType": "uint256",
          "name": "tokenId",
          "type": "uint256"
        }
      ],
      "name": "approve",
      "outputs": [],
      "stateMutability": "nonpayable",
      "type": "function"
    },
    {
      "inputs": [
        {
          "internalType": "address",
          "name": "_owner",
          "type": "address"
        }
      ],
      "name": "balanceOf",
      "outputs": [
        {
          "internalType": "uint256",
          "name": "balance",
          "type": "uint256"
        }
      ],
      "stateMutability": "view",
      "type": "function"
    },
    {
      "inputs": [],
      "name": "codeOrigin",
      "outputs": [
        {
          "internalType": "address",
          "name": "",
          "type": "address"
        }
      ],
      "stateMutability": "view",
      "type": "function"
    },
    {
      "inputs": [],
      "name": "contractURI",
      "outputs": [
        {
          "internalType": "string",
          "name": "",
          "type": "string"
        }
      ],
      "stateMutability": "view",
      "type": "function"
    },
    {
      "inputs": [
        {
          "internalType": "address",
          "name": "",
          "type": "address"
        }
      ],
      "name": "creditsOf",
      "outputs": [
        {
          "internalType": "uint256",
          "name": "",
          "type": "uint256"
        }
      ],
      "stateMutability": "view",
      "type": "function"
    },
    {
      "inputs": [
        {
          "components": [
            {
              "internalType": "address",
              "name": "payer",
              "type": "address"
            },
            {
              "internalType": "uint256",
              "name": "projectId",
              "type": "uint256"
            },
            {
              "internalType": "uint256",
              "name": "currentFundingCycleConfiguration",
              "type": "uint256"
            },
            {
              "components": [
                {
                  "internalType": "address",
                  "name": "token",
                  "type": "address"
                },
                {
                  "internalType": "uint256",
                  "name": "value",
                  "type": "uint256"
                },
                {
                  "internalType": "uint256",
                  "name": "decimals",
                  "type": "uint256"
                },
                {
                  "internalType": "uint256",
                  "name": "currency",
                  "type": "uint256"
                }
              ],
              "internalType": "struct JBTokenAmount",
              "name": "amount",
              "type": "tuple"
            },
            {
              "components": [
                {
                  "internalType": "address",
                  "name": "token",
                  "type": "address"
                },
                {
                  "internalType": "uint256",
                  "name": "value",
                  "type": "uint256"
                },
                {
                  "internalType": "uint256",
                  "name": "decimals",
                  "type": "uint256"
                },
                {
                  "internalType": "uint256",
                  "name": "currency",
                  "type": "uint256"
                }
              ],
              "internalType": "struct JBTokenAmount",
              "name": "forwardedAmount",
              "type": "tuple"
            },
            {
              "internalType": "uint256",
              "name": "projectTokenCount",
              "type": "uint256"
            },
            {
              "internalType": "address",
              "name": "beneficiary",
              "type": "address"
            },
            {
              "internalType": "bool",
              "name": "preferClaimedTokens",
              "type": "bool"
            },
            {
              "internalType": "string",
              "name": "memo",
              "type": "string"
            },
            {
              "internalType": "bytes",
              "name": "metadata",
              "type": "bytes"
            }
          ],
          "internalType": "struct JBDidPayData",
          "name": "_data",
          "type": "tuple"
        }
      ],
      "name": "didPay",
      "outputs": [],
      "stateMutability": "payable",
      "type": "function"
    },
    {
      "inputs": [
        {
          "components": [
            {
              "internalType": "address",
              "name": "holder",
              "type": "address"
            },
            {
              "internalType": "uint256",
              "name": "projectId",
              "type": "uint256"
            },
            {
              "internalType": "uint256",
              "name": "currentFundingCycleConfiguration",
              "type": "uint256"
            },
            {
              "internalType": "uint256",
              "name": "projectTokenCount",
              "type": "uint256"
            },
            {
              "components": [
                {
                  "internalType": "address",
                  "name": "token",
                  "type": "address"
                },
                {
                  "internalType": "uint256",
                  "name": "value",
                  "type": "uint256"
                },
                {
                  "internalType": "uint256",
                  "name": "decimals",
                  "type": "uint256"
                },
                {
                  "internalType": "uint256",
                  "name": "currency",
                  "type": "uint256"
                }
              ],
              "internalType": "struct JBTokenAmount",
              "name": "reclaimedAmount",
              "type": "tuple"
            },
            {
              "components": [
                {
                  "internalType": "address",
                  "name": "token",
                  "type": "address"
                },
                {
                  "internalType": "uint256",
                  "name": "value",
                  "type": "uint256"
                },
                {
                  "internalType": "uint256",
                  "name": "decimals",
                  "type": "uint256"
                },
                {
                  "internalType": "uint256",
                  "name": "currency",
                  "type": "uint256"
                }
              ],
              "internalType": "struct JBTokenAmount",
              "name": "forwardedAmount",
              "type": "tuple"
            },
            {
              "internalType": "address payable",
              "name": "beneficiary",
              "type": "address"
            },
            {
              "internalType": "string",
              "name": "memo",
              "type": "string"
            },
            {
              "internalType": "bytes",
              "name": "metadata",
              "type": "bytes"
            }
          ],
          "internalType": "struct JBDidRedeemData",
          "name": "_data",
          "type": "tuple"
        }
      ],
      "name": "didRedeem",
      "outputs": [],
      "stateMutability": "payable",
      "type": "function"
    },
    {
      "inputs": [],
      "name": "directory",
      "outputs": [
        {
          "internalType": "contract IJBDirectory",
          "name": "",
          "type": "address"
        }
      ],
      "stateMutability": "view",
      "type": "function"
    },
    {
      "inputs": [
        {
          "internalType": "uint256",
          "name": "_tokenId",
          "type": "uint256"
        }
      ],
      "name": "firstOwnerOf",
      "outputs": [
        {
          "internalType": "address",
          "name": "",
          "type": "address"
        }
      ],
      "stateMutability": "view",
      "type": "function"
    },
    {
      "inputs": [],
      "name": "fundingCycleStore",
      "outputs": [
        {
          "internalType": "contract IJBFundingCycleStore",
          "name": "",
          "type": "address"
        }
      ],
      "stateMutability": "view",
      "type": "function"
    },
    {
      "inputs": [
        {
          "internalType": "uint256",
          "name": "tokenId",
          "type": "uint256"
        }
      ],
      "name": "getApproved",
      "outputs": [
        {
          "internalType": "address",
          "name": "",
          "type": "address"
        }
      ],
      "stateMutability": "view",
      "type": "function"
    },
    {
      "inputs": [
        {
          "internalType": "uint256",
          "name": "_tier",
          "type": "uint256"
        },
        {
          "internalType": "uint256",
          "name": "_blockNumber",
          "type": "uint256"
        }
      ],
      "name": "getPastTierTotalVotes",
      "outputs": [
        {
          "internalType": "uint256",
          "name": "",
          "type": "uint256"
        }
      ],
      "stateMutability": "view",
      "type": "function"
    },
    {
      "inputs": [
        {
          "internalType": "address",
          "name": "_account",
          "type": "address"
        },
        {
          "internalType": "uint256",
          "name": "_tier",
          "type": "uint256"
        },
        {
          "internalType": "uint256",
          "name": "_blockNumber",
          "type": "uint256"
        }
      ],
      "name": "getPastTierVotes",
      "outputs": [
        {
          "internalType": "uint256",
          "name": "",
          "type": "uint256"
        }
      ],
      "stateMutability": "view",
      "type": "function"
    },
    {
      "inputs": [
        {
          "internalType": "address",
          "name": "_account",
          "type": "address"
        },
        {
          "internalType": "uint256",
          "name": "_tier",
          "type": "uint256"
        }
      ],
      "name": "getTierDelegate",
      "outputs": [
        {
          "internalType": "address",
          "name": "",
          "type": "address"
        }
      ],
      "stateMutability": "view",
      "type": "function"
    },
    {
      "inputs": [
        {
          "internalType": "uint256",
          "name": "_tier",
          "type": "uint256"
        }
      ],
      "name": "getTierTotalVotes",
      "outputs": [
        {
          "internalType": "uint256",
          "name": "",
          "type": "uint256"
        }
      ],
      "stateMutability": "view",
      "type": "function"
    },
    {
      "inputs": [
        {
          "internalType": "address",
          "name": "_account",
          "type": "address"
        },
        {
          "internalType": "uint256",
          "name": "_tier",
          "type": "uint256"
        }
      ],
      "name": "getTierVotes",
      "outputs": [
        {
          "internalType": "uint256",
          "name": "",
          "type": "uint256"
        }
      ],
      "stateMutability": "view",
      "type": "function"
    },
    {
      "inputs": [
        {
          "internalType": "uint256",
          "name": "_projectId",
          "type": "uint256"
        },
        {
          "internalType": "contract IJBDirectory",
          "name": "_directory",
          "type": "address"
        },
        {
          "internalType": "string",
          "name": "_name",
          "type": "string"
        },
        {
          "internalType": "string",
          "name": "_symbol",
          "type": "string"
        },
        {
          "internalType": "contract IJBFundingCycleStore",
          "name": "_fundingCycleStore",
          "type": "address"
        },
        {
          "internalType": "string",
          "name": "_baseUri",
          "type": "string"
        },
        {
          "internalType": "contract IJBTokenUriResolver",
          "name": "_tokenUriResolver",
          "type": "address"
        },
        {
          "internalType": "string",
          "name": "_contractUri",
          "type": "string"
        },
        {
          "components": [
            {
              "components": [
                {
                  "internalType": "uint80",
                  "name": "contributionFloor",
                  "type": "uint80"
                },
                {
                  "internalType": "uint48",
                  "name": "lockedUntil",
                  "type": "uint48"
                },
                {
                  "internalType": "uint40",
                  "name": "initialQuantity",
                  "type": "uint40"
                },
                {
                  "internalType": "uint16",
                  "name": "votingUnits",
                  "type": "uint16"
                },
                {
                  "internalType": "uint16",
                  "name": "reservedRate",
                  "type": "uint16"
                },
                {
                  "internalType": "address",
                  "name": "reservedTokenBeneficiary",
                  "type": "address"
                },
                {
                  "internalType": "bytes32",
                  "name": "encodedIPFSUri",
                  "type": "bytes32"
                },
                {
                  "internalType": "bool",
                  "name": "allowManualMint",
                  "type": "bool"
                },
                {
                  "internalType": "bool",
                  "name": "shouldUseBeneficiaryAsDefault",
                  "type": "bool"
                },
                {
                  "internalType": "bool",
                  "name": "transfersPausable",
                  "type": "bool"
                }
              ],
              "internalType": "struct JB721TierParams[]",
              "name": "tiers",
              "type": "tuple[]"
            },
            {
              "internalType": "uint256",
              "name": "currency",
              "type": "uint256"
            },
            {
              "internalType": "uint256",
              "name": "decimals",
              "type": "uint256"
            },
            {
              "internalType": "contract IJBPrices",
              "name": "prices",
              "type": "address"
            }
          ],
          "internalType": "struct JB721PricingParams",
          "name": "_pricing",
          "type": "tuple"
        },
        {
          "internalType": "contract IJBTiered721DelegateStore",
          "name": "_store",
          "type": "address"
        },
        {
          "components": [
            {
              "internalType": "bool",
              "name": "lockReservedTokenChanges",
              "type": "bool"
            },
            {
              "internalType": "bool",
              "name": "lockVotingUnitChanges",
              "type": "bool"
            },
            {
              "internalType": "bool",
              "name": "lockManualMintingChanges",
              "type": "bool"
            }
          ],
          "internalType": "struct JBTiered721Flags",
          "name": "_flags",
          "type": "tuple"
        }
      ],
      "name": "initialize",
      "outputs": [],
      "stateMutability": "nonpayable",
      "type": "function"
    },
    {
      "inputs": [
        {
          "internalType": "address",
          "name": "owner",
          "type": "address"
        },
        {
          "internalType": "address",
          "name": "operator",
          "type": "address"
        }
      ],
      "name": "isApprovedForAll",
      "outputs": [
        {
          "internalType": "bool",
          "name": "",
          "type": "bool"
        }
      ],
      "stateMutability": "view",
      "type": "function"
    },
    {
      "inputs": [
        {
          "components": [
            {
              "internalType": "uint16[]",
              "name": "tierIds",
              "type": "uint16[]"
            },
            {
              "internalType": "address",
              "name": "beneficiary",
              "type": "address"
            }
          ],
          "internalType": "struct JBTiered721MintForTiersData[]",
          "name": "_mintForTiersData",
          "type": "tuple[]"
        }
      ],
      "name": "mintFor",
      "outputs": [],
      "stateMutability": "nonpayable",
      "type": "function"
    },
    {
      "inputs": [
        {
          "internalType": "uint16[]",
          "name": "_tierIds",
          "type": "uint16[]"
        },
        {
          "internalType": "address",
          "name": "_beneficiary",
          "type": "address"
        }
      ],
      "name": "mintFor",
      "outputs": [
        {
          "internalType": "uint256[]",
          "name": "tokenIds",
          "type": "uint256[]"
        }
      ],
      "stateMutability": "nonpayable",
      "type": "function"
    },
    {
      "inputs": [
        {
          "components": [
            {
              "internalType": "uint256",
              "name": "tierId",
              "type": "uint256"
            },
            {
              "internalType": "uint256",
              "name": "count",
              "type": "uint256"
            }
          ],
          "internalType": "struct JBTiered721MintReservesForTiersData[]",
          "name": "_mintReservesForTiersData",
          "type": "tuple[]"
        }
      ],
      "name": "mintReservesFor",
      "outputs": [],
      "stateMutability": "nonpayable",
      "type": "function"
    },
    {
      "inputs": [
        {
          "internalType": "uint256",
          "name": "_tierId",
          "type": "uint256"
        },
        {
          "internalType": "uint256",
          "name": "_count",
          "type": "uint256"
        }
      ],
      "name": "mintReservesFor",
      "outputs": [],
      "stateMutability": "nonpayable",
      "type": "function"
    },
    {
      "inputs": [],
      "name": "name",
      "outputs": [
        {
          "internalType": "string",
          "name": "",
          "type": "string"
        }
      ],
      "stateMutability": "view",
      "type": "function"
    },
    {
      "inputs": [],
      "name": "owner",
      "outputs": [
        {
          "internalType": "address",
          "name": "",
          "type": "address"
        }
      ],
      "stateMutability": "view",
      "type": "function"
    },
    {
      "inputs": [
        {
          "internalType": "uint256",
          "name": "tokenId",
          "type": "uint256"
        }
      ],
      "name": "ownerOf",
      "outputs": [
        {
          "internalType": "address",
          "name": "",
          "type": "address"
        }
      ],
      "stateMutability": "view",
      "type": "function"
    },
    {
      "inputs": [
        {
          "components": [
            {
              "internalType": "contract IJBPaymentTerminal",
              "name": "terminal",
              "type": "address"
            },
            {
              "internalType": "address",
              "name": "payer",
              "type": "address"
            },
            {
              "components": [
                {
                  "internalType": "address",
                  "name": "token",
                  "type": "address"
                },
                {
                  "internalType": "uint256",
                  "name": "value",
                  "type": "uint256"
                },
                {
                  "internalType": "uint256",
                  "name": "decimals",
                  "type": "uint256"
                },
                {
                  "internalType": "uint256",
                  "name": "currency",
                  "type": "uint256"
                }
              ],
              "internalType": "struct JBTokenAmount",
              "name": "amount",
              "type": "tuple"
            },
            {
              "internalType": "uint256",
              "name": "projectId",
              "type": "uint256"
            },
            {
              "internalType": "uint256",
              "name": "currentFundingCycleConfiguration",
              "type": "uint256"
            },
            {
              "internalType": "address",
              "name": "beneficiary",
              "type": "address"
            },
            {
              "internalType": "uint256",
              "name": "weight",
              "type": "uint256"
            },
            {
              "internalType": "uint256",
              "name": "reservedRate",
              "type": "uint256"
            },
            {
              "internalType": "string",
              "name": "memo",
              "type": "string"
            },
            {
              "internalType": "bytes",
              "name": "metadata",
              "type": "bytes"
            }
          ],
          "internalType": "struct JBPayParamsData",
          "name": "_data",
          "type": "tuple"
        }
      ],
      "name": "payParams",
      "outputs": [
        {
          "internalType": "uint256",
          "name": "weight",
          "type": "uint256"
        },
        {
          "internalType": "string",
          "name": "memo",
          "type": "string"
        },
        {
          "components": [
            {
              "internalType": "contract IJBPayDelegate",
              "name": "delegate",
              "type": "address"
            },
            {
              "internalType": "uint256",
              "name": "amount",
              "type": "uint256"
            }
          ],
          "internalType": "struct JBPayDelegateAllocation[]",
          "name": "delegateAllocations",
          "type": "tuple[]"
        }
      ],
      "stateMutability": "view",
      "type": "function"
    },
    {
      "inputs": [],
      "name": "prices",
      "outputs": [
        {
          "internalType": "contract IJBPrices",
          "name": "",
          "type": "address"
        }
      ],
      "stateMutability": "view",
      "type": "function"
    },
    {
      "inputs": [],
      "name": "pricingCurrency",
      "outputs": [
        {
          "internalType": "uint256",
          "name": "",
          "type": "uint256"
        }
      ],
      "stateMutability": "view",
      "type": "function"
    },
    {
      "inputs": [],
      "name": "pricingDecimals",
      "outputs": [
        {
          "internalType": "uint256",
          "name": "",
          "type": "uint256"
        }
      ],
      "stateMutability": "view",
      "type": "function"
    },
    {
      "inputs": [],
      "name": "projectId",
      "outputs": [
        {
          "internalType": "uint256",
          "name": "",
          "type": "uint256"
        }
      ],
      "stateMutability": "view",
      "type": "function"
    },
    {
      "inputs": [
        {
          "components": [
            {
              "internalType": "contract IJBPaymentTerminal",
              "name": "terminal",
              "type": "address"
            },
            {
              "internalType": "address",
              "name": "holder",
              "type": "address"
            },
            {
              "internalType": "uint256",
              "name": "projectId",
              "type": "uint256"
            },
            {
              "internalType": "uint256",
              "name": "currentFundingCycleConfiguration",
              "type": "uint256"
            },
            {
              "internalType": "uint256",
              "name": "tokenCount",
              "type": "uint256"
            },
            {
              "internalType": "uint256",
              "name": "totalSupply",
              "type": "uint256"
            },
            {
              "internalType": "uint256",
              "name": "overflow",
              "type": "uint256"
            },
            {
              "components": [
                {
                  "internalType": "address",
                  "name": "token",
                  "type": "address"
                },
                {
                  "internalType": "uint256",
                  "name": "value",
                  "type": "uint256"
                },
                {
                  "internalType": "uint256",
                  "name": "decimals",
                  "type": "uint256"
                },
                {
                  "internalType": "uint256",
                  "name": "currency",
                  "type": "uint256"
                }
              ],
              "internalType": "struct JBTokenAmount",
              "name": "reclaimAmount",
              "type": "tuple"
            },
            {
              "internalType": "bool",
              "name": "useTotalOverflow",
              "type": "bool"
            },
            {
              "internalType": "uint256",
              "name": "redemptionRate",
              "type": "uint256"
            },
            {
              "internalType": "string",
              "name": "memo",
              "type": "string"
            },
            {
              "internalType": "bytes",
              "name": "metadata",
              "type": "bytes"
            }
          ],
          "internalType": "struct JBRedeemParamsData",
          "name": "_data",
          "type": "tuple"
        }
      ],
      "name": "redeemParams",
      "outputs": [
        {
          "internalType": "uint256",
          "name": "reclaimAmount",
          "type": "uint256"
        },
        {
          "internalType": "string",
          "name": "memo",
          "type": "string"
        },
        {
          "components": [
            {
              "internalType": "contract IJBRedemptionDelegate",
              "name": "delegate",
              "type": "address"
            },
            {
              "internalType": "uint256",
              "name": "amount",
              "type": "uint256"
            }
          ],
          "internalType": "struct JBRedemptionDelegateAllocation[]",
          "name": "delegateAllocations",
          "type": "tuple[]"
        }
      ],
      "stateMutability": "view",
      "type": "function"
    },
    {
      "inputs": [],
      "name": "renounceOwnership",
      "outputs": [],
      "stateMutability": "nonpayable",
      "type": "function"
    },
    {
      "inputs": [
        {
          "internalType": "address",
          "name": "from",
          "type": "address"
        },
        {
          "internalType": "address",
          "name": "to",
          "type": "address"
        },
        {
          "internalType": "uint256",
          "name": "tokenId",
          "type": "uint256"
        }
      ],
      "name": "safeTransferFrom",
      "outputs": [],
      "stateMutability": "nonpayable",
      "type": "function"
    },
    {
      "inputs": [
        {
          "internalType": "address",
          "name": "from",
          "type": "address"
        },
        {
          "internalType": "address",
          "name": "to",
          "type": "address"
        },
        {
          "internalType": "uint256",
          "name": "tokenId",
          "type": "uint256"
        },
        {
          "internalType": "bytes",
          "name": "data",
          "type": "bytes"
        }
      ],
      "name": "safeTransferFrom",
      "outputs": [],
      "stateMutability": "nonpayable",
      "type": "function"
    },
    {
      "inputs": [
        {
          "internalType": "address",
          "name": "operator",
          "type": "address"
        },
        {
          "internalType": "bool",
          "name": "approved",
          "type": "bool"
        }
      ],
      "name": "setApprovalForAll",
      "outputs": [],
      "stateMutability": "nonpayable",
      "type": "function"
    },
    {
      "inputs": [
        {
          "internalType": "string",
          "name": "_baseUri",
          "type": "string"
        }
      ],
      "name": "setBaseUri",
      "outputs": [],
      "stateMutability": "nonpayable",
      "type": "function"
    },
    {
      "inputs": [
        {
          "internalType": "string",
          "name": "_contractUri",
          "type": "string"
        }
      ],
      "name": "setContractUri",
      "outputs": [],
      "stateMutability": "nonpayable",
      "type": "function"
    },
    {
      "inputs": [
        {
          "internalType": "address",
          "name": "_beneficiary",
          "type": "address"
        }
      ],
      "name": "setDefaultReservedTokenBeneficiary",
      "outputs": [],
      "stateMutability": "nonpayable",
      "type": "function"
    },
    {
      "inputs": [
        {
          "internalType": "address",
          "name": "_delegatee",
          "type": "address"
        },
        {
          "internalType": "uint256",
          "name": "_tierId",
          "type": "uint256"
        }
      ],
      "name": "setTierDelegate",
      "outputs": [],
      "stateMutability": "nonpayable",
      "type": "function"
    },
    {
      "inputs": [
        {
          "components": [
            {
              "internalType": "address",
              "name": "delegatee",
              "type": "address"
            },
            {
              "internalType": "uint256",
              "name": "tierId",
              "type": "uint256"
            }
          ],
          "internalType": "struct JBTiered721SetTierDelegatesData[]",
          "name": "_setTierDelegatesData",
          "type": "tuple[]"
        }
      ],
      "name": "setTierDelegates",
      "outputs": [],
      "stateMutability": "nonpayable",
      "type": "function"
    },
    {
      "inputs": [
        {
          "internalType": "contract IJBTokenUriResolver",
          "name": "_tokenUriResolver",
          "type": "address"
        }
      ],
      "name": "setTokenUriResolver",
      "outputs": [],
      "stateMutability": "nonpayable",
      "type": "function"
    },
    {
      "inputs": [],
      "name": "store",
      "outputs": [
        {
          "internalType": "contract IJBTiered721DelegateStore",
          "name": "",
          "type": "address"
        }
      ],
      "stateMutability": "view",
      "type": "function"
    },
    {
      "inputs": [
        {
          "internalType": "bytes4",
          "name": "_interfaceId",
          "type": "bytes4"
        }
      ],
      "name": "supportsInterface",
      "outputs": [
        {
          "internalType": "bool",
          "name": "",
          "type": "bool"
        }
      ],
      "stateMutability": "view",
      "type": "function"
    },
    {
      "inputs": [],
      "name": "symbol",
      "outputs": [
        {
          "internalType": "string",
          "name": "",
          "type": "string"
        }
      ],
      "stateMutability": "view",
      "type": "function"
    },
    {
      "inputs": [
        {
          "internalType": "uint256",
          "name": "_tokenId",
          "type": "uint256"
        }
      ],
      "name": "tokenURI",
      "outputs": [
        {
          "internalType": "string",
          "name": "",
          "type": "string"
        }
      ],
      "stateMutability": "view",
      "type": "function"
    },
    {
      "inputs": [
        {
          "internalType": "address",
          "name": "from",
          "type": "address"
        },
        {
          "internalType": "address",
          "name": "to",
          "type": "address"
        },
        {
          "internalType": "uint256",
          "name": "tokenId",
          "type": "uint256"
        }
      ],
      "name": "transferFrom",
      "outputs": [],
      "stateMutability": "nonpayable",
      "type": "function"
    },
    {
      "inputs": [
        {
          "internalType": "address",
          "name": "newOwner",
          "type": "address"
        }
      ],
      "name": "transferOwnership",
      "outputs": [],
      "stateMutability": "nonpayable",
      "type": "function"
    }
  ],
  "bytecode": {
    "object": "0x60806040523480156200001157600080fd5b506200001d3362000035565b600880546001600160a01b0319163017905562000087565b600780546001600160a01b038381166001600160a01b0319831681179093556040519116919082907f8be0079c531659141344cd1fd0a4f28419497f9722a3daafe3b4186f6b6457e090600090a35050565b61585e80620000976000396000f3fe6080604052600436106102935760003560e01c806395d89b411161015a578063ca323efe116100c1578063da9ee8b71161007a578063da9ee8b714610820578063df487e2614610833578063e8a3d48514610853578063e985e9c514610868578063f2fde38b146108b1578063f5a38e63146108d157600080fd5b8063ca323efe14610760578063ccb4807b14610780578063d31cc52c146107a0578063d3419bf3146107c0578063d40e7146146107e0578063d46cf1711461080057600080fd5b8063ab951e3911610113578063ab951e39146106a0578063b88d4fde146106c0578063bb52b6e4146106e0578063c41c2f2414610700578063c74b13d914610720578063c87b56dd1461074057600080fd5b806395d89b41146105dc578063975057e7146105f1578063a0bcfc7f14610611578063a22cb46514610631578063a51cfd1814610651578063aa4fb15b1461068057600080fd5b806342842e0e116101fe5780636ac6d941116101b75780636ac6d941146104f957806370a0823114610526578063715018a61461054657806382732b6d1461055b5780638da5cb5b1461059e57806394c5c5ca146105bc57600080fd5b806342842e0e1461044d5780634ecba6251461046d57806354c6d1f514610483578063557e7155146104a35780636352211e146104c357806364640c1e146104e357600080fd5b80632407497e116102505780632407497e14610389578063245a45b5146103a95780632a596e53146103e45780632b13c58f1461040457806336c1a93b146104175780633fafa1271461043757600080fd5b806301ffc9a71461029857806306fdde03146102cd578063081812fc146102ef578063095ea7b3146103275780631d153ca41461034957806323b872dd14610369575b600080fd5b3480156102a457600080fd5b506102b86102b3366004613ed8565b6108f1565b60405190151581526020015b60405180910390f35b3480156102d957600080fd5b506102e261091c565b6040516102c49190613f45565b3480156102fb57600080fd5b5061030f61030a366004613f58565b6109ae565b6040516001600160a01b0390911681526020016102c4565b34801561033357600080fd5b50610347610342366004613f96565b6109d5565b005b34801561035557600080fd5b5060085461030f906001600160a01b031681565b34801561037557600080fd5b50610347610384366004613fc2565b610a61565b34801561039557600080fd5b506103476103a4366004614003565b610a93565b3480156103b557600080fd5b506103d66103c4366004614003565b600e6020526000908152604090205481565b6040519081526020016102c4565b3480156103f057600080fd5b506103476103ff366004614020565b610b3c565b6103476104123660046140ad565b610b95565b34801561042357600080fd5b50610347610432366004614125565b610d6f565b34801561044357600080fd5b506103d660055481565b34801561045957600080fd5b50610347610468366004613fc2565b610dd1565b34801561047957600080fd5b506103d6600d5481565b34801561048f57600080fd5b5061030f61049e366004613f58565b610dec565b3480156104af57600080fd5b50600a5461030f906001600160a01b031681565b3480156104cf57600080fd5b5061030f6104de366004613f58565b610e98565b3480156104ef57600080fd5b506103d6600c5481565b34801561050557600080fd5b50610519610514366004614166565b610ece565b6040516102c491906141f7565b34801561053257600080fd5b506103d6610541366004614003565b611014565b34801561055257600080fd5b5061034761108a565b34801561056757600080fd5b5061030f610576366004613f96565b6001600160a01b039182166000908152600f6020908152604080832093835292905220541690565b3480156105aa57600080fd5b506007546001600160a01b031661030f565b3480156105c857600080fd5b506103d66105d7366004613f58565b61109e565b3480156105e857600080fd5b506102e26110c4565b3480156105fd57600080fd5b5060095461030f906001600160a01b031681565b34801561061d57600080fd5b5061034761062c36600461420a565b6110d3565b34801561063d57600080fd5b5061034761064c366004614282565b61118e565b34801561065d57600080fd5b5061067161066c3660046140ad565b61119d565b6040516102c4939291906142bb565b34801561068c57600080fd5b5061034761069b36600461432d565b6113fc565b3480156106ac57600080fd5b506103476106bb366004613f96565b611619565b3480156106cc57600080fd5b506103476106db3660046144ad565b611624565b3480156106ec57600080fd5b506103476106fb3660046147ae565b611657565b34801561070c57600080fd5b5060065461030f906001600160a01b031681565b34801561072c57600080fd5b5061034761073b3660046148e7565b61193d565b34801561074c57600080fd5b506102e261075b366004613f58565b6119c1565b34801561076c57600080fd5b506103d661077b366004613f96565b611bd0565b34801561078c57600080fd5b5061034761079b36600461420a565b611c0c565b3480156107ac57600080fd5b506103d66107bb36600461432d565b611cbf565b3480156107cc57600080fd5b50600b5461030f906001600160a01b031681565b3480156107ec57600080fd5b506103d66107fb3660046149a5565b611cd7565b34801561080c57600080fd5b5061067161081b3660046149da565b611d0c565b61034761082e366004614a15565b611def565b34801561083f57600080fd5b5061034761084e366004614003565b611ea6565b34801561085f57600080fd5b506102e2611f48565b34801561087457600080fd5b506102b8610883366004614a50565b6001600160a01b03918216600090815260046020908152604080832093909416825291909152205460ff1690565b3480156108bd57600080fd5b506103476108cc366004614003565b611fbe565b3480156108dd57600080fd5b506103476108ec366004614a7e565b61203c565b60006001600160e01b03198216631e68505960e31b148061091657506109168261221f565b92915050565b60606000805461092b90614b18565b80601f016020809104026020016040519081016040528092919081815260200182805461095790614b18565b80156109a45780601f10610979576101008083540402835291602001916109a4565b820191906000526020600020905b81548152906001019060200180831161098757829003601f168201915b5050505050905090565b60006109b982612295565b506000908152600360205260409020546001600160a01b031690565b60006109e082610e98565b9050806001600160a01b0316836001600160a01b031603610a145760405163133f8be960e01b815260040160405180910390fd5b336001600160a01b03821614801590610a345750610a328133610883565b155b15610a525760405163e5fa0e3560e01b815260040160405180910390fd5b610a5c83836122ca565b505050565b610a6b3382612338565b610a885760405163e5fa0e3560e01b815260040160405180910390fd5b610a5c8383836123b6565b610a9b61248f565b60095460405163036129cb60e61b81526001600160a01b0383811660048301529091169063d84a72c090602401600060405180830381600087803b158015610ae257600080fd5b505af1158015610af6573d6000803e3d6000fd5b50506040513381526001600160a01b03841692507fe7784d93cfbfa4408e19577e6cc0436f4dbb51214b70e100905dfce9def88c1691506020015b60405180910390a250565b8060005b81811015610b8f576000848483818110610b5c57610b5c614b4c565b905060400201803603810190610b729190614b62565b9050610b86816000015182602001516113fc565b50600101610b40565b50505050565b34151580610c175750600654600554604051636e49181f60e01b815260048101919091523360248201526001600160a01b0390911690636e49181f90604401602060405180830381865afa158015610bf1573d6000803e3d6000fd5b505050506040513d601f19601f82011682018060405250810190610c159190614bbb565b155b80610c285750600554816020013514155b15610c4657604051633efca5c360e11b815260040160405180910390fd5b6024610c566101c0830183614bd8565b90501080610c9a575063b3bcbb7960e01b610c756101c0830183614bd8565b610c8491602491602091614c1e565b610c8d91614c48565b6001600160e01b03191614155b15610cb857604051632a84050f60e01b815260040160405180910390fd5b6000610cc86101c0830183614bd8565b810190610cd59190614c78565b925050506000815190506000805b82811015610d6557838181518110610cfd57610cfd614b4c565b60200260200101519150846000016020810190610d1a9190614003565b6000838152600260205260409020546001600160a01b03908116911614610d545760405163075fd2b160e01b815260040160405180910390fd5b610d5d826124e9565b600101610ce3565b50610b8f8361256a565b610d7761248f565b8060005b81811015610b8f5736848483818110610d9657610d96614b4c565b9050602002810190610da89190614d26565b9050610dc7610db78280614d46565b6105146040850160208601614003565b5050600101610d7b565b610a5c83838360405180602001604052806000815250611624565b6009546040516308ed6c0160e41b81523060048201526024810183905260009182916001600160a01b0390911690638ed6c01090604401602060405180830381865afa158015610e40573d6000803e3d6000fd5b505050506040513d601f19601f82011682018060405250810190610e649190614d9a565b90506001600160a01b03811615610e7b5792915050565b50506000908152600260205260409020546001600160a01b031690565b6000818152600260205260408120546001600160a01b0316806109165760405163b49aa3b560e01b815260040160405180910390fd5b6060610ed861248f565b60095460405163eaa19ab360e01b81526001600160a01b039091169063eaa19ab390610f11906000199088908890600190600401614db7565b6000604051808303816000875af1158015610f30573d6000803e3d6000fd5b505050506040513d6000823e601f3d908101601f19168201604052610f589190810190614e7a565b509050826000805b8281101561100a57838181518110610f7a57610f7a614b4c565b60200260200101519150610f8e85836125cf565b846001600160a01b0316878783818110610faa57610faa614b4c565b9050602002016020810190610fbf9190614ec0565b604080516000815233602082015261ffff929092169185917f598baf7bf150ca2f42be9e9f8f55e81d45f5715c3ff22bf46d697fabec7f31d6910160405180910390a4600101610f60565b5050509392505050565b600954604051633de222bb60e21b81523060048201526001600160a01b038381166024830152600092169063f7888aec906044015b602060405180830381865afa158015611066573d6000803e3d6000fd5b505050506040513d601f19601f820116820180604052508101906109169190614edb565b61109261248f565b61109c6000612699565b565b60008181526011602052604081206110b5906126eb565b6001600160e01b031692915050565b60606001805461092b90614b18565b6110db61248f565b6009546040516331315e5960e11b81526001600160a01b0390911690636262bcb29061110d9085908590600401614ef4565b600060405180830381600087803b15801561112757600080fd5b505af115801561113b573d6000803e3d6000fd5b50505050818160405161114f929190614f23565b604051908190038120338252907f7bc9110d5de090dd59e07912d2b93a5a27ac70a60c8d8e324db4f9ee8b8b5c13906020015b60405180910390a25050565b611199338383612733565b5050565b60006060806080840135156111c5576040516309f82f1b60e31b815260040160405180910390fd5b60246111d56101c0860186614bd8565b90501080611219575063b3bcbb7960e01b6111f46101c0860186614bd8565b61120391602491602091614c1e565b61120c91614c48565b6001600160e01b03191614155b1561123757604051632a84050f60e01b815260040160405180910390fd5b60408051600180825281830190925290816020015b604080518082019091526000808252602082015281526020019060019003908161124c5790505090506040518060400160405280306001600160a01b031681526020016000815250816000815181106112a7576112a7614b4c565b602090810291909101015260006112c26101c0860186614bd8565b8101906112cf9190614c78565b9250505060006112df82876127d2565b905060006112ec87612846565b905060006112ff8860c001358484612877565b90506127108861018001350361136a578061131e6101a08a018a614bd8565b8782828080601f016020809104026020016040519081016040528093929190818152602001838380828437600092019190915250969d50919b509199506113f598505050505050505050565b6113a081611389856113836101808d0135612710614f49565b86612877565b611398906101808c0135614f5c565b612710612877565b6113ae6101a08a018a614bd8565b8782828080601f016020809104026020016040519081016040528093929190818152602001838380828437600092019190915250969d50919b509199505050505050505050505b9193909250565b600a546005546040516321d1336160e11b815260048101919091526000916001600160a01b0316906343a266c29060240161012060405180830381865afa15801561144b573d6000803e3d6000fd5b505050506040513d601f19601f8201168201806040525081019061146f9190614f6f565b61010081015190915060f51c60019081160361149e57604051631d2c125760e31b815260040160405180910390fd5b600954604051635d53f40760e11b815260048101859052602481018490526000916001600160a01b03169063baa7e80e906044016000604051808303816000875af11580156114f1573d6000803e3d6000fd5b505050506040513d6000823e601f3d908101601f191682016040526115199190810190614fef565b6009546040516304db994760e21b8152306004820152602481018790529192506000916001600160a01b039091169063136e651c90604401602060405180830381865afa15801561156e573d6000803e3d6000fd5b505050506040513d601f19601f820116820180604052508101906115929190614d9a565b90506000805b85811015611610578381815181106115b2576115b2614b4c565b602002602001015191506115c683836125cf565b6040513381526001600160a01b03841690889084907f031e1988c95a91ec4d655ff63a8f87a80bc9daf28d95ae10ee08c0022cfb5c8b9060200160405180910390a4600101611598565b50505050505050565b611199338383612944565b61162e3383612338565b61164b5760405163e5fa0e3560e01b815260040160405180910390fd5b610b8f848484846129c3565b6008546001600160a01b0316300361166e57600080fd5b6009546001600160a01b03161561168457600080fd5b6116908b8b8b8b6129f7565b600a80546001600160a01b03808a166001600160a01b031992831617909255600980548584169083161790556020850151600c556040850151600d556060850151600b8054919093169116179055855115611744576040516331315e5960e11b81526001600160a01b03831690636262bcb290611711908990600401613f45565b600060405180830381600087803b15801561172b57600080fd5b505af115801561173f573d6000803e3d6000fd5b505050505b8351156117aa5760405163d67b78fd60e01b81526001600160a01b0383169063d67b78fd90611777908790600401613f45565b600060405180830381600087803b15801561179157600080fd5b505af11580156117a5573d6000803e3d6000fd5b505050505b6001600160a01b038516156118155760405163036129cb60e61b81526001600160a01b03868116600483015283169063d84a72c090602401600060405180830381600087803b1580156117fc57600080fd5b505af1158015611810573d6000803e3d6000fd5b505050505b8251511561189357825160405163eadd8b3760e01b81526001600160a01b0384169163eadd8b379161184a9190600401615023565b6000604051808303816000875af1158015611869573d6000803e3d6000fd5b505050506040513d6000823e601f3d908101601f191682016040526118919190810190614fef565b505b8051806118a1575080602001515b806118ad575080604001515b15611927576040805163cdb0af6d60e01b815282511515600482015260208301511515602482015290820151151560448201526001600160a01b0383169063cdb0af6d90606401600060405180830381600087803b15801561190e57600080fd5b505af1158015611922573d6000803e3d6000fd5b505050505b61193033612699565b5050505050505050505050565b8051604080518082019091526000808252602082015260005b82811015610b8f5783818151811061197057611970614b4c565b602090810291909101015180519092506001600160a01b03166119a6576040516314f4c13d60e21b815260040160405180910390fd5b6119b93383600001518460200151612944565b600101611956565b6000818152600260205260409020546060906001600160a01b03166119f457505060408051602081019091526000815290565b600954604051630fab094760e01b81523060048201526000916001600160a01b031690630fab094790602401602060405180830381865afa158015611a3d573d6000803e3d6000fd5b505050506040513d601f19601f82011682018060405250810190611a619190614d9a565b90506001600160a01b03811615611ae657604051636d02a25560e11b8152600481018490526001600160a01b0382169063da0544aa90602401600060405180830381865afa158015611ab7573d6000803e3d6000fd5b505050506040513d6000823e601f3d908101601f19168201604052611adf91908101906150fc565b9392505050565b60095460405163f682eeaf60e01b8152306004820152611adf916001600160a01b03169063f682eeaf90602401600060405180830381865afa158015611b30573d6000803e3d6000fd5b505050506040513d6000823e601f3d908101601f19168201604052611b5891908101906150fc565b600954604051630c8df17160e41b8152306004820152602481018790526001600160a01b039091169063c8df171090604401602060405180830381865afa158015611ba7573d6000803e3d6000fd5b505050506040513d601f19601f82011682018060405250810190611bcb9190614edb565b612a2a565b6001600160a01b03821660009081526010602090815260408083208484529091528120611bfc906126eb565b6001600160e01b03169392505050565b611c1461248f565b60095460405163d67b78fd60e01b81526001600160a01b039091169063d67b78fd90611c469085908590600401614ef4565b600060405180830381600087803b158015611c6057600080fd5b505af1158015611c74573d6000803e3d6000fd5b505050508181604051611c88929190614f23565b604051908190038120338252907fd36dc0c1a06103fdcaf15f3f6fb797d1a97997514c78de073640c8b5005454b890602001611182565b6000828152601160205260408120611adf9083612a91565b6001600160a01b03831660009081526010602090815260408083208584529091528120611d049083612a91565b949350505050565b610120810135606080611d23610160850185614bd8565b8080601f01602080910402602001604051908101604052809392919081815260200183838082843760009201919091525092945060019250611d63915050565b604051908082528060200260200182016040528015611da857816020015b6040805180820190915260008082526020820152815260200190600190039081611d815790505b5090506040518060400160405280306001600160a01b03168152602001600081525081600081518110611ddd57611ddd614b4c565b60200260200101819052509193909250565b60055434151580611e705750600654604051636e49181f60e01b8152600481018390523360248201526001600160a01b0390911690636e49181f90604401602060405180830381865afa158015611e4a573d6000803e3d6000fd5b505050506040513d601f19601f82011682018060405250810190611e6e9190614bbb565b155b80611e7f575080826020013514155b15611e9d576040516331c57b1b60e21b815260040160405180910390fd5b61119982612b44565b611eae61248f565b6009546040516317161f7d60e01b81526001600160a01b038381166004830152909116906317161f7d90602401600060405180830381600087803b158015611ef557600080fd5b505af1158015611f09573d6000803e3d6000fd5b50506040513381526001600160a01b03841692507fab0014d4c7a642a02a31b303a318908c22b0fb2001f107278fc6076b4c671b659150602001610b31565b600954604051630155619b60e71b81523060048201526060916001600160a01b03169063aab0cd8090602401600060405180830381865afa158015611f91573d6000803e3d6000fd5b505050506040513d6000823e601f3d908101601f19168201604052611fb991908101906150fc565b905090565b611fc661248f565b6001600160a01b0381166120305760405162461bcd60e51b815260206004820152602660248201527f4f776e61626c653a206e6577206f776e657220697320746865207a65726f206160448201526564647265737360d01b60648201526084015b60405180910390fd5b61203981612699565b50565b61204461248f565b82818015612114576009546040516320512ba160e01b81526001600160a01b03909116906320512ba19061207e9087908790600401615169565b600060405180830381600087803b15801561209857600080fd5b505af11580156120ac573d6000803e3d6000fd5b5050505060005b81811015612112578484828181106120cd576120cd614b4c565b60405133815260209182029390930135927f832d89d991be5351d793c20faf4b7dd44f8aa9ce39e3cb160c6317de6fbba72992500160405180910390a26001016120b3565b505b81156122175760095460405163eadd8b3760e01b81526000916001600160a01b03169063eadd8b379061214d908a908a9060040161527f565b6000604051808303816000875af115801561216c573d6000803e3d6000fd5b505050506040513d6000823e601f3d908101601f191682016040526121949190810190614fef565b905060005b83811015612214578181815181106121b3576121b3614b4c565b60200260200101517f85b5b4c4e44e342c8dac3c3a5364494d455043decb9f4bb8e7e0a3020d22fed48989848181106121ee576121ee614b4c565b90506101400201336040516122049291906152c2565b60405180910390a2600101612199565b50505b505050505050565b60006001600160e01b0319821663b3bcbb7960e01b148061225057506001600160e01b031982166371700c6960e01b145b8061226b57506001600160e01b0319821663da9ee8b760e01b145b8061228657506001600160e01b03198216632b13c58f60e01b145b80610916575061091682612e6a565b6000818152600260205260409020546001600160a01b03166120395760405163b49aa3b560e01b815260040160405180910390fd5b600081815260036020526040902080546001600160a01b0319166001600160a01b03841690811790915581906122ff82610e98565b6001600160a01b03167f8c5be1e5ebec7d5bd14f71427d1e84f3dd0314c0f7b2291e5b200ac8c7c3b92560405160405180910390a45050565b60008061234483610e98565b9050806001600160a01b0316846001600160a01b0316148061238b57506001600160a01b0380821660009081526004602090815260408083209388168352929052205460ff165b80611d045750836001600160a01b03166123a4846109ae565b6001600160a01b031614949350505050565b826001600160a01b03166123c982610e98565b6001600160a01b0316146123f05760405163a195bc5360e01b815260040160405180910390fd5b6001600160a01b03821661241757604051632c95542760e01b815260040160405180910390fd5b612422838383612eba565b61242d6000826122ca565b60008181526002602052604080822080546001600160a01b0319166001600160a01b0386811691821790925591518493918716917fddf252ad1be2c89b69c2b068fc378daa952ba7f163c4a11628f55a4df523b3ef91a4610a5c8383836130e7565b6007546001600160a01b0316331461109c5760405162461bcd60e51b815260206004820181905260248201527f4f776e61626c653a2063616c6c6572206973206e6f7420746865206f776e65726044820152606401612027565b60006124f482610e98565b905061250281600084612eba565b61250d6000836122ca565b60008281526002602052604080822080546001600160a01b0319169055518391906001600160a01b038416907fddf252ad1be2c89b69c2b068fc378daa952ba7f163c4a11628f55a4df523b3ef908390a4611199816000846130e7565b6009546040516386bc2be360e01b81526001600160a01b03909116906386bc2be39061259a9084906004016141f7565b600060405180830381600087803b1580156125b457600080fd5b505af11580156125c8573d6000803e3d6000fd5b5050505050565b6001600160a01b0382166125f657604051633904578f60e11b815260040160405180910390fd5b6000818152600260205260409020546001600160a01b03161561262c57604051632eb5f0c360e21b815260040160405180910390fd5b61263860008383612eba565b60008181526002602052604080822080546001600160a01b0319166001600160a01b03861690811790915590518392907fddf252ad1be2c89b69c2b068fc378daa952ba7f163c4a11628f55a4df523b3ef908290a4611199600083836130e7565b600780546001600160a01b038381166001600160a01b0319831681179093556040519116919082907f8be0079c531659141344cd1fd0a4f28419497f9722a3daafe3b4186f6b6457e090600090a35050565b8054600090801561272a5761271383612705600184614f49565b600091825260209091200190565b5464010000000090046001600160e01b0316611adf565b60009392505050565b816001600160a01b0316836001600160a01b031603612765576040516306f8139d60e11b815260040160405180910390fd5b6001600160a01b03838116600081815260046020908152604080832094871680845294825291829020805460ff191686151590811790915591519182527f17307eab39ab6107e8899845ad3d59bd9653f200f220920489ca2b5937696c31910160405180910390a3505050565b60095460405163051330b560e21b81526000916001600160a01b03169063144cc2d49061280590309087906004016152ea565b602060405180830381865afa158015612822573d6000803e3d6000fd5b505050506040513d601f19601f82011682018060405250810190611adf9190614edb565b600954604051631572f24960e11b81523060048201526000916001600160a01b031690632ae5e49290602401611049565b60008080600019858709858702925082811083820303915050806000036128b1578382816128a7576128a761530e565b0492505050611adf565b8381106128db57604051631dcf306360e21b81526004810182905260248101859052604401612027565b60008486880960026001871981018816978890046003810283188082028403028082028403028082028403028082028403028082028403029081029092039091026000889003889004909101858311909403939093029303949094049190911702949350505050565b6001600160a01b038381166000818152600f6020908152604080832086845290915280822080548786166001600160a01b0319821681179092559151919094169392849290917f3134e8a2e6d97e929a7e54011ea5485d7d196dd5f0ba4d4ef95803e8e3fc257f9190a4610b8f8184846129be88876131e0565b613220565b6129ce8484846123b6565b6129da84848484613375565b610b8f576040516336f57c1b60e11b815260040160405180910390fd5b612a018282613477565b5050600591909155600680546001600160a01b0319166001600160a01b03909216919091179055565b604051609160f51b60208201526022810182905260609060009060420160405160208183030381529060405290506000612a6382613490565b90508481604051602001612a78929190615324565b6040516020818303038152906040529250505092915050565b6000438210612ae25760405162461bcd60e51b815260206004820181905260248201527f436865636b706f696e74733a20626c6f636b206e6f7420796574206d696e65646044820152606401612027565b6000612aed83613628565b84549091506000612b0086848385613691565b90508015612b2e57612b1786612705600184614f49565b5464010000000090046001600160e01b0316612b31565b60005b6001600160e01b03169695505050505050565b600c5460009060c083013503612b5f57506080810135612c15565b600b546001600160a01b03161561119957600d54612c1290608084013590612b8890600a615437565b600b54600c54604051635268657960e11b815260c08801356004820152602481019190915260a087013560448201526001600160a01b039091169063a4d0caf290606401602060405180830381865afa158015612be9573d6000803e3d6000fd5b505050506040513d601f19601f82011682018060405250810190612c0d9190614edb565b612877565b90505b6000600e81612c2c6101a086016101808701614003565b6001600160a01b03168152602081019190915260400160009081205491508290612c5e6101a086016101808701614003565b6001600160a01b0316612c746020870187614003565b6001600160a01b031603612c8b5790820190612c8e565b50815b6000806044612ca16101e0890189614bd8565b9050118015612ce5575063b3bcbb7960e01b612cc16101e0890189614bd8565b612cd091604491604091614c1e565b612cd991614c48565b6001600160e01b031916145b15612d855760006060612cfc6101e08a018a614bd8565b810190612d099190615443565b919950975090955093505083159150612d5c905057858501600e6000612d376101a08d016101808e01614003565b6001600160a01b03168152602081019190915260400160002055505050505050505050565b805115612d8257612d7f8682612d7a6101a08d016101808e01614003565b6136ef565b95505b50505b8315612e2957612da784612da16101a08a016101808b01614003565b84613831565b93508315612e06578015612dce57604051631b57826960e21b815260040160405180910390fd5b838301600e6000612de76101a08b016101808c01614003565b6001600160a01b03168152602081019190915260400160002055611610565b828514612e245782600e6000612de76101a08b016101808c01614003565b611610565b8285146116105782600e6000612e476101a08b016101808c01614003565b6001600160a01b0316815260208101919091526040016000205550505050505050565b60006001600160e01b031982166380ac58cd60e01b1480612e9b57506001600160e01b03198216635b5e139f60e01b145b8061091657506301ffc9a760e01b6001600160e01b0319831614610916565b6001600160a01b03831615610a5c5760095460405163b67cb04760e01b8152306004820152602481018390526000916001600160a01b03169063b67cb0479060440161016060405180830381865afa158015612f1a573d6000803e3d6000fd5b505050506040513d601f19601f82011682018060405250810190612f3e919061553a565b90508061014001511561300357600a546005546040516321d1336160e11b815260048101919091526000916001600160a01b0316906343a266c29060240161012060405180830381865afa158015612f9a573d6000803e3d6000fd5b505050506040513d601f19601f82011682018060405250810190612fbe9190614f6f565b90506001600160a01b03841615801590612fe3575061010081015160f41c6001908116145b15613001576040516318cdaf9760e01b815260040160405180910390fd5b505b6009546040516308ed6c0160e41b8152306004820152602481018490526000916001600160a01b031690638ed6c01090604401602060405180830381865afa158015613053573d6000803e3d6000fd5b505050506040513d601f19601f820116820180604052508101906130779190614d9a565b6001600160a01b031603610b8f57600954604051638cec7d3960e01b8152600481018490526001600160a01b03868116602483015290911690638cec7d3990604401600060405180830381600087803b1580156130d357600080fd5b505af1158015612214573d6000803e3d6000fd5b60095460405163b67cb04760e01b8152306004820152602481018390526000916001600160a01b03169063b67cb0479060440161016060405180830381865afa158015613138573d6000803e3d6000fd5b505050506040513d601f19601f8201168201806040525081019061315c919061553a565b60095481516040516330b157e560e21b815260048101919091526001600160a01b038781166024830152868116604483015292935091169063c2c55f9490606401600060405180830381600087803b1580156131b757600080fd5b505af11580156131cb573d6000803e3d6000fd5b505050506131db8484848461393b565b610b8f565b6009546040516305c9a1d560e31b81523060048201526001600160a01b038481166024830152604482018490526000921690632e4d0ea890606401612805565b826001600160a01b0316846001600160a01b0316148061323e575080155b610b8f576001600160a01b038416156132d9576001600160a01b0384166000908152601060209081526040808320858452909152812081906132839061395985613965565b60408051838152602081018390523381830152905192945090925085916001600160a01b038916917fed0c1e94c302bdbbd8bbd6a4fb7c3ed335c2292407cd816eadd075d019d0ce04919081900360600190a350505b6001600160a01b03831615610b8f576001600160a01b03831660009081526010602090815260408083208584529091528120819061331a9061399d85613965565b60408051838152602081018390523381830152905192945090925085916001600160a01b038816917fed0c1e94c302bdbbd8bbd6a4fb7c3ed335c2292407cd816eadd075d019d0ce04919081900360600190a3505050505050565b60006001600160a01b0384163b1561346c57604051630a85bd0160e11b81526001600160a01b0385169063150b7a02906133b99033908990889088906004016155dc565b6020604051808303816000875af19250505080156133f4575060408051601f3d908101601f191682019092526133f191810190615619565b60015b613452573d808015613422576040519150601f19603f3d011682016040523d82523d6000602084013e613427565b606091505b50805160000361344a576040516336f57c1b60e11b815260040160405180910390fd5b805181602001fd5b6001600160e01b031916630a85bd0160e11b149050611d04565b506001949350505050565b6000613483838261567c565b506001610a5c828261567c565b606081516000036134af57505060408051600081526020810190915290565b60408051602e8082526105e08201909252600091602082016105c0803683370190505090506000816000815181106134e9576134e9614b4c565b60ff90921660209283029190910190910152825160019060005b8181101561360457600086828151811061351f5761351f614b4c565b016020015160f81c905060005b8460ff168110156135a957600886828151811061354b5761354b614b4c565b602002602001015160ff16901b826135639190614f5c565b9150613570603a8361573b565b86828151811061358257613582614b4c565b60ff9092166020928302919091019091015261359f603a8361574f565b915060010161352c565b505b80156135fb576135bc603a8261573b565b858560ff16815181106135d1576135d1614b4c565b60ff909216602092830291909101909101526001909301926135f4603a8261574f565b90506135ab565b50600101613503565b5061361f61361a61361585856139a9565b613a48565b613aea565b95945050505050565b600063ffffffff82111561368d5760405162461bcd60e51b815260206004820152602660248201527f53616665436173743a2076616c756520646f65736e27742066697420696e203360448201526532206269747360d01b6064820152608401612027565b5090565b60005b818310156136e75760006136a88484613bc3565b60008781526020902090915063ffffffff86169082015463ffffffff1611156136d3578092506136e1565b6136de816001614f5c565b93505b50613694565b509392505050565b60095460405163eaa19ab360e01b81526000916060916001600160a01b039091169063eaa19ab39061372990889088908790600401615763565b6000604051808303816000875af1158015613748573d6000803e3d6000fd5b505050506040513d6000823e601f3d908101601f191682016040526137709190810190614e7a565b81519093509091506000805b828110156138265783818151811061379657613796614b4c565b602002602001015191506137aa86836125cf565b856001600160a01b03168782815181106137c6576137c6614b4c565b602002602001015161ffff16837f598baf7bf150ca2f42be9e9f8f55e81d45f5715c3ff22bf46d697fabec7f31d68b336040516138169291909182526001600160a01b0316602082015260400190565b60405180910390a460010161377c565b505050509392505050565b60095460405163879791f360e01b815260048101859052600091829182916001600160a01b03169063879791f3906024016060604051808303816000875af1158015613881573d6000803e3d6000fd5b505050506040513d601f19601f820116820180604052508101906138a591906157c0565b9450909250905060008290036138db5783156138d457604051630e5313df60e41b815260040160405180910390fd5b5050611adf565b6138e585836125cf565b6001600160a01b03851681837f598baf7bf150ca2f42be9e9f8f55e81d45f5715c3ff22bf46d697fabec7f31d661391c878b614f49565b604080519182523360208301520160405180910390a450509392505050565b60a081015115610b8f57610b8f848483600001518460a00151613bde565b6000611adf8284614f49565b6000806139908561398b613978886126eb565b6001600160e01b0316868863ffffffff16565b613c80565b915091505b935093915050565b6000611adf8284614f5c565b606060008260ff166001600160401b038111156139c8576139c861434f565b6040519080825280602002602001820160405280156139f1578160200160208202803683370190505b50905060005b8360ff168110156136e757848181518110613a1457613a14614b4c565b6020026020010151828281518110613a2e57613a2e614b4c565b60ff909216602092830291909101909101526001016139f7565b80516060906000816001600160401b03811115613a6757613a6761434f565b604051908082528060200260200182016040528015613a90578160200160208202803683370190505b50905060005b828110156136e757848160018751030381518110613ab657613ab6614b4c565b6020026020010151828281518110613ad057613ad0614b4c565b60ff90921660209283029190910190910152600101613a96565b80516060906000816001600160401b03811115613b0957613b0961434f565b6040519080825280601f01601f191660200182016040528015613b33576020820181803683370190505b50905060005b828110156136e7576040518060600160405280603a81526020016157ef603a9139858281518110613b6c57613b6c614b4c565b602002602001015160ff1681518110613b8757613b87614b4c565b602001015160f81c60f81b828281518110613ba457613ba4614b4c565b60200101906001600160f81b031916908160001a905350600101613b39565b6000613bd2600284841861574f565b611adf90848416614f5c565b6001600160a01b038416613c0a576000828152601160205260409020613c079061399d83613965565b50505b6001600160a01b038316613c36576000828152601160205260409020613c339061395983613965565b50505b6001600160a01b038085166000908152600f60208181526040808420878552825280842054888616855292825280842087855290915290912054610b8f9291821691168484613220565b600080613c9e84613c9043613628565b613c9986613cb6565b613d1f565b6001600160e01b0391821693501690505b9250929050565b60006001600160e01b0382111561368d5760405162461bcd60e51b815260206004820152602760248201527f53616665436173743a2076616c756520646f65736e27742066697420696e20326044820152663234206269747360c81b6064820152608401612027565b825460009081908015613e68576000613d3d87612705600185614f49565b60408051808201909152905463ffffffff8082168084526401000000009092046001600160e01b031660208401529192509087161015613dbf5760405162461bcd60e51b815260206004820152601760248201527f436865636b706f696e743a20696e76616c6964206b65790000000000000000006044820152606401612027565b805163ffffffff808816911603613e085784613de088612705600186614f49565b80546001600160e01b03929092166401000000000263ffffffff909216919091179055613e58565b6040805180820190915263ffffffff80881682526001600160e01b0380881660208085019182528b54600181018d5560008d81529190912094519151909216640100000000029216919091179101555b6020015192508391506139959050565b50506040805180820190915263ffffffff80851682526001600160e01b0380851660208085019182528854600181018a5560008a815291822095519251909316640100000000029190931617920191909155905081613995565b6001600160e01b03198116811461203957600080fd5b600060208284031215613eea57600080fd5b8135611adf81613ec2565b60005b83811015613f10578181015183820152602001613ef8565b50506000910152565b60008151808452613f31816020860160208601613ef5565b601f01601f19169290920160200192915050565b602081526000611adf6020830184613f19565b600060208284031215613f6a57600080fd5b5035919050565b6001600160a01b038116811461203957600080fd5b8035613f9181613f71565b919050565b60008060408385031215613fa957600080fd5b8235613fb481613f71565b946020939093013593505050565b600080600060608486031215613fd757600080fd5b8335613fe281613f71565b92506020840135613ff281613f71565b929592945050506040919091013590565b60006020828403121561401557600080fd5b8135611adf81613f71565b6000806020838503121561403357600080fd5b82356001600160401b038082111561404a57600080fd5b818501915085601f83011261405e57600080fd5b81358181111561406d57600080fd5b8660208260061b850101111561408257600080fd5b60209290920196919550909350505050565b60006101e082840312156140a757600080fd5b50919050565b6000602082840312156140bf57600080fd5b81356001600160401b038111156140d557600080fd5b611d0484828501614094565b60008083601f8401126140f357600080fd5b5081356001600160401b0381111561410a57600080fd5b6020830191508360208260051b8501011115613caf57600080fd5b6000806020838503121561413857600080fd5b82356001600160401b0381111561414e57600080fd5b61415a858286016140e1565b90969095509350505050565b60008060006040848603121561417b57600080fd5b83356001600160401b0381111561419157600080fd5b61419d868287016140e1565b90945092505060208401356141b181613f71565b809150509250925092565b600081518084526020808501945080840160005b838110156141ec578151875295820195908201906001016141d0565b509495945050505050565b602081526000611adf60208301846141bc565b6000806020838503121561421d57600080fd5b82356001600160401b038082111561423457600080fd5b818501915085601f83011261424857600080fd5b81358181111561425757600080fd5b86602082850101111561408257600080fd5b801515811461203957600080fd5b8035613f9181614269565b6000806040838503121561429557600080fd5b82356142a081613f71565b915060208301356142b081614269565b809150509250929050565b838152600060206060818401526142d56060840186613f19565b83810360408581019190915285518083528387019284019060005b8181101561431e57845180516001600160a01b031684528601518684015293850193918301916001016142f0565b50909998505050505050505050565b6000806040838503121561434057600080fd5b50508035926020909101359150565b634e487b7160e01b600052604160045260246000fd5b604051608081016001600160401b03811182821017156143875761438761434f565b60405290565b60405161014081016001600160401b03811182821017156143875761438761434f565b604080519081016001600160401b03811182821017156143875761438761434f565b60405161012081016001600160401b03811182821017156143875761438761434f565b60405161016081016001600160401b03811182821017156143875761438761434f565b604051601f8201601f191681016001600160401b03811182821017156144405761444061434f565b604052919050565b60006001600160401b038211156144615761446161434f565b50601f01601f191660200190565b600061448261447d84614448565b614418565b905082815283838301111561449657600080fd5b828260208301376000602084830101529392505050565b600080600080608085870312156144c357600080fd5b84356144ce81613f71565b935060208501356144de81613f71565b92506040850135915060608501356001600160401b0381111561450057600080fd5b8501601f8101871361451157600080fd5b6145208782356020840161446f565b91505092959194509250565b600082601f83011261453d57600080fd5b611adf8383356020850161446f565b60006001600160401b038211156145655761456561434f565b5060051b60200190565b803569ffffffffffffffffffff81168114613f9157600080fd5b803565ffffffffffff81168114613f9157600080fd5b803564ffffffffff81168114613f9157600080fd5b803561ffff81168114613f9157600080fd5b600060808083850312156145d957600080fd5b6145e1614365565b915082356001600160401b038111156145f957600080fd5b8301601f8101851361460a57600080fd5b8035602061461a61447d8361454c565b828152610140928302840182019282820191908985111561463a57600080fd5b948301945b848610156147095780868b0312156146575760008081fd5b61465f61438d565b6146688761456f565b8152614675858801614589565b85820152604061468681890161459f565b9082015260606146978882016145b4565b908201526146a68789016145b4565b8882015260a06146b7818901613f86565b9082015260c0878101359082015260e06146d2818901614277565b908201526101006146e4888201614277565b908201526101206146f6888201614277565b908201528352948501949183019161463f565b5086525085810135908501525050506040808301359082015261472e60608301613f86565b606082015292915050565b60006060828403121561474b57600080fd5b604051606081018181106001600160401b038211171561476d5761476d61434f565b604052905080823561477e81614269565b8152602083013561478e81614269565b602082015260408301356147a181614269565b6040919091015292915050565b60008060008060008060008060008060006101a08c8e0312156147d057600080fd5b8b359a506147e060208d01613f86565b99506001600160401b038060408e013511156147fb57600080fd5b61480b8e60408f01358f0161452c565b99508060608e0135111561481e57600080fd5b61482e8e60608f01358f0161452c565b985061483c60808e01613f86565b97508060a08e0135111561484f57600080fd5b61485f8e60a08f01358f0161452c565b965061486d60c08e01613f86565b95508060e08e0135111561488057600080fd5b6148908e60e08f01358f0161452c565b9450806101008e013511156148a457600080fd5b506148b68d6101008e01358e016145c6565b92506148c56101208d01613f86565b91506148d58d6101408e01614739565b90509295989b509295989b9093969950565b600060208083850312156148fa57600080fd5b82356001600160401b0381111561491057600080fd5b8301601f8101851361492157600080fd5b803561492f61447d8261454c565b81815260069190911b8201830190838101908783111561494e57600080fd5b928401925b8284101561499a576040848903121561496c5760008081fd5b6149746143b0565b843561497f81613f71565b81528486013586820152825260409093019290840190614953565b979650505050505050565b6000806000606084860312156149ba57600080fd5b83356149c581613f71565b95602085013595506040909401359392505050565b6000602082840312156149ec57600080fd5b81356001600160401b03811115614a0257600080fd5b82016101a08185031215611adf57600080fd5b600060208284031215614a2757600080fd5b81356001600160401b03811115614a3d57600080fd5b82016102008185031215611adf57600080fd5b60008060408385031215614a6357600080fd5b8235614a6e81613f71565b915060208301356142b081613f71565b60008060008060408587031215614a9457600080fd5b84356001600160401b0380821115614aab57600080fd5b818701915087601f830112614abf57600080fd5b813581811115614ace57600080fd5b88602061014083028501011115614ae457600080fd5b602092830196509450908601359080821115614aff57600080fd5b50614b0c878288016140e1565b95989497509550505050565b600181811c90821680614b2c57607f821691505b6020821081036140a757634e487b7160e01b600052602260045260246000fd5b634e487b7160e01b600052603260045260246000fd5b600060408284031215614b7457600080fd5b604051604081018181106001600160401b0382111715614b9657614b9661434f565b604052823581526020928301359281019290925250919050565b8051613f9181614269565b600060208284031215614bcd57600080fd5b8151611adf81614269565b6000808335601e19843603018112614bef57600080fd5b8301803591506001600160401b03821115614c0957600080fd5b602001915036819003821315613caf57600080fd5b60008085851115614c2e57600080fd5b83861115614c3b57600080fd5b5050820193919092039150565b6001600160e01b03198135818116916004851015614c705780818660040360031b1b83161692505b505092915050565b600080600060608486031215614c8d57600080fd5b83359250602080850135614ca081613ec2565b925060408501356001600160401b03811115614cbb57600080fd5b8501601f81018713614ccc57600080fd5b8035614cda61447d8261454c565b81815260059190911b82018301908381019089831115614cf957600080fd5b928401925b82841015614d1757833582529284019290840190614cfe565b80955050505050509250925092565b60008235603e19833603018112614d3c57600080fd5b9190910192915050565b6000808335601e19843603018112614d5d57600080fd5b8301803591506001600160401b03821115614d7757600080fd5b6020019150600581901b3603821315613caf57600080fd5b8051613f9181613f71565b600060208284031215614dac57600080fd5b8151611adf81613f71565b84815260606020808301829052908201849052600090859060808401835b87811015614dfc5761ffff614de9856145b4565b1682529282019290820190600101614dd5565b50809350505050821515604083015295945050505050565b600082601f830112614e2557600080fd5b81516020614e3561447d8361454c565b82815260059290921b84018101918181019086841115614e5457600080fd5b8286015b84811015614e6f5780518352918301918301614e58565b509695505050505050565b60008060408385031215614e8d57600080fd5b82516001600160401b03811115614ea357600080fd5b614eaf85828601614e14565b925050602083015190509250929050565b600060208284031215614ed257600080fd5b611adf826145b4565b600060208284031215614eed57600080fd5b5051919050565b60208152816020820152818360408301376000818301604090810191909152601f909201601f19160101919050565b8183823760009101908152919050565b634e487b7160e01b600052601160045260246000fd5b8181038181111561091657610916614f33565b8082018082111561091657610916614f33565b60006101208284031215614f8257600080fd5b614f8a6143d2565b825181526020830151602082015260408301516040820152606083015160608201526080830151608082015260a083015160a082015260c083015160c0820152614fd660e08401614d8f565b60e0820152610100928301519281019290925250919050565b60006020828403121561500157600080fd5b81516001600160401b0381111561501757600080fd5b611d0484828501614e14565b602080825282518282018190526000919060409081850190868401855b828110156150ef578151805169ffffffffffffffffffff1685528681015165ffffffffffff16878601528581015164ffffffffff168686015260608082015161ffff908116918701919091526080808301519091169086015260a0808201516001600160a01b03169086015260c0808201519086015260e08082015115159086015261010080820151151590860152610120908101511515908501526101409093019290850190600101615040565b5091979650505050505050565b60006020828403121561510e57600080fd5b81516001600160401b0381111561512457600080fd5b8201601f8101841361513557600080fd5b805161514361447d82614448565b81815285602083850101111561515857600080fd5b61361f826020830160208601613ef5565b6020808252810182905260006001600160fb1b0383111561518957600080fd5b8260051b80856040850137919091016040019392505050565b6151bf826151af8361456f565b69ffffffffffffffffffff169052565b6151cb60208201614589565b65ffffffffffff1660208301526151e46040820161459f565b64ffffffffff1660408301526151fc606082016145b4565b61ffff166060830152615211608082016145b4565b61ffff16608083015261522660a08201613f86565b6001600160a01b031660a083015260c0818101359083015261524a60e08201614277565b151560e083015261010061525f828201614277565b151590830152610120615273828201614277565b80151584830152610b8f565b6020808252810182905260008360408301825b858110156152b8576152a482846151a2565b610140928301929190910190600101615292565b5095945050505050565b61016081016152d182856151a2565b6001600160a01b03929092166101409190910152919050565b6001600160a01b0383168152604060208201819052600090611d04908301846141bc565b634e487b7160e01b600052601260045260246000fd5b60008351615336818460208801613ef5565b83519083019061534a818360208801613ef5565b01949350505050565b600181815b8085111561538e57816000190482111561537457615374614f33565b8085161561538157918102915b93841c9390800290615358565b509250929050565b6000826153a557506001610916565b816153b257506000610916565b81600181146153c857600281146153d2576153ee565b6001915050610916565b60ff8411156153e3576153e3614f33565b50506001821b610916565b5060208310610133831016604e8410600b8410161715615411575081810a610916565b61541b8383615353565b806000190482111561542f5761542f614f33565b029392505050565b6000611adf8383615396565b600080600080600080600060e0888a03121561545e57600080fd5b873596506020808901359650604089013561547881613ec2565b9550606089013561548881614269565b9450608089013561549881614269565b935060a08901356154a881614269565b925060c08901356001600160401b038111156154c357600080fd5b8901601f81018b136154d457600080fd5b80356154e261447d8261454c565b81815260059190911b8201830190838101908d83111561550157600080fd5b928401925b8284101561552657615517846145b4565b82529284019290840190615506565b809550505050505092959891949750929550565b6000610160828403121561554d57600080fd5b6155556143f5565b825181526020830151602082015260408301516040820152606083015160608201526080830151608082015260a083015160a082015260c083015160c08201526155a160e08401614d8f565b60e082015261010083810151908201526101206155bf818501614bb0565b908201526101406155d1848201614bb0565b908201529392505050565b6001600160a01b038581168252841660208201526040810183905260806060820181905260009061560f90830184613f19565b9695505050505050565b60006020828403121561562b57600080fd5b8151611adf81613ec2565b601f821115610a5c57600081815260208120601f850160051c8101602086101561565d5750805b601f850160051c820191505b8181101561221757828155600101615669565b81516001600160401b038111156156955761569561434f565b6156a9816156a38454614b18565b84615636565b602080601f8311600181146156de57600084156156c65750858301515b600019600386901b1c1916600185901b178555612217565b600085815260208120601f198616915b8281101561570d578886015182559484019460019091019084016156ee565b508582101561572b5787850151600019600388901b60f8161c191681555b5050505050600190811b01905550565b60008261574a5761574a61530e565b500690565b60008261575e5761575e61530e565b500490565b6000606082018583526020606081850152818651808452608086019150828801935060005b818110156157a857845161ffff1683529383019391830191600101615788565b50508093505050508215156040830152949350505050565b6000806000606084860312156157d557600080fd5b835192506020840151915060408401519050925092509256fe31323334353637383941424344454647484a4b4c4d4e505152535455565758595a6162636465666768696a6b6d6e6f707172737475767778797aa26469706673582212202b0edf9b1a02287e5fbf4ea85a31ebd8fea00db3978efe61d2666f10ef14125464736f6c63430008110033",
    "linkReferences": {}
  },
  "methodIdentifiers": {
    "adjustTiers((uint80,uint48,uint40,uint16,uint16,address,bytes32,bool,bool,bool)[],uint256[])": "f5a38e63",
    "approve(address,uint256)": "095ea7b3",
    "balanceOf(address)": "70a08231",
    "codeOrigin()": "1d153ca4",
    "contractURI()": "e8a3d485",
    "creditsOf(address)": "245a45b5",
    "didPay((address,uint256,uint256,(address,uint256,uint256,uint256),(address,uint256,uint256,uint256),uint256,address,bool,string,bytes))": "da9ee8b7",
    "didRedeem((address,uint256,uint256,uint256,(address,uint256,uint256,uint256),(address,uint256,uint256,uint256),address,string,bytes))": "2b13c58f",
    "directory()": "c41c2f24",
    "firstOwnerOf(uint256)": "54c6d1f5",
    "fundingCycleStore()": "557e7155",
    "getApproved(uint256)": "081812fc",
    "getPastTierTotalVotes(uint256,uint256)": "d31cc52c",
    "getPastTierVotes(address,uint256,uint256)": "d40e7146",
    "getTierDelegate(address,uint256)": "82732b6d",
    "getTierTotalVotes(uint256)": "94c5c5ca",
    "getTierVotes(address,uint256)": "ca323efe",
    "initialize(uint256,address,string,string,address,string,address,string,((uint80,uint48,uint40,uint16,uint16,address,bytes32,bool,bool,bool)[],uint256,uint256,address),address,(bool,bool,bool))": "bb52b6e4",
    "isApprovedForAll(address,address)": "e985e9c5",
    "mintFor((uint16[],address)[])": "36c1a93b",
    "mintFor(uint16[],address)": "6ac6d941",
    "mintReservesFor((uint256,uint256)[])": "2a596e53",
    "mintReservesFor(uint256,uint256)": "aa4fb15b",
    "name()": "06fdde03",
    "owner()": "8da5cb5b",
    "ownerOf(uint256)": "6352211e",
    "payParams((address,address,(address,uint256,uint256,uint256),uint256,uint256,address,uint256,uint256,string,bytes))": "d46cf171",
    "prices()": "d3419bf3",
    "pricingCurrency()": "64640c1e",
    "pricingDecimals()": "4ecba625",
    "projectId()": "3fafa127",
    "redeemParams((address,address,uint256,uint256,uint256,uint256,uint256,(address,uint256,uint256,uint256),bool,uint256,string,bytes))": "a51cfd18",
    "renounceOwnership()": "715018a6",
    "safeTransferFrom(address,address,uint256)": "42842e0e",
    "safeTransferFrom(address,address,uint256,bytes)": "b88d4fde",
    "setApprovalForAll(address,bool)": "a22cb465",
    "setBaseUri(string)": "a0bcfc7f",
    "setContractUri(string)": "ccb4807b",
    "setDefaultReservedTokenBeneficiary(address)": "df487e26",
    "setTierDelegate(address,uint256)": "ab951e39",
    "setTierDelegates((address,uint256)[])": "c74b13d9",
    "setTokenUriResolver(address)": "2407497e",
    "store()": "975057e7",
    "supportsInterface(bytes4)": "01ffc9a7",
    "symbol()": "95d89b41",
    "tokenURI(uint256)": "c87b56dd",
    "transferFrom(address,address,uint256)": "23b872dd",
    "transferOwnership(address)": "f2fde38b"
  },
  "id": 22
}