{
  "abi": [
    {
      "inputs": [
        {
          "internalType": "contract JB721GlobalGovernance",
          "name": "_globalGovernance",
          "type": "address"
        },
        {
          "internalType": "contract JB721TieredGovernance",
          "name": "_tieredGovernance",
          "type": "address"
        },
        {
          "internalType": "contract JBTiered721Delegate",
          "name": "_noGovernance",
          "type": "address"
        }
      ],
      "stateMutability": "nonpayable",
      "type": "constructor"
    },
    {
      "inputs": [],
      "name": "INVALID_GOVERNANCE_TYPE",
      "type": "error"
    },
    {
      "anonymous": false,
      "inputs": [
        {
          "indexed": true,
          "internalType": "uint256",
          "name": "projectId",
          "type": "uint256"
        },
        {
          "indexed": false,
          "internalType": "contract IJBTiered721Delegate",
          "name": "newDelegate",
          "type": "address"
        },
        {
          "indexed": false,
          "internalType": "enum JB721GovernanceType",
          "name": "governanceType",
          "type": "uint8"
        }
      ],
      "name": "DelegateDeployed",
      "type": "event"
    },
    {
      "inputs": [
        {
          "internalType": "uint256",
          "name": "_projectId",
          "type": "uint256"
        },
        {
          "components": [
            {
              "internalType": "contract IJBDirectory",
              "name": "directory",
              "type": "address"
            },
            {
              "internalType": "string",
              "name": "name",
              "type": "string"
            },
            {
              "internalType": "string",
              "name": "symbol",
              "type": "string"
            },
            {
              "internalType": "contract IJBFundingCycleStore",
              "name": "fundingCycleStore",
              "type": "address"
            },
            {
              "internalType": "string",
              "name": "baseUri",
              "type": "string"
            },
            {
              "internalType": "contract IJBTokenUriResolver",
              "name": "tokenUriResolver",
              "type": "address"
            },
            {
              "internalType": "string",
              "name": "contractUri",
              "type": "string"
            },
            {
              "internalType": "address",
              "name": "owner",
              "type": "address"
            },
            {
              "components": [
                {
                  "components": [
                    {
                      "internalType": "uint80",
                      "name": "contributionFloor",
                      "type": "uint80"
                    },
                    {
                      "internalType": "uint48",
                      "name": "lockedUntil",
                      "type": "uint48"
                    },
                    {
                      "internalType": "uint40",
                      "name": "initialQuantity",
                      "type": "uint40"
                    },
                    {
                      "internalType": "uint16",
                      "name": "votingUnits",
                      "type": "uint16"
                    },
                    {
                      "internalType": "uint16",
                      "name": "reservedRate",
                      "type": "uint16"
                    },
                    {
                      "internalType": "address",
                      "name": "reservedTokenBeneficiary",
                      "type": "address"
                    },
                    {
                      "internalType": "bytes32",
                      "name": "encodedIPFSUri",
                      "type": "bytes32"
                    },
                    {
                      "internalType": "bool",
                      "name": "allowManualMint",
                      "type": "bool"
                    },
                    {
                      "internalType": "bool",
                      "name": "shouldUseBeneficiaryAsDefault",
                      "type": "bool"
                    },
                    {
                      "internalType": "bool",
                      "name": "transfersPausable",
                      "type": "bool"
                    }
                  ],
                  "internalType": "struct JB721TierParams[]",
                  "name": "tiers",
                  "type": "tuple[]"
                },
                {
                  "internalType": "uint256",
                  "name": "currency",
                  "type": "uint256"
                },
                {
                  "internalType": "uint256",
                  "name": "decimals",
                  "type": "uint256"
                },
                {
                  "internalType": "contract IJBPrices",
                  "name": "prices",
                  "type": "address"
                }
              ],
              "internalType": "struct JB721PricingParams",
              "name": "pricing",
              "type": "tuple"
            },
            {
              "internalType": "address",
              "name": "reservedTokenBeneficiary",
              "type": "address"
            },
            {
              "internalType": "contract IJBTiered721DelegateStore",
              "name": "store",
              "type": "address"
            },
            {
              "components": [
                {
                  "internalType": "bool",
                  "name": "lockReservedTokenChanges",
                  "type": "bool"
                },
                {
                  "internalType": "bool",
                  "name": "lockVotingUnitChanges",
                  "type": "bool"
                },
                {
                  "internalType": "bool",
                  "name": "lockManualMintingChanges",
                  "type": "bool"
                }
              ],
              "internalType": "struct JBTiered721Flags",
              "name": "flags",
              "type": "tuple"
            },
            {
              "internalType": "enum JB721GovernanceType",
              "name": "governanceType",
              "type": "uint8"
            }
          ],
          "internalType": "struct JBDeployTiered721DelegateData",
          "name": "_deployTiered721DelegateData",
          "type": "tuple"
        }
      ],
      "name": "deployDelegateFor",
      "outputs": [
        {
          "internalType": "contract IJBTiered721Delegate",
          "name": "newDelegate",
          "type": "address"
        }
      ],
      "stateMutability": "nonpayable",
      "type": "function"
    },
    {
      "inputs": [],
      "name": "globalGovernance",
      "outputs": [
        {
          "internalType": "contract JB721GlobalGovernance",
          "name": "",
          "type": "address"
        }
      ],
      "stateMutability": "view",
      "type": "function"
    },
    {
      "inputs": [],
      "name": "noGovernance",
      "outputs": [
        {
          "internalType": "contract JBTiered721Delegate",
          "name": "",
          "type": "address"
        }
      ],
      "stateMutability": "view",
      "type": "function"
    },
    {
      "inputs": [],
      "name": "tieredGovernance",
      "outputs": [
        {
          "internalType": "contract JB721TieredGovernance",
          "name": "",
          "type": "address"
        }
      ],
      "stateMutability": "view",
      "type": "function"
    }
  ],
  "bytecode": {
    "object": "0x60e060405234801561001057600080fd5b50604051610c76380380610c7683398101604081905261002f91610064565b6001600160a01b0392831660805290821660a0521660c0526100b1565b6001600160a01b038116811461006157600080fd5b50565b60008060006060848603121561007957600080fd5b83516100848161004c565b60208501519093506100958161004c565b60408501519092506100a68161004c565b809150509250925092565b60805160a05160c051610b846100f2600039600081816085015261011801526000818160ac015261015d01526000818160d301526101a20152610b846000f3fe608060405234801561001057600080fd5b506004361061004c5760003560e01c806322a74c0a1461005157806338b6bcf4146100805780637dd6a451146100a7578063d5fe3d2b146100ce575b600080fd5b61006461005f366004610735565b6100f5565b6040516001600160a01b03909116815260200160405180910390f35b6100647f000000000000000000000000000000000000000000000000000000000000000081565b6100647f000000000000000000000000000000000000000000000000000000000000000081565b6100647f000000000000000000000000000000000000000000000000000000000000000081565b600080808361018001516002811115610110576101106108d5565b0361013c57507f00000000000000000000000000000000000000000000000000000000000000006101df565b60018361018001516002811115610155576101556108d5565b0361018157507f00000000000000000000000000000000000000000000000000000000000000006101df565b6002836101800151600281111561019a5761019a6108d5565b036101c657507f00000000000000000000000000000000000000000000000000000000000000006101df565b604051637c1d93dd60e01b815260040160405180910390fd5b6101e881610342565b9150816001600160a01b031663bb52b6e485856000015186602001518760400151886060015189608001518a60a001518b60c001518c61010001518d61014001518e61016001516040518c63ffffffff1660e01b81526004016102559b9a99989796959493929190610a39565b600060405180830381600087803b15801561026f57600080fd5b505af1158015610283573d6000803e3d6000fd5b5050505060e08301516001600160a01b0316156102fc5760e083015160405163f2fde38b60e01b81526001600160a01b0391821660048201529083169063f2fde38b90602401600060405180830381600087803b1580156102e357600080fd5b505af11580156102f7573d6000803e3d6000fd5b505050505b837fa1dcc57d57a99af26e68a9d0181c52742fdf009c0bbe62ed6a635c312b2ec2f583856101800151604051610333929190610b13565b60405180910390a25092915050565b6000813b604051600160e01b82026c31000000300040b006c11cf9ff60991b8117905080825250816000600d8301863c600d8201816000f0949350505050565b634e487b7160e01b600052604160045260246000fd5b6040516080810167ffffffffffffffff811182821017156103bb576103bb610382565b60405290565b604051610140810167ffffffffffffffff811182821017156103bb576103bb610382565b6040516101a0810167ffffffffffffffff811182821017156103bb576103bb610382565b604051601f8201601f1916810167ffffffffffffffff8111828210171561043257610432610382565b604052919050565b80356001600160a01b038116811461045157600080fd5b919050565b600082601f83011261046757600080fd5b813567ffffffffffffffff81111561048157610481610382565b610494601f8201601f1916602001610409565b8181528460208386010111156104a957600080fd5b816020850160208301376000918101602001919091529392505050565b803569ffffffffffffffffffff8116811461045157600080fd5b803565ffffffffffff8116811461045157600080fd5b803564ffffffffff8116811461045157600080fd5b803561ffff8116811461045157600080fd5b8035801515811461045157600080fd5b6000608080838503121561054057600080fd5b610548610398565b9150823567ffffffffffffffff8082111561056257600080fd5b818501915085601f83011261057657600080fd5b813560208282111561058a5761058a610382565b610598818360051b01610409565b82815281810193506101409283028501820192898411156105b857600080fd5b948201945b838610156106875780868b0312156105d55760008081fd5b6105dd6103c1565b6105e6876104c6565b81526105f38488016104e0565b8482015260406106048189016104f6565b90820152606061061588820161050b565b9082015261062487890161050b565b8882015260a061063581890161043a565b9082015260c0878101359082015260e061065081890161051d565b9082015261010061066288820161051d565b9082015261012061067488820161051d565b90820152855294850194938201936105bd565b508652868101359086015250505050604080830135908201526106ac6060830161043a565b606082015292915050565b6000606082840312156106c957600080fd5b6040516060810181811067ffffffffffffffff821117156106ec576106ec610382565b6040529050806106fb8361051d565b81526107096020840161051d565b602082015261071a6040840161051d565b60408201525092915050565b80356003811061045157600080fd5b6000806040838503121561074857600080fd5b82359150602083013567ffffffffffffffff8082111561076757600080fd5b908401906101e0828703121561077c57600080fd5b6107846103e5565b61078d8361043a565b81526020830135828111156107a157600080fd5b6107ad88828601610456565b6020830152506040830135828111156107c557600080fd5b6107d188828601610456565b6040830152506107e36060840161043a565b60608201526080830135828111156107fa57600080fd5b61080688828601610456565b60808301525061081860a0840161043a565b60a082015260c08301358281111561082f57600080fd5b61083b88828601610456565b60c08301525061084d60e0840161043a565b60e0820152610100808401358381111561086657600080fd5b6108728982870161052d565b828401525050610120915061088882840161043a565b82820152610140915061089c82840161043a565b8282015261016091506108b1878385016106b7565b828201526108c26101c08401610726565b6101808201528093505050509250929050565b634e487b7160e01b600052602160045260246000fd5b6000815180845260005b81811015610911576020818501810151868301820152016108f5565b506000602082860101526020601f19601f83011685010191505092915050565b80516080808452815184820181905260009260a0916020918201918388019190865b828110156109fe578451805169ffffffffffffffffffff1685528281015165ffffffffffff168386015260408082015164ffffffffff169086015260608082015161ffff90811691870191909152888201511688860152868101516001600160a01b03168786015260c0808201519086015260e08082015115159086015261010080820151151590860152610120908101511515908501529381019361014090930192600101610953565b5080880151818a015250506040860151604088015260608601519350610a2f60608801856001600160a01b03169052565b9695505050505050565b8b81526001600160a01b038b811660208301526101a060408301819052600091610a658483018e6108eb565b91508382036060850152610a79828d6108eb565b9150808b16608085015283820360a0850152610a95828b6108eb565b90891660c085015283810360e08501529050610ab181886108eb565b9050828103610100840152610ac68187610931565b915050610adf6101208301856001600160a01b03169052565b8251151561014083015260208301511515610160830152604083015115156101808301529c9b505050505050505050505050565b6001600160a01b03831681526040810160038310610b4157634e487b7160e01b600052602160045260246000fd5b826020830152939250505056fea26469706673582212205ec8ee1d7184fcfb33532563b917ec2772cf2ee1ad79489f8aac90768a934d8764736f6c63430008110033",
    "linkReferences": {}
  },
  "methodIdentifiers": {
    "deployDelegateFor(uint256,(address,string,string,address,string,address,string,address,((uint80,uint48,uint40,uint16,uint16,address,bytes32,bool,bool,bool)[],uint256,uint256,address),address,address,(bool,bool,bool),uint8))": "22a74c0a",
    "globalGovernance()": "d5fe3d2b",
    "noGovernance()": "38b6bcf4",
    "tieredGovernance()": "7dd6a451"
  },
  "id": 24
}