{
  "abi": [
    {
      "inputs": [],
      "name": "ALEADY_MINTED",
      "type": "error"
    },
    {
      "inputs": [],
      "name": "APPROVAL_TO_CURRENT_OWNER",
      "type": "error"
    },
    {
      "inputs": [],
      "name": "APPROVE_TO_CALLER",
      "type": "error"
    },
    {
      "inputs": [],
      "name": "BLOCK_NOT_YET_MINED",
      "type": "error"
    },
    {
      "inputs": [],
      "name": "CALLER_NOT_OWNER_OR_APPROVED",
      "type": "error"
    },
    {
      "inputs": [],
      "name": "INCORRECT_OWNER",
      "type": "error"
    },
    {
      "inputs": [],
      "name": "INVALID",
      "type": "error"
    },
    {
      "inputs": [],
      "name": "INVALID_PAYMENT_EVENT",
      "type": "error"
    },
    {
      "inputs": [],
      "name": "INVALID_REDEMPTION_EVENT",
      "type": "error"
    },
    {
      "inputs": [],
      "name": "INVALID_REDEMPTION_METADATA",
      "type": "error"
    },
    {
      "inputs": [],
      "name": "INVALID_TOKEN_ID",
      "type": "error"
    },
    {
      "inputs": [],
      "name": "MINT_TO_ZERO",
      "type": "error"
    },
    {
      "inputs": [],
      "name": "NOT_AVAILABLE",
      "type": "error"
    },
    {
      "inputs": [],
      "name": "OVERSPENDING",
      "type": "error"
    },
    {
      "inputs": [
        {
          "internalType": "uint256",
          "name": "prod1",
          "type": "uint256"
        },
        {
          "internalType": "uint256",
          "name": "denominator",
          "type": "uint256"
        }
      ],
      "name": "PRBMath__MulDivOverflow",
      "type": "error"
    },
    {
      "inputs": [],
      "name": "PRICING_RESOLVER_CHANGES_PAUSED",
      "type": "error"
    },
    {
      "inputs": [],
      "name": "RESERVED_TOKEN_MINTING_PAUSED",
      "type": "error"
    },
    {
      "inputs": [],
      "name": "SIGNATURE_EXPIRED",
      "type": "error"
    },
    {
      "inputs": [],
      "name": "TRANSFERS_PAUSED",
      "type": "error"
    },
    {
      "inputs": [],
      "name": "TRANSFER_TO_NON_IMPLEMENTER",
      "type": "error"
    },
    {
      "inputs": [],
      "name": "TRANSFER_TO_ZERO_ADDRESS",
      "type": "error"
    },
    {
      "inputs": [],
      "name": "UNAUTHORIZED",
      "type": "error"
    },
    {
      "inputs": [],
      "name": "UNEXPECTED_TOKEN_REDEEMED",
      "type": "error"
    },
    {
      "anonymous": false,
      "inputs": [
        {
          "indexed": true,
          "internalType": "uint256",
          "name": "tierId",
          "type": "uint256"
        },
        {
          "components": [
            {
              "internalType": "uint80",
              "name": "contributionFloor",
              "type": "uint80"
            },
            {
              "internalType": "uint48",
              "name": "lockedUntil",
              "type": "uint48"
            },
            {
              "internalType": "uint40",
              "name": "initialQuantity",
              "type": "uint40"
            },
            {
              "internalType": "uint16",
              "name": "votingUnits",
              "type": "uint16"
            },
            {
              "internalType": "uint16",
              "name": "reservedRate",
              "type": "uint16"
            },
            {
              "internalType": "address",
              "name": "reservedTokenBeneficiary",
              "type": "address"
            },
            {
              "internalType": "bytes32",
              "name": "encodedIPFSUri",
              "type": "bytes32"
            },
            {
              "internalType": "bool",
              "name": "allowManualMint",
              "type": "bool"
            },
            {
              "internalType": "bool",
              "name": "shouldUseBeneficiaryAsDefault",
              "type": "bool"
            },
            {
              "internalType": "bool",
              "name": "transfersPausable",
              "type": "bool"
            }
          ],
          "indexed": false,
          "internalType": "struct JB721TierParams",
          "name": "data",
          "type": "tuple"
        },
        {
          "indexed": false,
          "internalType": "address",
          "name": "caller",
          "type": "address"
        }
      ],
      "name": "AddTier",
      "type": "event"
    },
    {
      "anonymous": false,
      "inputs": [
        {
          "indexed": true,
          "internalType": "address",
          "name": "owner",
          "type": "address"
        },
        {
          "indexed": true,
          "internalType": "address",
          "name": "approved",
          "type": "address"
        },
        {
          "indexed": true,
          "internalType": "uint256",
          "name": "tokenId",
          "type": "uint256"
        }
      ],
      "name": "Approval",
      "type": "event"
    },
    {
      "anonymous": false,
      "inputs": [
        {
          "indexed": true,
          "internalType": "address",
          "name": "owner",
          "type": "address"
        },
        {
          "indexed": true,
          "internalType": "address",
          "name": "operator",
          "type": "address"
        },
        {
          "indexed": false,
          "internalType": "bool",
          "name": "approved",
          "type": "bool"
        }
      ],
      "name": "ApprovalForAll",
      "type": "event"
    },
    {
      "anonymous": false,
      "inputs": [
        {
          "indexed": true,
          "internalType": "address",
          "name": "delegator",
          "type": "address"
        },
        {
          "indexed": true,
          "internalType": "address",
          "name": "fromDelegate",
          "type": "address"
        },
        {
          "indexed": true,
          "internalType": "address",
          "name": "toDelegate",
          "type": "address"
        }
      ],
      "name": "DelegateChanged",
      "type": "event"
    },
    {
      "anonymous": false,
      "inputs": [
        {
          "indexed": true,
          "internalType": "address",
          "name": "delegate",
          "type": "address"
        },
        {
          "indexed": false,
          "internalType": "uint256",
          "name": "previousBalance",
          "type": "uint256"
        },
        {
          "indexed": false,
          "internalType": "uint256",
          "name": "newBalance",
          "type": "uint256"
        }
      ],
      "name": "DelegateVotesChanged",
      "type": "event"
    },
    {
      "anonymous": false,
      "inputs": [
        {
          "indexed": true,
          "internalType": "uint256",
          "name": "tokenId",
          "type": "uint256"
        },
        {
          "indexed": true,
          "internalType": "uint256",
          "name": "tierId",
          "type": "uint256"
        },
        {
          "indexed": true,
          "internalType": "address",
          "name": "beneficiary",
          "type": "address"
        },
        {
          "indexed": false,
          "internalType": "uint256",
          "name": "totalAmountContributed",
          "type": "uint256"
        },
        {
          "indexed": false,
          "internalType": "address",
          "name": "caller",
          "type": "address"
        }
      ],
      "name": "Mint",
      "type": "event"
    },
    {
      "anonymous": false,
      "inputs": [
        {
          "indexed": true,
          "internalType": "uint256",
          "name": "tokenId",
          "type": "uint256"
        },
        {
          "indexed": true,
          "internalType": "uint256",
          "name": "tierId",
          "type": "uint256"
        },
        {
          "indexed": true,
          "internalType": "address",
          "name": "beneficiary",
          "type": "address"
        },
        {
          "indexed": false,
          "internalType": "address",
          "name": "caller",
          "type": "address"
        }
      ],
      "name": "MintReservedToken",
      "type": "event"
    },
    {
      "anonymous": false,
      "inputs": [
        {
          "indexed": true,
          "internalType": "address",
          "name": "previousOwner",
          "type": "address"
        },
        {
          "indexed": true,
          "internalType": "address",
          "name": "newOwner",
          "type": "address"
        }
      ],
      "name": "OwnershipTransferred",
      "type": "event"
    },
    {
      "anonymous": false,
      "inputs": [
        {
          "indexed": true,
          "internalType": "uint256",
          "name": "tierId",
          "type": "uint256"
        },
        {
          "indexed": false,
          "internalType": "address",
          "name": "caller",
          "type": "address"
        }
      ],
      "name": "RemoveTier",
      "type": "event"
    },
    {
      "anonymous": false,
      "inputs": [
        {
          "indexed": true,
          "internalType": "string",
          "name": "baseUri",
          "type": "string"
        },
        {
          "indexed": false,
          "internalType": "address",
          "name": "caller",
          "type": "address"
        }
      ],
      "name": "SetBaseUri",
      "type": "event"
    },
    {
      "anonymous": false,
      "inputs": [
        {
          "indexed": true,
          "internalType": "string",
          "name": "contractUri",
          "type": "string"
        },
        {
          "indexed": false,
          "internalType": "address",
          "name": "caller",
          "type": "address"
        }
      ],
      "name": "SetContractUri",
      "type": "event"
    },
    {
      "anonymous": false,
      "inputs": [
        {
          "indexed": true,
          "internalType": "address",
          "name": "beneficiary",
          "type": "address"
        },
        {
          "indexed": false,
          "internalType": "address",
          "name": "caller",
          "type": "address"
        }
      ],
      "name": "SetDefaultReservedTokenBeneficiary",
      "type": "event"
    },
    {
      "anonymous": false,
      "inputs": [
        {
          "indexed": true,
          "internalType": "contract IJBTokenUriResolver",
          "name": "newResolver",
          "type": "address"
        },
        {
          "indexed": false,
          "internalType": "address",
          "name": "caller",
          "type": "address"
        }
      ],
      "name": "SetTokenUriResolver",
      "type": "event"
    },
    {
      "anonymous": false,
      "inputs": [
        {
          "indexed": true,
          "internalType": "address",
          "name": "from",
          "type": "address"
        },
        {
          "indexed": true,
          "internalType": "address",
          "name": "to",
          "type": "address"
        },
        {
          "indexed": true,
          "internalType": "uint256",
          "name": "tokenId",
          "type": "uint256"
        }
      ],
      "name": "Transfer",
      "type": "event"
    },
    {
      "inputs": [
        {
          "components": [
            {
              "internalType": "uint80",
              "name": "contributionFloor",
              "type": "uint80"
            },
            {
              "internalType": "uint48",
              "name": "lockedUntil",
              "type": "uint48"
            },
            {
              "internalType": "uint40",
              "name": "initialQuantity",
              "type": "uint40"
            },
            {
              "internalType": "uint16",
              "name": "votingUnits",
              "type": "uint16"
            },
            {
              "internalType": "uint16",
              "name": "reservedRate",
              "type": "uint16"
            },
            {
              "internalType": "address",
              "name": "reservedTokenBeneficiary",
              "type": "address"
            },
            {
              "internalType": "bytes32",
              "name": "encodedIPFSUri",
              "type": "bytes32"
            },
            {
              "internalType": "bool",
              "name": "allowManualMint",
              "type": "bool"
            },
            {
              "internalType": "bool",
              "name": "shouldUseBeneficiaryAsDefault",
              "type": "bool"
            },
            {
              "internalType": "bool",
              "name": "transfersPausable",
              "type": "bool"
            }
          ],
          "internalType": "struct JB721TierParams[]",
          "name": "_tiersToAdd",
          "type": "tuple[]"
        },
        {
          "internalType": "uint256[]",
          "name": "_tierIdsToRemove",
          "type": "uint256[]"
        }
      ],
      "name": "adjustTiers",
      "outputs": [],
      "stateMutability": "nonpayable",
      "type": "function"
    },
    {
      "inputs": [
        {
          "internalType": "address",
          "name": "to",
          "type": "address"
        },
        {
          "internalType": "uint256",
          "name": "tokenId",
          "type": "uint256"
        }
      ],
      "name": "approve",
      "outputs": [],
      "stateMutability": "nonpayable",
      "type": "function"
    },
    {
      "inputs": [
        {
          "internalType": "address",
          "name": "_owner",
          "type": "address"
        }
      ],
      "name": "balanceOf",
      "outputs": [
        {
          "internalType": "uint256",
          "name": "balance",
          "type": "uint256"
        }
      ],
      "stateMutability": "view",
      "type": "function"
    },
    {
      "inputs": [],
      "name": "codeOrigin",
      "outputs": [
        {
          "internalType": "address",
          "name": "",
          "type": "address"
        }
      ],
      "stateMutability": "view",
      "type": "function"
    },
    {
      "inputs": [],
      "name": "contractURI",
      "outputs": [
        {
          "internalType": "string",
          "name": "",
          "type": "string"
        }
      ],
      "stateMutability": "view",
      "type": "function"
    },
    {
      "inputs": [
        {
          "internalType": "address",
          "name": "",
          "type": "address"
        }
      ],
      "name": "creditsOf",
      "outputs": [
        {
          "internalType": "uint256",
          "name": "",
          "type": "uint256"
        }
      ],
      "stateMutability": "view",
      "type": "function"
    },
    {
      "inputs": [
        {
          "internalType": "address",
          "name": "delegatee",
          "type": "address"
        }
      ],
      "name": "delegate",
      "outputs": [],
      "stateMutability": "nonpayable",
      "type": "function"
    },
    {
      "inputs": [
        {
          "internalType": "address",
          "name": "account",
          "type": "address"
        }
      ],
      "name": "delegates",
      "outputs": [
        {
          "internalType": "address",
          "name": "",
          "type": "address"
        }
      ],
      "stateMutability": "view",
      "type": "function"
    },
    {
      "inputs": [
        {
          "components": [
            {
              "internalType": "address",
              "name": "payer",
              "type": "address"
            },
            {
              "internalType": "uint256",
              "name": "projectId",
              "type": "uint256"
            },
            {
              "internalType": "uint256",
              "name": "currentFundingCycleConfiguration",
              "type": "uint256"
            },
            {
              "components": [
                {
                  "internalType": "address",
                  "name": "token",
                  "type": "address"
                },
                {
                  "internalType": "uint256",
                  "name": "value",
                  "type": "uint256"
                },
                {
                  "internalType": "uint256",
                  "name": "decimals",
                  "type": "uint256"
                },
                {
                  "internalType": "uint256",
                  "name": "currency",
                  "type": "uint256"
                }
              ],
              "internalType": "struct JBTokenAmount",
              "name": "amount",
              "type": "tuple"
            },
            {
              "components": [
                {
                  "internalType": "address",
                  "name": "token",
                  "type": "address"
                },
                {
                  "internalType": "uint256",
                  "name": "value",
                  "type": "uint256"
                },
                {
                  "internalType": "uint256",
                  "name": "decimals",
                  "type": "uint256"
                },
                {
                  "internalType": "uint256",
                  "name": "currency",
                  "type": "uint256"
                }
              ],
              "internalType": "struct JBTokenAmount",
              "name": "forwardedAmount",
              "type": "tuple"
            },
            {
              "internalType": "uint256",
              "name": "projectTokenCount",
              "type": "uint256"
            },
            {
              "internalType": "address",
              "name": "beneficiary",
              "type": "address"
            },
            {
              "internalType": "bool",
              "name": "preferClaimedTokens",
              "type": "bool"
            },
            {
              "internalType": "string",
              "name": "memo",
              "type": "string"
            },
            {
              "internalType": "bytes",
              "name": "metadata",
              "type": "bytes"
            }
          ],
          "internalType": "struct JBDidPayData",
          "name": "_data",
          "type": "tuple"
        }
      ],
      "name": "didPay",
      "outputs": [],
      "stateMutability": "payable",
      "type": "function"
    },
    {
      "inputs": [
        {
          "components": [
            {
              "internalType": "address",
              "name": "holder",
              "type": "address"
            },
            {
              "internalType": "uint256",
              "name": "projectId",
              "type": "uint256"
            },
            {
              "internalType": "uint256",
              "name": "currentFundingCycleConfiguration",
              "type": "uint256"
            },
            {
              "internalType": "uint256",
              "name": "projectTokenCount",
              "type": "uint256"
            },
            {
              "components": [
                {
                  "internalType": "address",
                  "name": "token",
                  "type": "address"
                },
                {
                  "internalType": "uint256",
                  "name": "value",
                  "type": "uint256"
                },
                {
                  "internalType": "uint256",
                  "name": "decimals",
                  "type": "uint256"
                },
                {
                  "internalType": "uint256",
                  "name": "currency",
                  "type": "uint256"
                }
              ],
              "internalType": "struct JBTokenAmount",
              "name": "reclaimedAmount",
              "type": "tuple"
            },
            {
              "components": [
                {
                  "internalType": "address",
                  "name": "token",
                  "type": "address"
                },
                {
                  "internalType": "uint256",
                  "name": "value",
                  "type": "uint256"
                },
                {
                  "internalType": "uint256",
                  "name": "decimals",
                  "type": "uint256"
                },
                {
                  "internalType": "uint256",
                  "name": "currency",
                  "type": "uint256"
                }
              ],
              "internalType": "struct JBTokenAmount",
              "name": "forwardedAmount",
              "type": "tuple"
            },
            {
              "internalType": "address payable",
              "name": "beneficiary",
              "type": "address"
            },
            {
              "internalType": "string",
              "name": "memo",
              "type": "string"
            },
            {
              "internalType": "bytes",
              "name": "metadata",
              "type": "bytes"
            }
          ],
          "internalType": "struct JBDidRedeemData",
          "name": "_data",
          "type": "tuple"
        }
      ],
      "name": "didRedeem",
      "outputs": [],
      "stateMutability": "payable",
      "type": "function"
    },
    {
      "inputs": [],
      "name": "directory",
      "outputs": [
        {
          "internalType": "contract IJBDirectory",
          "name": "",
          "type": "address"
        }
      ],
      "stateMutability": "view",
      "type": "function"
    },
    {
      "inputs": [
        {
          "internalType": "uint256",
          "name": "_tokenId",
          "type": "uint256"
        }
      ],
      "name": "firstOwnerOf",
      "outputs": [
        {
          "internalType": "address",
          "name": "",
          "type": "address"
        }
      ],
      "stateMutability": "view",
      "type": "function"
    },
    {
      "inputs": [],
      "name": "fundingCycleStore",
      "outputs": [
        {
          "internalType": "contract IJBFundingCycleStore",
          "name": "",
          "type": "address"
        }
      ],
      "stateMutability": "view",
      "type": "function"
    },
    {
      "inputs": [
        {
          "internalType": "uint256",
          "name": "tokenId",
          "type": "uint256"
        }
      ],
      "name": "getApproved",
      "outputs": [
        {
          "internalType": "address",
          "name": "",
          "type": "address"
        }
      ],
      "stateMutability": "view",
      "type": "function"
    },
    {
      "inputs": [
        {
          "internalType": "uint256",
          "name": "blockNumber",
          "type": "uint256"
        }
      ],
      "name": "getPastTotalSupply",
      "outputs": [
        {
          "internalType": "uint256",
          "name": "",
          "type": "uint256"
        }
      ],
      "stateMutability": "view",
      "type": "function"
    },
    {
      "inputs": [
        {
          "internalType": "address",
          "name": "account",
          "type": "address"
        },
        {
          "internalType": "uint256",
          "name": "blockNumber",
          "type": "uint256"
        }
      ],
      "name": "getPastVotes",
      "outputs": [
        {
          "internalType": "uint256",
          "name": "",
          "type": "uint256"
        }
      ],
      "stateMutability": "view",
      "type": "function"
    },
    {
      "inputs": [
        {
          "internalType": "address",
          "name": "account",
          "type": "address"
        }
      ],
      "name": "getVotes",
      "outputs": [
        {
          "internalType": "uint256",
          "name": "",
          "type": "uint256"
        }
      ],
      "stateMutability": "view",
      "type": "function"
    },
    {
      "inputs": [
        {
          "internalType": "uint256",
          "name": "_projectId",
          "type": "uint256"
        },
        {
          "internalType": "contract IJBDirectory",
          "name": "_directory",
          "type": "address"
        },
        {
          "internalType": "string",
          "name": "_name",
          "type": "string"
        },
        {
          "internalType": "string",
          "name": "_symbol",
          "type": "string"
        },
        {
          "internalType": "contract IJBFundingCycleStore",
          "name": "_fundingCycleStore",
          "type": "address"
        },
        {
          "internalType": "string",
          "name": "_baseUri",
          "type": "string"
        },
        {
          "internalType": "contract IJBTokenUriResolver",
          "name": "_tokenUriResolver",
          "type": "address"
        },
        {
          "internalType": "string",
          "name": "_contractUri",
          "type": "string"
        },
        {
          "components": [
            {
              "components": [
                {
                  "internalType": "uint80",
                  "name": "contributionFloor",
                  "type": "uint80"
                },
                {
                  "internalType": "uint48",
                  "name": "lockedUntil",
                  "type": "uint48"
                },
                {
                  "internalType": "uint40",
                  "name": "initialQuantity",
                  "type": "uint40"
                },
                {
                  "internalType": "uint16",
                  "name": "votingUnits",
                  "type": "uint16"
                },
                {
                  "internalType": "uint16",
                  "name": "reservedRate",
                  "type": "uint16"
                },
                {
                  "internalType": "address",
                  "name": "reservedTokenBeneficiary",
                  "type": "address"
                },
                {
                  "internalType": "bytes32",
                  "name": "encodedIPFSUri",
                  "type": "bytes32"
                },
                {
                  "internalType": "bool",
                  "name": "allowManualMint",
                  "type": "bool"
                },
                {
                  "internalType": "bool",
                  "name": "shouldUseBeneficiaryAsDefault",
                  "type": "bool"
                },
                {
                  "internalType": "bool",
                  "name": "transfersPausable",
                  "type": "bool"
                }
              ],
              "internalType": "struct JB721TierParams[]",
              "name": "tiers",
              "type": "tuple[]"
            },
            {
              "internalType": "uint256",
              "name": "currency",
              "type": "uint256"
            },
            {
              "internalType": "uint256",
              "name": "decimals",
              "type": "uint256"
            },
            {
              "internalType": "contract IJBPrices",
              "name": "prices",
              "type": "address"
            }
          ],
          "internalType": "struct JB721PricingParams",
          "name": "_pricing",
          "type": "tuple"
        },
        {
          "internalType": "contract IJBTiered721DelegateStore",
          "name": "_store",
          "type": "address"
        },
        {
          "components": [
            {
              "internalType": "bool",
              "name": "lockReservedTokenChanges",
              "type": "bool"
            },
            {
              "internalType": "bool",
              "name": "lockVotingUnitChanges",
              "type": "bool"
            },
            {
              "internalType": "bool",
              "name": "lockManualMintingChanges",
              "type": "bool"
            }
          ],
          "internalType": "struct JBTiered721Flags",
          "name": "_flags",
          "type": "tuple"
        }
      ],
      "name": "initialize",
      "outputs": [],
      "stateMutability": "nonpayable",
      "type": "function"
    },
    {
      "inputs": [
        {
          "internalType": "address",
          "name": "owner",
          "type": "address"
        },
        {
          "internalType": "address",
          "name": "operator",
          "type": "address"
        }
      ],
      "name": "isApprovedForAll",
      "outputs": [
        {
          "internalType": "bool",
          "name": "",
          "type": "bool"
        }
      ],
      "stateMutability": "view",
      "type": "function"
    },
    {
      "inputs": [
        {
          "components": [
            {
              "internalType": "uint16[]",
              "name": "tierIds",
              "type": "uint16[]"
            },
            {
              "internalType": "address",
              "name": "beneficiary",
              "type": "address"
            }
          ],
          "internalType": "struct JBTiered721MintForTiersData[]",
          "name": "_mintForTiersData",
          "type": "tuple[]"
        }
      ],
      "name": "mintFor",
      "outputs": [],
      "stateMutability": "nonpayable",
      "type": "function"
    },
    {
      "inputs": [
        {
          "internalType": "uint16[]",
          "name": "_tierIds",
          "type": "uint16[]"
        },
        {
          "internalType": "address",
          "name": "_beneficiary",
          "type": "address"
        }
      ],
      "name": "mintFor",
      "outputs": [
        {
          "internalType": "uint256[]",
          "name": "tokenIds",
          "type": "uint256[]"
        }
      ],
      "stateMutability": "nonpayable",
      "type": "function"
    },
    {
      "inputs": [
        {
          "components": [
            {
              "internalType": "uint256",
              "name": "tierId",
              "type": "uint256"
            },
            {
              "internalType": "uint256",
              "name": "count",
              "type": "uint256"
            }
          ],
          "internalType": "struct JBTiered721MintReservesForTiersData[]",
          "name": "_mintReservesForTiersData",
          "type": "tuple[]"
        }
      ],
      "name": "mintReservesFor",
      "outputs": [],
      "stateMutability": "nonpayable",
      "type": "function"
    },
    {
      "inputs": [
        {
          "internalType": "uint256",
          "name": "_tierId",
          "type": "uint256"
        },
        {
          "internalType": "uint256",
          "name": "_count",
          "type": "uint256"
        }
      ],
      "name": "mintReservesFor",
      "outputs": [],
      "stateMutability": "nonpayable",
      "type": "function"
    },
    {
      "inputs": [],
      "name": "name",
      "outputs": [
        {
          "internalType": "string",
          "name": "",
          "type": "string"
        }
      ],
      "stateMutability": "view",
      "type": "function"
    },
    {
      "inputs": [],
      "name": "owner",
      "outputs": [
        {
          "internalType": "address",
          "name": "",
          "type": "address"
        }
      ],
      "stateMutability": "view",
      "type": "function"
    },
    {
      "inputs": [
        {
          "internalType": "uint256",
          "name": "tokenId",
          "type": "uint256"
        }
      ],
      "name": "ownerOf",
      "outputs": [
        {
          "internalType": "address",
          "name": "",
          "type": "address"
        }
      ],
      "stateMutability": "view",
      "type": "function"
    },
    {
      "inputs": [
        {
          "components": [
            {
              "internalType": "contract IJBPaymentTerminal",
              "name": "terminal",
              "type": "address"
            },
            {
              "internalType": "address",
              "name": "payer",
              "type": "address"
            },
            {
              "components": [
                {
                  "internalType": "address",
                  "name": "token",
                  "type": "address"
                },
                {
                  "internalType": "uint256",
                  "name": "value",
                  "type": "uint256"
                },
                {
                  "internalType": "uint256",
                  "name": "decimals",
                  "type": "uint256"
                },
                {
                  "internalType": "uint256",
                  "name": "currency",
                  "type": "uint256"
                }
              ],
              "internalType": "struct JBTokenAmount",
              "name": "amount",
              "type": "tuple"
            },
            {
              "internalType": "uint256",
              "name": "projectId",
              "type": "uint256"
            },
            {
              "internalType": "uint256",
              "name": "currentFundingCycleConfiguration",
              "type": "uint256"
            },
            {
              "internalType": "address",
              "name": "beneficiary",
              "type": "address"
            },
            {
              "internalType": "uint256",
              "name": "weight",
              "type": "uint256"
            },
            {
              "internalType": "uint256",
              "name": "reservedRate",
              "type": "uint256"
            },
            {
              "internalType": "string",
              "name": "memo",
              "type": "string"
            },
            {
              "internalType": "bytes",
              "name": "metadata",
              "type": "bytes"
            }
          ],
          "internalType": "struct JBPayParamsData",
          "name": "_data",
          "type": "tuple"
        }
      ],
      "name": "payParams",
      "outputs": [
        {
          "internalType": "uint256",
          "name": "weight",
          "type": "uint256"
        },
        {
          "internalType": "string",
          "name": "memo",
          "type": "string"
        },
        {
          "components": [
            {
              "internalType": "contract IJBPayDelegate",
              "name": "delegate",
              "type": "address"
            },
            {
              "internalType": "uint256",
              "name": "amount",
              "type": "uint256"
            }
          ],
          "internalType": "struct JBPayDelegateAllocation[]",
          "name": "delegateAllocations",
          "type": "tuple[]"
        }
      ],
      "stateMutability": "view",
      "type": "function"
    },
    {
      "inputs": [],
      "name": "prices",
      "outputs": [
        {
          "internalType": "contract IJBPrices",
          "name": "",
          "type": "address"
        }
      ],
      "stateMutability": "view",
      "type": "function"
    },
    {
      "inputs": [],
      "name": "pricingCurrency",
      "outputs": [
        {
          "internalType": "uint256",
          "name": "",
          "type": "uint256"
        }
      ],
      "stateMutability": "view",
      "type": "function"
    },
    {
      "inputs": [],
      "name": "pricingDecimals",
      "outputs": [
        {
          "internalType": "uint256",
          "name": "",
          "type": "uint256"
        }
      ],
      "stateMutability": "view",
      "type": "function"
    },
    {
      "inputs": [],
      "name": "projectId",
      "outputs": [
        {
          "internalType": "uint256",
          "name": "",
          "type": "uint256"
        }
      ],
      "stateMutability": "view",
      "type": "function"
    },
    {
      "inputs": [
        {
          "components": [
            {
              "internalType": "contract IJBPaymentTerminal",
              "name": "terminal",
              "type": "address"
            },
            {
              "internalType": "address",
              "name": "holder",
              "type": "address"
            },
            {
              "internalType": "uint256",
              "name": "projectId",
              "type": "uint256"
            },
            {
              "internalType": "uint256",
              "name": "currentFundingCycleConfiguration",
              "type": "uint256"
            },
            {
              "internalType": "uint256",
              "name": "tokenCount",
              "type": "uint256"
            },
            {
              "internalType": "uint256",
              "name": "totalSupply",
              "type": "uint256"
            },
            {
              "internalType": "uint256",
              "name": "overflow",
              "type": "uint256"
            },
            {
              "components": [
                {
                  "internalType": "address",
                  "name": "token",
                  "type": "address"
                },
                {
                  "internalType": "uint256",
                  "name": "value",
                  "type": "uint256"
                },
                {
                  "internalType": "uint256",
                  "name": "decimals",
                  "type": "uint256"
                },
                {
                  "internalType": "uint256",
                  "name": "currency",
                  "type": "uint256"
                }
              ],
              "internalType": "struct JBTokenAmount",
              "name": "reclaimAmount",
              "type": "tuple"
            },
            {
              "internalType": "bool",
              "name": "useTotalOverflow",
              "type": "bool"
            },
            {
              "internalType": "uint256",
              "name": "redemptionRate",
              "type": "uint256"
            },
            {
              "internalType": "string",
              "name": "memo",
              "type": "string"
            },
            {
              "internalType": "bytes",
              "name": "metadata",
              "type": "bytes"
            }
          ],
          "internalType": "struct JBRedeemParamsData",
          "name": "_data",
          "type": "tuple"
        }
      ],
      "name": "redeemParams",
      "outputs": [
        {
          "internalType": "uint256",
          "name": "reclaimAmount",
          "type": "uint256"
        },
        {
          "internalType": "string",
          "name": "memo",
          "type": "string"
        },
        {
          "components": [
            {
              "internalType": "contract IJBRedemptionDelegate",
              "name": "delegate",
              "type": "address"
            },
            {
              "internalType": "uint256",
              "name": "amount",
              "type": "uint256"
            }
          ],
          "internalType": "struct JBRedemptionDelegateAllocation[]",
          "name": "delegateAllocations",
          "type": "tuple[]"
        }
      ],
      "stateMutability": "view",
      "type": "function"
    },
    {
      "inputs": [],
      "name": "renounceOwnership",
      "outputs": [],
      "stateMutability": "nonpayable",
      "type": "function"
    },
    {
      "inputs": [
        {
          "internalType": "address",
          "name": "from",
          "type": "address"
        },
        {
          "internalType": "address",
          "name": "to",
          "type": "address"
        },
        {
          "internalType": "uint256",
          "name": "tokenId",
          "type": "uint256"
        }
      ],
      "name": "safeTransferFrom",
      "outputs": [],
      "stateMutability": "nonpayable",
      "type": "function"
    },
    {
      "inputs": [
        {
          "internalType": "address",
          "name": "from",
          "type": "address"
        },
        {
          "internalType": "address",
          "name": "to",
          "type": "address"
        },
        {
          "internalType": "uint256",
          "name": "tokenId",
          "type": "uint256"
        },
        {
          "internalType": "bytes",
          "name": "data",
          "type": "bytes"
        }
      ],
      "name": "safeTransferFrom",
      "outputs": [],
      "stateMutability": "nonpayable",
      "type": "function"
    },
    {
      "inputs": [
        {
          "internalType": "address",
          "name": "operator",
          "type": "address"
        },
        {
          "internalType": "bool",
          "name": "approved",
          "type": "bool"
        }
      ],
      "name": "setApprovalForAll",
      "outputs": [],
      "stateMutability": "nonpayable",
      "type": "function"
    },
    {
      "inputs": [
        {
          "internalType": "string",
          "name": "_baseUri",
          "type": "string"
        }
      ],
      "name": "setBaseUri",
      "outputs": [],
      "stateMutability": "nonpayable",
      "type": "function"
    },
    {
      "inputs": [
        {
          "internalType": "string",
          "name": "_contractUri",
          "type": "string"
        }
      ],
      "name": "setContractUri",
      "outputs": [],
      "stateMutability": "nonpayable",
      "type": "function"
    },
    {
      "inputs": [
        {
          "internalType": "address",
          "name": "_beneficiary",
          "type": "address"
        }
      ],
      "name": "setDefaultReservedTokenBeneficiary",
      "outputs": [],
      "stateMutability": "nonpayable",
      "type": "function"
    },
    {
      "inputs": [
        {
          "internalType": "contract IJBTokenUriResolver",
          "name": "_tokenUriResolver",
          "type": "address"
        }
      ],
      "name": "setTokenUriResolver",
      "outputs": [],
      "stateMutability": "nonpayable",
      "type": "function"
    },
    {
      "inputs": [],
      "name": "store",
      "outputs": [
        {
          "internalType": "contract IJBTiered721DelegateStore",
          "name": "",
          "type": "address"
        }
      ],
      "stateMutability": "view",
      "type": "function"
    },
    {
      "inputs": [
        {
          "internalType": "bytes4",
          "name": "_interfaceId",
          "type": "bytes4"
        }
      ],
      "name": "supportsInterface",
      "outputs": [
        {
          "internalType": "bool",
          "name": "",
          "type": "bool"
        }
      ],
      "stateMutability": "view",
      "type": "function"
    },
    {
      "inputs": [],
      "name": "symbol",
      "outputs": [
        {
          "internalType": "string",
          "name": "",
          "type": "string"
        }
      ],
      "stateMutability": "view",
      "type": "function"
    },
    {
      "inputs": [
        {
          "internalType": "uint256",
          "name": "_tokenId",
          "type": "uint256"
        }
      ],
      "name": "tokenURI",
      "outputs": [
        {
          "internalType": "string",
          "name": "",
          "type": "string"
        }
      ],
      "stateMutability": "view",
      "type": "function"
    },
    {
      "inputs": [
        {
          "internalType": "address",
          "name": "from",
          "type": "address"
        },
        {
          "internalType": "address",
          "name": "to",
          "type": "address"
        },
        {
          "internalType": "uint256",
          "name": "tokenId",
          "type": "uint256"
        }
      ],
      "name": "transferFrom",
      "outputs": [],
      "stateMutability": "nonpayable",
      "type": "function"
    },
    {
      "inputs": [
        {
          "internalType": "address",
          "name": "newOwner",
          "type": "address"
        }
      ],
      "name": "transferOwnership",
      "outputs": [],
      "stateMutability": "nonpayable",
      "type": "function"
    }
  ],
  "bytecode": {
    "object": "0x60806040523480156200001157600080fd5b506200001d3362000035565b600b80546001600160a01b0319163017905562000087565b600a80546001600160a01b038381166001600160a01b0319831681179093556040519116919082907f8be0079c531659141344cd1fd0a4f28419497f9722a3daafe3b4186f6b6457e090600090a35050565b6155ce80620000976000396000f3fe60806040526004361061027d5760003560e01c8063715018a61161014f578063bb52b6e4116100c1578063da9ee8b71161007a578063da9ee8b7146107c0578063df487e26146107d3578063e8a3d485146107f3578063e985e9c514610808578063f2fde38b14610851578063f5a38e631461087157600080fd5b8063bb52b6e414610700578063c41c2f2414610720578063c87b56dd14610740578063ccb4807b14610760578063d3419bf314610780578063d46cf171146107a057600080fd5b80639ab24eb0116101135780639ab24eb014610631578063a0bcfc7f14610651578063a22cb46514610671578063a51cfd1814610691578063aa4fb15b146106c0578063b88d4fde146106e057600080fd5b8063715018a6146105a95780638da5cb5b146105be5780638e539e8c146105dc57806395d89b41146105fc578063975057e71461061157600080fd5b80633a46b1a8116101f3578063587cde1e116101ac578063587cde1e146104cd5780635c19a95c146105065780636352211e1461052657806364640c1e146105465780636ac6d9411461055c57806370a082311461058957600080fd5b80633a46b1a8146104215780633fafa1271461044157806342842e0e146104575780634ecba6251461047757806354c6d1f51461048d578063557e7155146104ad57600080fd5b806323b872dd1161024557806323b872dd146103535780632407497e14610373578063245a45b5146103935780632a596e53146103ce5780632b13c58f146103ee57806336c1a93b1461040157600080fd5b806301ffc9a71461028257806306fdde03146102b7578063081812fc146102d9578063095ea7b3146103115780631d153ca414610333575b600080fd5b34801561028e57600080fd5b506102a261029d366004613d5d565b610891565b60405190151581526020015b60405180910390f35b3480156102c357600080fd5b506102cc6108bc565b6040516102ae9190613dca565b3480156102e557600080fd5b506102f96102f4366004613ddd565b61094e565b6040516001600160a01b0390911681526020016102ae565b34801561031d57600080fd5b5061033161032c366004613e1b565b610975565b005b34801561033f57600080fd5b50600b546102f9906001600160a01b031681565b34801561035f57600080fd5b5061033161036e366004613e47565b610a01565b34801561037f57600080fd5b5061033161038e366004613e88565b610a33565b34801561039f57600080fd5b506103c06103ae366004613e88565b60116020526000908152604090205481565b6040519081526020016102ae565b3480156103da57600080fd5b506103316103e9366004613ea5565b610adc565b6103316103fc366004613f32565b610b35565b34801561040d57600080fd5b5061033161041c366004613faa565b610d0f565b34801561042d57600080fd5b506103c061043c366004613e1b565b610d71565b34801561044d57600080fd5b506103c060085481565b34801561046357600080fd5b50610331610472366004613e47565b610d9a565b34801561048357600080fd5b506103c060105481565b34801561049957600080fd5b506102f96104a8366004613ddd565b610db5565b3480156104b957600080fd5b50600d546102f9906001600160a01b031681565b3480156104d957600080fd5b506102f96104e8366004613e88565b6001600160a01b039081166000908152602081905260409020541690565b34801561051257600080fd5b50610331610521366004613e88565b610e61565b34801561053257600080fd5b506102f9610541366004613ddd565b610e6e565b34801561055257600080fd5b506103c0600f5481565b34801561056857600080fd5b5061057c610577366004613feb565b610ea4565b6040516102ae919061407c565b34801561059557600080fd5b506103c06105a4366004613e88565b610fea565b3480156105b557600080fd5b50610331611060565b3480156105ca57600080fd5b50600a546001600160a01b03166102f9565b3480156105e857600080fd5b506103c06105f7366004613ddd565b611074565b34801561060857600080fd5b506102cc6110a1565b34801561061d57600080fd5b50600c546102f9906001600160a01b031681565b34801561063d57600080fd5b506103c061064c366004613e88565b6110b0565b34801561065d57600080fd5b5061033161066c36600461408f565b6110e0565b34801561067d57600080fd5b5061033161068c366004614107565b61119b565b34801561069d57600080fd5b506106b16106ac366004613f32565b6111aa565b6040516102ae93929190614140565b3480156106cc57600080fd5b506103316106db3660046141b2565b611409565b3480156106ec57600080fd5b506103316106fb366004614310565b611626565b34801561070c57600080fd5b5061033161071b366004614611565b611659565b34801561072c57600080fd5b506009546102f9906001600160a01b031681565b34801561074c57600080fd5b506102cc61075b366004613ddd565b61193f565b34801561076c57600080fd5b5061033161077b36600461408f565b611b47565b34801561078c57600080fd5b50600e546102f9906001600160a01b031681565b3480156107ac57600080fd5b506106b16107bb36600461474a565b611bfa565b6103316107ce366004614785565b611cdd565b3480156107df57600080fd5b506103316107ee366004613e88565b611d94565b3480156107ff57600080fd5b506102cc611e36565b34801561081457600080fd5b506102a26108233660046147c0565b6001600160a01b03918216600090815260076020908152604080832093909416825291909152205460ff1690565b34801561085d57600080fd5b5061033161086c366004613e88565b611eac565b34801561087d57600080fd5b5061033161088c3660046147ee565b611f27565b60006001600160e01b03198216631e68505960e31b14806108b657506108b68261210a565b92915050565b6060600380546108cb90614888565b80601f01602080910402602001604051908101604052809291908181526020018280546108f790614888565b80156109445780601f1061091957610100808354040283529160200191610944565b820191906000526020600020905b81548152906001019060200180831161092757829003601f168201915b5050505050905090565b600061095982612180565b506000908152600660205260409020546001600160a01b031690565b600061098082610e6e565b9050806001600160a01b0316836001600160a01b0316036109b45760405163133f8be960e01b815260040160405180910390fd5b336001600160a01b038216148015906109d457506109d28133610823565b155b156109f25760405163e5fa0e3560e01b815260040160405180910390fd5b6109fc83836121b5565b505050565b610a0b3382612223565b610a285760405163e5fa0e3560e01b815260040160405180910390fd5b6109fc8383836122a2565b610a3b61237b565b600c5460405163036129cb60e61b81526001600160a01b0383811660048301529091169063d84a72c090602401600060405180830381600087803b158015610a8257600080fd5b505af1158015610a96573d6000803e3d6000fd5b50506040513381526001600160a01b03841692507fe7784d93cfbfa4408e19577e6cc0436f4dbb51214b70e100905dfce9def88c1691506020015b60405180910390a250565b8060005b81811015610b2f576000848483818110610afc57610afc6148bc565b905060400201803603810190610b1291906148d2565b9050610b2681600001518260200151611409565b50600101610ae0565b50505050565b34151580610bb75750600954600854604051636e49181f60e01b815260048101919091523360248201526001600160a01b0390911690636e49181f90604401602060405180830381865afa158015610b91573d6000803e3d6000fd5b505050506040513d601f19601f82011682018060405250810190610bb5919061492b565b155b80610bc85750600854816020013514155b15610be657604051633efca5c360e11b815260040160405180910390fd5b6024610bf66101c0830183614948565b90501080610c3a575063b3bcbb7960e01b610c156101c0830183614948565b610c249160249160209161498e565b610c2d916149b8565b6001600160e01b03191614155b15610c5857604051632a84050f60e01b815260040160405180910390fd5b6000610c686101c0830183614948565b810190610c7591906149e8565b925050506000815190506000805b82811015610d0557838181518110610c9d57610c9d6148bc565b60200260200101519150846000016020810190610cba9190613e88565b6000838152600560205260409020546001600160a01b03908116911614610cf45760405163075fd2b160e01b815260040160405180910390fd5b610cfd826123d5565b600101610c83565b50610b2f83612456565b610d1761237b565b8060005b81811015610b2f5736848483818110610d3657610d366148bc565b9050602002810190610d489190614a96565b9050610d67610d578280614ab6565b6105776040850160208601613e88565b5050600101610d1b565b6001600160a01b0382166000908152600160205260408120610d9390836124bb565b9392505050565b6109fc83838360405180602001604052806000815250611626565b600c546040516308ed6c0160e41b81523060048201526024810183905260009182916001600160a01b0390911690638ed6c01090604401602060405180830381865afa158015610e09573d6000803e3d6000fd5b505050506040513d601f19601f82011682018060405250810190610e2d9190614b0a565b90506001600160a01b03811615610e445792915050565b50506000908152600560205260409020546001600160a01b031690565b610e6b338261257c565b50565b6000818152600560205260408120546001600160a01b0316806108b65760405163b49aa3b560e01b815260040160405180910390fd5b6060610eae61237b565b600c5460405163eaa19ab360e01b81526001600160a01b039091169063eaa19ab390610ee7906000199088908890600190600401614b27565b6000604051808303816000875af1158015610f06573d6000803e3d6000fd5b505050506040513d6000823e601f3d908101601f19168201604052610f2e9190810190614bea565b509050826000805b82811015610fe057838181518110610f5057610f506148bc565b60200260200101519150610f6485836125ee565b846001600160a01b0316878783818110610f8057610f806148bc565b9050602002016020810190610f959190614c30565b604080516000815233602082015261ffff929092169185917f598baf7bf150ca2f42be9e9f8f55e81d45f5715c3ff22bf46d697fabec7f31d6910160405180910390a4600101610f36565b5050509392505050565b600c54604051633de222bb60e21b81523060048201526001600160a01b038381166024830152600092169063f7888aec906044015b602060405180830381865afa15801561103c573d6000803e3d6000fd5b505050506040513d601f19601f820116820180604052508101906108b69190614c4b565b61106861237b565b61107260006126b8565b565b6000438210611096576040516305b5e09b60e51b815260040160405180910390fd5b6108b66002836124bb565b6060600480546108cb90614888565b6001600160a01b03811660009081526001602052604081206110d19061270a565b6001600160e01b031692915050565b6110e861237b565b600c546040516331315e5960e11b81526001600160a01b0390911690636262bcb29061111a9085908590600401614c64565b600060405180830381600087803b15801561113457600080fd5b505af1158015611148573d6000803e3d6000fd5b50505050818160405161115c929190614c93565b604051908190038120338252907f7bc9110d5de090dd59e07912d2b93a5a27ac70a60c8d8e324db4f9ee8b8b5c13906020015b60405180910390a25050565b6111a6338383612744565b5050565b60006060806080840135156111d2576040516309f82f1b60e31b815260040160405180910390fd5b60246111e26101c0860186614948565b90501080611226575063b3bcbb7960e01b6112016101c0860186614948565b6112109160249160209161498e565b611219916149b8565b6001600160e01b03191614155b1561124457604051632a84050f60e01b815260040160405180910390fd5b60408051600180825281830190925290816020015b60408051808201909152600080825260208201528152602001906001900390816112595790505090506040518060400160405280306001600160a01b031681526020016000815250816000815181106112b4576112b46148bc565b602090810291909101015260006112cf6101c0860186614948565b8101906112dc91906149e8565b9250505060006112ec82876127e3565b905060006112f987612857565b9050600061130c8860c001358484612888565b905061271088610180013503611377578061132b6101a08a018a614948565b8782828080601f016020809104026020016040519081016040528093929190818152602001838380828437600092019190915250969d50919b5091995061140298505050505050505050565b6113ad81611396856113906101808d0135612710614cb9565b86612888565b6113a5906101808c0135614ccc565b612710612888565b6113bb6101a08a018a614948565b8782828080601f016020809104026020016040519081016040528093929190818152602001838380828437600092019190915250969d50919b509199505050505050505050505b9193909250565b600d546008546040516321d1336160e11b815260048101919091526000916001600160a01b0316906343a266c29060240161012060405180830381865afa158015611458573d6000803e3d6000fd5b505050506040513d601f19601f8201168201806040525081019061147c9190614cdf565b61010081015190915060f51c6001908116036114ab57604051631d2c125760e31b815260040160405180910390fd5b600c54604051635d53f40760e11b815260048101859052602481018490526000916001600160a01b03169063baa7e80e906044016000604051808303816000875af11580156114fe573d6000803e3d6000fd5b505050506040513d6000823e601f3d908101601f191682016040526115269190810190614d5f565b600c546040516304db994760e21b8152306004820152602481018790529192506000916001600160a01b039091169063136e651c90604401602060405180830381865afa15801561157b573d6000803e3d6000fd5b505050506040513d601f19601f8201168201806040525081019061159f9190614b0a565b90506000805b8581101561161d578381815181106115bf576115bf6148bc565b602002602001015191506115d383836125ee565b6040513381526001600160a01b03841690889084907f031e1988c95a91ec4d655ff63a8f87a80bc9daf28d95ae10ee08c0022cfb5c8b9060200160405180910390a46001016115a5565b50505050505050565b6116303383612223565b61164d5760405163e5fa0e3560e01b815260040160405180910390fd5b610b2f84848484612954565b600b546001600160a01b0316300361167057600080fd5b600c546001600160a01b03161561168657600080fd5b6116928b8b8b8b612988565b600d80546001600160a01b03808a166001600160a01b031992831617909255600c80548584169083161790556020850151600f5560408501516010556060850151600e8054919093169116179055855115611746576040516331315e5960e11b81526001600160a01b03831690636262bcb290611713908990600401613dca565b600060405180830381600087803b15801561172d57600080fd5b505af1158015611741573d6000803e3d6000fd5b505050505b8351156117ac5760405163d67b78fd60e01b81526001600160a01b0383169063d67b78fd90611779908790600401613dca565b600060405180830381600087803b15801561179357600080fd5b505af11580156117a7573d6000803e3d6000fd5b505050505b6001600160a01b038516156118175760405163036129cb60e61b81526001600160a01b03868116600483015283169063d84a72c090602401600060405180830381600087803b1580156117fe57600080fd5b505af1158015611812573d6000803e3d6000fd5b505050505b8251511561189557825160405163eadd8b3760e01b81526001600160a01b0384169163eadd8b379161184c9190600401614d93565b6000604051808303816000875af115801561186b573d6000803e3d6000fd5b505050506040513d6000823e601f3d908101601f191682016040526118939190810190614d5f565b505b8051806118a3575080602001515b806118af575080604001515b15611929576040805163cdb0af6d60e01b815282511515600482015260208301511515602482015290820151151560448201526001600160a01b0383169063cdb0af6d90606401600060405180830381600087803b15801561191057600080fd5b505af1158015611924573d6000803e3d6000fd5b505050505b611932336126b8565b5050505050505050505050565b6000818152600560205260409020546060906001600160a01b031661197257505060408051602081019091526000815290565b600c54604051630fab094760e01b81523060048201526000916001600160a01b031690630fab094790602401602060405180830381865afa1580156119bb573d6000803e3d6000fd5b505050506040513d601f19601f820116820180604052508101906119df9190614b0a565b90506001600160a01b03811615611a5d57604051636d02a25560e11b8152600481018490526001600160a01b0382169063da0544aa90602401600060405180830381865afa158015611a35573d6000803e3d6000fd5b505050506040513d6000823e601f3d908101601f19168201604052610d939190810190614e6c565b600c5460405163f682eeaf60e01b8152306004820152610d93916001600160a01b03169063f682eeaf90602401600060405180830381865afa158015611aa7573d6000803e3d6000fd5b505050506040513d6000823e601f3d908101601f19168201604052611acf9190810190614e6c565b600c54604051630c8df17160e41b8152306004820152602481018790526001600160a01b039091169063c8df171090604401602060405180830381865afa158015611b1e573d6000803e3d6000fd5b505050506040513d601f19601f82011682018060405250810190611b429190614c4b565b6129bb565b611b4f61237b565b600c5460405163d67b78fd60e01b81526001600160a01b039091169063d67b78fd90611b819085908590600401614c64565b600060405180830381600087803b158015611b9b57600080fd5b505af1158015611baf573d6000803e3d6000fd5b505050508181604051611bc3929190614c93565b604051908190038120338252907fd36dc0c1a06103fdcaf15f3f6fb797d1a97997514c78de073640c8b5005454b89060200161118f565b610120810135606080611c11610160850185614948565b8080601f01602080910402602001604051908101604052809392919081815260200183838082843760009201919091525092945060019250611c51915050565b604051908082528060200260200182016040528015611c9657816020015b6040805180820190915260008082526020820152815260200190600190039081611c6f5790505b5090506040518060400160405280306001600160a01b03168152602001600081525081600081518110611ccb57611ccb6148bc565b60200260200101819052509193909250565b60085434151580611d5e5750600954604051636e49181f60e01b8152600481018390523360248201526001600160a01b0390911690636e49181f90604401602060405180830381865afa158015611d38573d6000803e3d6000fd5b505050506040513d601f19601f82011682018060405250810190611d5c919061492b565b155b80611d6d575080826020013514155b15611d8b576040516331c57b1b60e21b815260040160405180910390fd5b6111a682612a22565b611d9c61237b565b600c546040516317161f7d60e01b81526001600160a01b038381166004830152909116906317161f7d90602401600060405180830381600087803b158015611de357600080fd5b505af1158015611df7573d6000803e3d6000fd5b50506040513381526001600160a01b03841692507fab0014d4c7a642a02a31b303a318908c22b0fb2001f107278fc6076b4c671b659150602001610ad1565b600c54604051630155619b60e71b81523060048201526060916001600160a01b03169063aab0cd8090602401600060405180830381865afa158015611e7f573d6000803e3d6000fd5b505050506040513d6000823e601f3d908101601f19168201604052611ea79190810190614e6c565b905090565b611eb461237b565b6001600160a01b038116611f1e5760405162461bcd60e51b815260206004820152602660248201527f4f776e61626c653a206e6577206f776e657220697320746865207a65726f206160448201526564647265737360d01b60648201526084015b60405180910390fd5b610e6b816126b8565b611f2f61237b565b82818015611fff57600c546040516320512ba160e01b81526001600160a01b03909116906320512ba190611f699087908790600401614ed9565b600060405180830381600087803b158015611f8357600080fd5b505af1158015611f97573d6000803e3d6000fd5b5050505060005b81811015611ffd57848482818110611fb857611fb86148bc565b60405133815260209182029390930135927f832d89d991be5351d793c20faf4b7dd44f8aa9ce39e3cb160c6317de6fbba72992500160405180910390a2600101611f9e565b505b811561210257600c5460405163eadd8b3760e01b81526000916001600160a01b03169063eadd8b3790612038908a908a90600401614fef565b6000604051808303816000875af1158015612057573d6000803e3d6000fd5b505050506040513d6000823e601f3d908101601f1916820160405261207f9190810190614d5f565b905060005b838110156120ff5781818151811061209e5761209e6148bc565b60200260200101517f85b5b4c4e44e342c8dac3c3a5364494d455043decb9f4bb8e7e0a3020d22fed48989848181106120d9576120d96148bc565b90506101400201336040516120ef929190615032565b60405180910390a2600101612084565b50505b505050505050565b60006001600160e01b0319821663b3bcbb7960e01b148061213b57506001600160e01b031982166371700c6960e01b145b8061215657506001600160e01b0319821663da9ee8b760e01b145b8061217157506001600160e01b03198216632b13c58f60e01b145b806108b657506108b682612d48565b6000818152600560205260409020546001600160a01b0316610e6b5760405163b49aa3b560e01b815260040160405180910390fd5b600081815260066020526040902080546001600160a01b0319166001600160a01b03841690811790915581906121ea82610e6e565b6001600160a01b03167f8c5be1e5ebec7d5bd14f71427d1e84f3dd0314c0f7b2291e5b200ac8c7c3b92560405160405180910390a45050565b60008061222f83610e6e565b9050806001600160a01b0316846001600160a01b0316148061227657506001600160a01b0380821660009081526007602090815260408083209388168352929052205460ff165b8061229a5750836001600160a01b031661228f8461094e565b6001600160a01b0316145b949350505050565b826001600160a01b03166122b582610e6e565b6001600160a01b0316146122dc5760405163a195bc5360e01b815260040160405180910390fd5b6001600160a01b03821661230357604051632c95542760e01b815260040160405180910390fd5b61230e838383612d98565b6123196000826121b5565b60008181526005602052604080822080546001600160a01b0319166001600160a01b0386811691821790925591518493918716917fddf252ad1be2c89b69c2b068fc378daa952ba7f163c4a11628f55a4df523b3ef91a46109fc838383612fc5565b600a546001600160a01b031633146110725760405162461bcd60e51b815260206004820181905260248201527f4f776e61626c653a2063616c6c6572206973206e6f7420746865206f776e65726044820152606401611f15565b60006123e082610e6e565b90506123ee81600084612d98565b6123f96000836121b5565b60008281526005602052604080822080546001600160a01b0319169055518391906001600160a01b038416907fddf252ad1be2c89b69c2b068fc378daa952ba7f163c4a11628f55a4df523b3ef908390a46111a681600084612fc5565b600c546040516386bc2be360e01b81526001600160a01b03909116906386bc2be39061248690849060040161407c565b600060405180830381600087803b1580156124a057600080fd5b505af11580156124b4573d6000803e3d6000fd5b5050505050565b600043821061250c5760405162461bcd60e51b815260206004820181905260248201527f436865636b706f696e74733a20626c6f636b206e6f7420796574206d696e65646044820152606401611f15565b6000612517836130be565b8454909150600061252a86848385613127565b905080156125665761254f86612541600184614cb9565b600091825260209091200190565b5464010000000090046001600160e01b0316612569565b60005b6001600160e01b03169695505050505050565b6001600160a01b0382811660008181526020819052604080822080548686166001600160a01b0319821681179092559151919094169392849290917f3134e8a2e6d97e929a7e54011ea5485d7d196dd5f0ba4d4ef95803e8e3fc257f9190a46109fc81836125e986613185565b6131be565b6001600160a01b03821661261557604051633904578f60e11b815260040160405180910390fd5b6000818152600560205260409020546001600160a01b03161561264b57604051632eb5f0c360e21b815260040160405180910390fd5b61265760008383612d98565b60008181526005602052604080822080546001600160a01b0319166001600160a01b03861690811790915590518392907fddf252ad1be2c89b69c2b068fc378daa952ba7f163c4a11628f55a4df523b3ef908290a46111a660008383612fc5565b600a80546001600160a01b038381166001600160a01b0319831681179093556040519116919082907f8be0079c531659141344cd1fd0a4f28419497f9722a3daafe3b4186f6b6457e090600090a35050565b8054600090801561273b5761272483612541600184614cb9565b5464010000000090046001600160e01b0316610d93565b60009392505050565b816001600160a01b0316836001600160a01b031603612776576040516306f8139d60e11b815260040160405180910390fd5b6001600160a01b03838116600081815260076020908152604080832094871680845294825291829020805460ff191686151590811790915591519182527f17307eab39ab6107e8899845ad3d59bd9653f200f220920489ca2b5937696c31910160405180910390a3505050565b600c5460405163051330b560e21b81526000916001600160a01b03169063144cc2d490612816903090879060040161505a565b602060405180830381865afa158015612833573d6000803e3d6000fd5b505050506040513d601f19601f82011682018060405250810190610d939190614c4b565b600c54604051631572f24960e11b81523060048201526000916001600160a01b031690632ae5e4929060240161101f565b60008080600019858709858702925082811083820303915050806000036128c2578382816128b8576128b861507e565b0492505050610d93565b8381106128ec57604051631dcf306360e21b81526004810182905260248101859052604401611f15565b600084868809600260036001881981018916988990049182028318808302840302808302840302808302840302808302840302808302840302918202909203026000889003889004909101858311909403939093029303949094049190911702949350505050565b61295f8484846122a2565b61296b848484846132fb565b610b2f576040516336f57c1b60e11b815260040160405180910390fd5b61299282826133fa565b5050600891909155600980546001600160a01b0319166001600160a01b03909216919091179055565b604051609160f51b602082015260228101829052606090600090604201604051602081830303815290604052905060006129f482613413565b90508481604051602001612a09929190615094565b6040516020818303038152906040529250505092915050565b600f5460009060c083013503612a3d57506080810135612af3565b600e546001600160a01b0316156111a657601054612af090608084013590612a6690600a6151a7565b600e54600f54604051635268657960e11b815260c08801356004820152602481019190915260a087013560448201526001600160a01b039091169063a4d0caf290606401602060405180830381865afa158015612ac7573d6000803e3d6000fd5b505050506040513d601f19601f82011682018060405250810190612aeb9190614c4b565b612888565b90505b6000601181612b0a6101a086016101808701613e88565b6001600160a01b03168152602081019190915260400160009081205491508290612b3c6101a086016101808701613e88565b6001600160a01b0316612b526020870187613e88565b6001600160a01b031603612b695790820190612b6c565b50815b6000806044612b7f6101e0890189614948565b9050118015612bc3575063b3bcbb7960e01b612b9f6101e0890189614948565b612bae9160449160409161498e565b612bb7916149b8565b6001600160e01b031916145b15612c635760006060612bda6101e08a018a614948565b810190612be791906151b3565b919950975090955093505083159150612c3a90505785850160116000612c156101a08d016101808e01613e88565b6001600160a01b03168152602081019190915260400160002055505050505050505050565b805115612c6057612c5d8682612c586101a08d016101808e01613e88565b6135ab565b95505b50505b8315612d0757612c8584612c7f6101a08a016101808b01613e88565b846136ed565b93508315612ce4578015612cac57604051631b57826960e21b815260040160405180910390fd5b83830160116000612cc56101a08b016101808c01613e88565b6001600160a01b0316815260208101919091526040016000205561161d565b828514612d02578260116000612cc56101a08b016101808c01613e88565b61161d565b82851461161d578260116000612d256101a08b016101808c01613e88565b6001600160a01b0316815260208101919091526040016000205550505050505050565b60006001600160e01b031982166380ac58cd60e01b1480612d7957506001600160e01b03198216635b5e139f60e01b145b806108b657506301ffc9a760e01b6001600160e01b03198316146108b6565b6001600160a01b038316156109fc57600c5460405163b67cb04760e01b8152306004820152602481018390526000916001600160a01b03169063b67cb0479060440161016060405180830381865afa158015612df8573d6000803e3d6000fd5b505050506040513d601f19601f82011682018060405250810190612e1c91906152aa565b905080610140015115612ee157600d546008546040516321d1336160e11b815260048101919091526000916001600160a01b0316906343a266c29060240161012060405180830381865afa158015612e78573d6000803e3d6000fd5b505050506040513d601f19601f82011682018060405250810190612e9c9190614cdf565b90506001600160a01b03841615801590612ec1575061010081015160f41c6001908116145b15612edf576040516318cdaf9760e01b815260040160405180910390fd5b505b600c546040516308ed6c0160e41b8152306004820152602481018490526000916001600160a01b031690638ed6c01090604401602060405180830381865afa158015612f31573d6000803e3d6000fd5b505050506040513d601f19601f82011682018060405250810190612f559190614b0a565b6001600160a01b031603610b2f57600c54604051638cec7d3960e01b8152600481018490526001600160a01b03868116602483015290911690638cec7d3990604401600060405180830381600087803b158015612fb157600080fd5b505af11580156120ff573d6000803e3d6000fd5b600c5460405163b67cb04760e01b8152306004820152602481018390526000916001600160a01b03169063b67cb0479060440161016060405180830381865afa158015613016573d6000803e3d6000fd5b505050506040513d601f19601f8201168201806040525081019061303a91906152aa565b600c5481516040516330b157e560e21b815260048101919091526001600160a01b038781166024830152868116604483015292935091169063c2c55f9490606401600060405180830381600087803b15801561309557600080fd5b505af11580156130a9573d6000803e3d6000fd5b505050506130b9848484846137f7565b610b2f565b600063ffffffff8211156131235760405162461bcd60e51b815260206004820152602660248201527f53616665436173743a2076616c756520646f65736e27742066697420696e203360448201526532206269747360d01b6064820152608401611f15565b5090565b60005b8183101561317d57600061313e8484613810565b60008781526020902090915063ffffffff86169082015463ffffffff16111561316957809250613177565b613174816001614ccc565b93505b5061312a565b509392505050565b600c54604051631266aaaf60e31b81523060048201526001600160a01b038381166024830152600092169063933555789060440161101f565b816001600160a01b0316836001600160a01b0316141580156131e05750600081115b156109fc576001600160a01b0383161561326e576001600160a01b0383166000908152600160205260408120819061321b9061382b85613837565b91509150846001600160a01b03167fdec2bacdd2f05b59de34da9b523dff8be42e5e38e818c82fdb0bae774387a7248383604051613263929190918252602082015260400190565b60405180910390a250505b6001600160a01b038216156109fc576001600160a01b038216600090815260016020526040812081906132a49061386f85613837565b91509150836001600160a01b03167fdec2bacdd2f05b59de34da9b523dff8be42e5e38e818c82fdb0bae774387a72483836040516132ec929190918252602082015260400190565b60405180910390a25050505050565b60006001600160a01b0384163b156133f257604051630a85bd0160e11b81526001600160a01b0385169063150b7a029061333f90339089908890889060040161534c565b6020604051808303816000875af192505050801561337a575060408051601f3d908101601f1916820190925261337791810190615389565b60015b6133d8573d8080156133a8576040519150601f19603f3d011682016040523d82523d6000602084013e6133ad565b606091505b5080516000036133d0576040516336f57c1b60e11b815260040160405180910390fd5b805181602001fd5b6001600160e01b031916630a85bd0160e11b14905061229a565b50600161229a565b600361340683826153ec565b5060046109fc82826153ec565b6060815160000361343257505060408051600081526020810190915290565b60408051602e8082526105e08201909252600091602082016105c08036833701905050905060008160008151811061346c5761346c6148bc565b60ff90921660209283029190910190910152825160019060005b818110156135875760008682815181106134a2576134a26148bc565b016020015160f81c905060005b8460ff1681101561352c5760088682815181106134ce576134ce6148bc565b602002602001015160ff16901b826134e69190614ccc565b91506134f3603a836154ab565b868281518110613505576135056148bc565b60ff90921660209283029190910190910152613522603a836154bf565b91506001016134af565b505b801561357e5761353f603a826154ab565b858560ff1681518110613554576135546148bc565b60ff90921660209283029190910190910152600190930192613577603a826154bf565b905061352e565b50600101613486565b506135a261359d613598858561387b565b61391a565b6139bc565b95945050505050565b600c5460405163eaa19ab360e01b81526000916060916001600160a01b039091169063eaa19ab3906135e5908890889087906004016154d3565b6000604051808303816000875af1158015613604573d6000803e3d6000fd5b505050506040513d6000823e601f3d908101601f1916820160405261362c9190810190614bea565b81519093509091506000805b828110156136e257838181518110613652576136526148bc565b6020026020010151915061366686836125ee565b856001600160a01b0316878281518110613682576136826148bc565b602002602001015161ffff16837f598baf7bf150ca2f42be9e9f8f55e81d45f5715c3ff22bf46d697fabec7f31d68b336040516136d29291909182526001600160a01b0316602082015260400190565b60405180910390a4600101613638565b505050509392505050565b600c5460405163879791f360e01b815260048101859052600091829182916001600160a01b03169063879791f3906024016060604051808303816000875af115801561373d573d6000803e3d6000fd5b505050506040513d601f19601f820116820180604052508101906137619190615530565b94509092509050600082900361379757831561379057604051630e5313df60e41b815260040160405180910390fd5b5050610d93565b6137a185836125ee565b6001600160a01b03851681837f598baf7bf150ca2f42be9e9f8f55e81d45f5715c3ff22bf46d697fabec7f31d66137d8878b614cb9565b604080519182523360208301520160405180910390a450509392505050565b60a081015115610b2f57610b2f84848360a00151613a95565b600061381f60028484186154bf565b610d9390848416614ccc565b6000610d938284614cb9565b6000806138628561385d61384a8861270a565b6001600160e01b0316868863ffffffff16565b613b05565b915091505b935093915050565b6000610d938284614ccc565b606060008260ff166001600160401b0381111561389a5761389a6141d4565b6040519080825280602002602001820160405280156138c3578160200160208202803683370190505b50905060005b8360ff1681101561317d578481815181106138e6576138e66148bc565b6020026020010151828281518110613900576139006148bc565b60ff909216602092830291909101909101526001016138c9565b80516060906000816001600160401b03811115613939576139396141d4565b604051908082528060200260200182016040528015613962578160200160208202803683370190505b50905060005b8281101561317d57848160018751030381518110613988576139886148bc565b60200260200101518282815181106139a2576139a26148bc565b60ff90921660209283029190910190910152600101613968565b80516060906000816001600160401b038111156139db576139db6141d4565b6040519080825280601f01601f191660200182016040528015613a05576020820181803683370190505b50905060005b8281101561317d576040518060600160405280603a815260200161555f603a9139858281518110613a3e57613a3e6148bc565b602002602001015160ff1681518110613a5957613a596148bc565b602001015160f81c60f81b828281518110613a7657613a766148bc565b60200101906001600160f81b031916908160001a905350600101613a0b565b6001600160a01b038316613ab457613ab1600261386f83613837565b50505b6001600160a01b038216613ad357613ad0600261382b83613837565b50505b6001600160a01b038381166000908152602081905260408082205485841683529120546109fc929182169116836131be565b600080613b2384613b15436130be565b613b1e86613b3b565b613ba4565b6001600160e01b0391821693501690505b9250929050565b60006001600160e01b038211156131235760405162461bcd60e51b815260206004820152602760248201527f53616665436173743a2076616c756520646f65736e27742066697420696e20326044820152663234206269747360c81b6064820152608401611f15565b825460009081908015613ced576000613bc287612541600185614cb9565b60408051808201909152905463ffffffff8082168084526401000000009092046001600160e01b031660208401529192509087161015613c445760405162461bcd60e51b815260206004820152601760248201527f436865636b706f696e743a20696e76616c6964206b65790000000000000000006044820152606401611f15565b805163ffffffff808816911603613c8d5784613c6588612541600186614cb9565b80546001600160e01b03929092166401000000000263ffffffff909216919091179055613cdd565b6040805180820190915263ffffffff80881682526001600160e01b0380881660208085019182528b54600181018d5560008d81529190912094519151909216640100000000029216919091179101555b6020015192508391506138679050565b50506040805180820190915263ffffffff80851682526001600160e01b0380851660208085019182528854600181018a5560008a815291822095519251909316640100000000029190931617920191909155905081613867565b6001600160e01b031981168114610e6b57600080fd5b600060208284031215613d6f57600080fd5b8135610d9381613d47565b60005b83811015613d95578181015183820152602001613d7d565b50506000910152565b60008151808452613db6816020860160208601613d7a565b601f01601f19169290920160200192915050565b602081526000610d936020830184613d9e565b600060208284031215613def57600080fd5b5035919050565b6001600160a01b0381168114610e6b57600080fd5b8035613e1681613df6565b919050565b60008060408385031215613e2e57600080fd5b8235613e3981613df6565b946020939093013593505050565b600080600060608486031215613e5c57600080fd5b8335613e6781613df6565b92506020840135613e7781613df6565b929592945050506040919091013590565b600060208284031215613e9a57600080fd5b8135610d9381613df6565b60008060208385031215613eb857600080fd5b82356001600160401b0380821115613ecf57600080fd5b818501915085601f830112613ee357600080fd5b813581811115613ef257600080fd5b8660208260061b8501011115613f0757600080fd5b60209290920196919550909350505050565b60006101e08284031215613f2c57600080fd5b50919050565b600060208284031215613f4457600080fd5b81356001600160401b03811115613f5a57600080fd5b61229a84828501613f19565b60008083601f840112613f7857600080fd5b5081356001600160401b03811115613f8f57600080fd5b6020830191508360208260051b8501011115613b3457600080fd5b60008060208385031215613fbd57600080fd5b82356001600160401b03811115613fd357600080fd5b613fdf85828601613f66565b90969095509350505050565b60008060006040848603121561400057600080fd5b83356001600160401b0381111561401657600080fd5b61402286828701613f66565b909450925050602084013561403681613df6565b809150509250925092565b600081518084526020808501945080840160005b8381101561407157815187529582019590820190600101614055565b509495945050505050565b602081526000610d936020830184614041565b600080602083850312156140a257600080fd5b82356001600160401b03808211156140b957600080fd5b818501915085601f8301126140cd57600080fd5b8135818111156140dc57600080fd5b866020828501011115613f0757600080fd5b8015158114610e6b57600080fd5b8035613e16816140ee565b6000806040838503121561411a57600080fd5b823561412581613df6565b91506020830135614135816140ee565b809150509250929050565b8381526000602060608184015261415a6060840186613d9e565b83810360408581019190915285518083528387019284019060005b818110156141a357845180516001600160a01b03168452860151868401529385019391830191600101614175565b50909998505050505050505050565b600080604083850312156141c557600080fd5b50508035926020909101359150565b634e487b7160e01b600052604160045260246000fd5b604051608081016001600160401b038111828210171561420c5761420c6141d4565b60405290565b60405161014081016001600160401b038111828210171561420c5761420c6141d4565b60405161012081016001600160401b038111828210171561420c5761420c6141d4565b60405161016081016001600160401b038111828210171561420c5761420c6141d4565b604051601f8201601f191681016001600160401b03811182821017156142a3576142a36141d4565b604052919050565b60006001600160401b038211156142c4576142c46141d4565b50601f01601f191660200190565b60006142e56142e0846142ab565b61427b565b90508281528383830111156142f957600080fd5b828260208301376000602084830101529392505050565b6000806000806080858703121561432657600080fd5b843561433181613df6565b9350602085013561434181613df6565b92506040850135915060608501356001600160401b0381111561436357600080fd5b8501601f8101871361437457600080fd5b614383878235602084016142d2565b91505092959194509250565b600082601f8301126143a057600080fd5b610d93838335602085016142d2565b60006001600160401b038211156143c8576143c86141d4565b5060051b60200190565b803569ffffffffffffffffffff81168114613e1657600080fd5b803565ffffffffffff81168114613e1657600080fd5b803564ffffffffff81168114613e1657600080fd5b803561ffff81168114613e1657600080fd5b6000608080838503121561443c57600080fd5b6144446141ea565b915082356001600160401b0381111561445c57600080fd5b8301601f8101851361446d57600080fd5b8035602061447d6142e0836143af565b828152610140928302840182019282820191908985111561449d57600080fd5b948301945b8486101561456c5780868b0312156144ba5760008081fd5b6144c2614212565b6144cb876143d2565b81526144d88588016143ec565b8582015260406144e9818901614402565b9082015260606144fa888201614417565b90820152614509878901614417565b8882015260a061451a818901613e0b565b9082015260c0878101359082015260e06145358189016140fc565b908201526101006145478882016140fc565b908201526101206145598882016140fc565b90820152835294850194918301916144a2565b5086525085810135908501525050506040808301359082015261459160608301613e0b565b606082015292915050565b6000606082840312156145ae57600080fd5b604051606081018181106001600160401b03821117156145d0576145d06141d4565b60405290508082356145e1816140ee565b815260208301356145f1816140ee565b60208201526040830135614604816140ee565b6040919091015292915050565b60008060008060008060008060008060006101a08c8e03121561463357600080fd5b8b359a5061464360208d01613e0b565b99506001600160401b038060408e0135111561465e57600080fd5b61466e8e60408f01358f0161438f565b99508060608e0135111561468157600080fd5b6146918e60608f01358f0161438f565b985061469f60808e01613e0b565b97508060a08e013511156146b257600080fd5b6146c28e60a08f01358f0161438f565b96506146d060c08e01613e0b565b95508060e08e013511156146e357600080fd5b6146f38e60e08f01358f0161438f565b9450806101008e0135111561470757600080fd5b506147198d6101008e01358e01614429565b92506147286101208d01613e0b565b91506147388d6101408e0161459c565b90509295989b509295989b9093969950565b60006020828403121561475c57600080fd5b81356001600160401b0381111561477257600080fd5b82016101a08185031215610d9357600080fd5b60006020828403121561479757600080fd5b81356001600160401b038111156147ad57600080fd5b82016102008185031215610d9357600080fd5b600080604083850312156147d357600080fd5b82356147de81613df6565b9150602083013561413581613df6565b6000806000806040858703121561480457600080fd5b84356001600160401b038082111561481b57600080fd5b818701915087601f83011261482f57600080fd5b81358181111561483e57600080fd5b8860206101408302850101111561485457600080fd5b60209283019650945090860135908082111561486f57600080fd5b5061487c87828801613f66565b95989497509550505050565b600181811c9082168061489c57607f821691505b602082108103613f2c57634e487b7160e01b600052602260045260246000fd5b634e487b7160e01b600052603260045260246000fd5b6000604082840312156148e457600080fd5b604051604081018181106001600160401b0382111715614906576149066141d4565b604052823581526020928301359281019290925250919050565b8051613e16816140ee565b60006020828403121561493d57600080fd5b8151610d93816140ee565b6000808335601e1984360301811261495f57600080fd5b8301803591506001600160401b0382111561497957600080fd5b602001915036819003821315613b3457600080fd5b6000808585111561499e57600080fd5b838611156149ab57600080fd5b5050820193919092039150565b6001600160e01b031981358181169160048510156149e05780818660040360031b1b83161692505b505092915050565b6000806000606084860312156149fd57600080fd5b83359250602080850135614a1081613d47565b925060408501356001600160401b03811115614a2b57600080fd5b8501601f81018713614a3c57600080fd5b8035614a4a6142e0826143af565b81815260059190911b82018301908381019089831115614a6957600080fd5b928401925b82841015614a8757833582529284019290840190614a6e565b80955050505050509250925092565b60008235603e19833603018112614aac57600080fd5b9190910192915050565b6000808335601e19843603018112614acd57600080fd5b8301803591506001600160401b03821115614ae757600080fd5b6020019150600581901b3603821315613b3457600080fd5b8051613e1681613df6565b600060208284031215614b1c57600080fd5b8151610d9381613df6565b84815260606020808301829052908201849052600090859060808401835b87811015614b6c5761ffff614b5985614417565b1682529282019290820190600101614b45565b50809350505050821515604083015295945050505050565b600082601f830112614b9557600080fd5b81516020614ba56142e0836143af565b82815260059290921b84018101918181019086841115614bc457600080fd5b8286015b84811015614bdf5780518352918301918301614bc8565b509695505050505050565b60008060408385031215614bfd57600080fd5b82516001600160401b03811115614c1357600080fd5b614c1f85828601614b84565b925050602083015190509250929050565b600060208284031215614c4257600080fd5b610d9382614417565b600060208284031215614c5d57600080fd5b5051919050565b60208152816020820152818360408301376000818301604090810191909152601f909201601f19160101919050565b8183823760009101908152919050565b634e487b7160e01b600052601160045260246000fd5b818103818111156108b6576108b6614ca3565b808201808211156108b6576108b6614ca3565b60006101208284031215614cf257600080fd5b614cfa614235565b825181526020830151602082015260408301516040820152606083015160608201526080830151608082015260a083015160a082015260c083015160c0820152614d4660e08401614aff565b60e0820152610100928301519281019290925250919050565b600060208284031215614d7157600080fd5b81516001600160401b03811115614d8757600080fd5b61229a84828501614b84565b602080825282518282018190526000919060409081850190868401855b82811015614e5f578151805169ffffffffffffffffffff1685528681015165ffffffffffff16878601528581015164ffffffffff168686015260608082015161ffff908116918701919091526080808301519091169086015260a0808201516001600160a01b03169086015260c0808201519086015260e08082015115159086015261010080820151151590860152610120908101511515908501526101409093019290850190600101614db0565b5091979650505050505050565b600060208284031215614e7e57600080fd5b81516001600160401b03811115614e9457600080fd5b8201601f81018413614ea557600080fd5b8051614eb36142e0826142ab565b818152856020838501011115614ec857600080fd5b6135a2826020830160208601613d7a565b6020808252810182905260006001600160fb1b03831115614ef957600080fd5b8260051b80856040850137919091016040019392505050565b614f2f82614f1f836143d2565b69ffffffffffffffffffff169052565b614f3b602082016143ec565b65ffffffffffff166020830152614f5460408201614402565b64ffffffffff166040830152614f6c60608201614417565b61ffff166060830152614f8160808201614417565b61ffff166080830152614f9660a08201613e0b565b6001600160a01b031660a083015260c08181013590830152614fba60e082016140fc565b151560e0830152610100614fcf8282016140fc565b151590830152610120614fe38282016140fc565b80151584830152610b2f565b6020808252810182905260008360408301825b85811015615028576150148284614f12565b610140928301929190910190600101615002565b5095945050505050565b61016081016150418285614f12565b6001600160a01b03929092166101409190910152919050565b6001600160a01b038316815260406020820181905260009061229a90830184614041565b634e487b7160e01b600052601260045260246000fd5b600083516150a6818460208801613d7a565b8351908301906150ba818360208801613d7a565b01949350505050565b600181815b808511156150fe5781600019048211156150e4576150e4614ca3565b808516156150f157918102915b93841c93908002906150c8565b509250929050565b600082615115575060016108b6565b81615122575060006108b6565b816001811461513857600281146151425761515e565b60019150506108b6565b60ff84111561515357615153614ca3565b50506001821b6108b6565b5060208310610133831016604e8410600b8410161715615181575081810a6108b6565b61518b83836150c3565b806000190482111561519f5761519f614ca3565b029392505050565b6000610d938383615106565b600080600080600080600060e0888a0312156151ce57600080fd5b87359650602080890135965060408901356151e881613d47565b955060608901356151f8816140ee565b94506080890135615208816140ee565b935060a0890135615218816140ee565b925060c08901356001600160401b0381111561523357600080fd5b8901601f81018b1361524457600080fd5b80356152526142e0826143af565b81815260059190911b8201830190838101908d83111561527157600080fd5b928401925b828410156152965761528784614417565b82529284019290840190615276565b809550505050505092959891949750929550565b600061016082840312156152bd57600080fd5b6152c5614258565b825181526020830151602082015260408301516040820152606083015160608201526080830151608082015260a083015160a082015260c083015160c082015261531160e08401614aff565b60e0820152610100838101519082015261012061532f818501614920565b90820152610140615341848201614920565b908201529392505050565b6001600160a01b038581168252841660208201526040810183905260806060820181905260009061537f90830184613d9e565b9695505050505050565b60006020828403121561539b57600080fd5b8151610d9381613d47565b601f8211156109fc57600081815260208120601f850160051c810160208610156153cd5750805b601f850160051c820191505b81811015612102578281556001016153d9565b81516001600160401b03811115615405576154056141d4565b615419816154138454614888565b846153a6565b602080601f83116001811461544e57600084156154365750858301515b600019600386901b1c1916600185901b178555612102565b600085815260208120601f198616915b8281101561547d5788860151825594840194600190910190840161545e565b508582101561549b5787850151600019600388901b60f8161c191681555b5050505050600190811b01905550565b6000826154ba576154ba61507e565b500690565b6000826154ce576154ce61507e565b500490565b6000606082018583526020606081850152818651808452608086019150828801935060005b8181101561551857845161ffff16835293830193918301916001016154f8565b50508093505050508215156040830152949350505050565b60008060006060848603121561554557600080fd5b835192506020840151915060408401519050925092509256fe31323334353637383941424344454647484a4b4c4d4e505152535455565758595a6162636465666768696a6b6d6e6f707172737475767778797aa26469706673582212202e9873963270269d58c4603dd631bf7859f5f505cedb68fd0eda0bd9f20b264d64736f6c63430008110033",
    "linkReferences": {}
  },
  "methodIdentifiers": {
    "adjustTiers((uint80,uint48,uint40,uint16,uint16,address,bytes32,bool,bool,bool)[],uint256[])": "f5a38e63",
    "approve(address,uint256)": "095ea7b3",
    "balanceOf(address)": "70a08231",
    "codeOrigin()": "1d153ca4",
    "contractURI()": "e8a3d485",
    "creditsOf(address)": "245a45b5",
    "delegate(address)": "5c19a95c",
    "delegates(address)": "587cde1e",
    "didPay((address,uint256,uint256,(address,uint256,uint256,uint256),(address,uint256,uint256,uint256),uint256,address,bool,string,bytes))": "da9ee8b7",
    "didRedeem((address,uint256,uint256,uint256,(address,uint256,uint256,uint256),(address,uint256,uint256,uint256),address,string,bytes))": "2b13c58f",
    "directory()": "c41c2f24",
    "firstOwnerOf(uint256)": "54c6d1f5",
    "fundingCycleStore()": "557e7155",
    "getApproved(uint256)": "081812fc",
    "getPastTotalSupply(uint256)": "8e539e8c",
    "getPastVotes(address,uint256)": "3a46b1a8",
    "getVotes(address)": "9ab24eb0",
    "initialize(uint256,address,string,string,address,string,address,string,((uint80,uint48,uint40,uint16,uint16,address,bytes32,bool,bool,bool)[],uint256,uint256,address),address,(bool,bool,bool))": "bb52b6e4",
    "isApprovedForAll(address,address)": "e985e9c5",
    "mintFor((uint16[],address)[])": "36c1a93b",
    "mintFor(uint16[],address)": "6ac6d941",
    "mintReservesFor((uint256,uint256)[])": "2a596e53",
    "mintReservesFor(uint256,uint256)": "aa4fb15b",
    "name()": "06fdde03",
    "owner()": "8da5cb5b",
    "ownerOf(uint256)": "6352211e",
    "payParams((address,address,(address,uint256,uint256,uint256),uint256,uint256,address,uint256,uint256,string,bytes))": "d46cf171",
    "prices()": "d3419bf3",
    "pricingCurrency()": "64640c1e",
    "pricingDecimals()": "4ecba625",
    "projectId()": "3fafa127",
    "redeemParams((address,address,uint256,uint256,uint256,uint256,uint256,(address,uint256,uint256,uint256),bool,uint256,string,bytes))": "a51cfd18",
    "renounceOwnership()": "715018a6",
    "safeTransferFrom(address,address,uint256)": "42842e0e",
    "safeTransferFrom(address,address,uint256,bytes)": "b88d4fde",
    "setApprovalForAll(address,bool)": "a22cb465",
    "setBaseUri(string)": "a0bcfc7f",
    "setContractUri(string)": "ccb4807b",
    "setDefaultReservedTokenBeneficiary(address)": "df487e26",
    "setTokenUriResolver(address)": "2407497e",
    "store()": "975057e7",
    "supportsInterface(bytes4)": "01ffc9a7",
    "symbol()": "95d89b41",
    "tokenURI(uint256)": "c87b56dd",
    "transferFrom(address,address,uint256)": "23b872dd",
    "transferOwnership(address)": "f2fde38b"
  },
  "id": 21
}